{
	"contracts/JwtToken.sol": {
		"JwtToken": {
			"abi": [
				{
					"inputs": [],
					"stateMutability": "nonpayable",
					"type": "constructor"
				},
				{
					"anonymous": false,
					"inputs": [
						{
							"indexed": true,
							"internalType": "address",
							"name": "owner",
							"type": "address"
						},
						{
							"indexed": true,
							"internalType": "address",
							"name": "spender",
							"type": "address"
						},
						{
							"indexed": false,
							"internalType": "uint256",
							"name": "value",
							"type": "uint256"
						}
					],
					"name": "Approval",
					"type": "event"
				},
				{
					"anonymous": false,
					"inputs": [
						{
							"indexed": true,
							"internalType": "address",
							"name": "from",
							"type": "address"
						},
						{
							"indexed": true,
							"internalType": "address",
							"name": "to",
							"type": "address"
						},
						{
							"indexed": false,
							"internalType": "uint256",
							"name": "value",
							"type": "uint256"
						}
					],
					"name": "Transfer",
					"type": "event"
				},
				{
					"inputs": [],
					"name": "_balanceOf",
					"outputs": [
						{
							"internalType": "uint256",
							"name": "",
							"type": "uint256"
						}
					],
					"stateMutability": "view",
					"type": "function"
				},
				{
					"inputs": [],
					"name": "_name",
					"outputs": [
						{
							"internalType": "string",
							"name": "",
							"type": "string"
						}
					],
					"stateMutability": "view",
					"type": "function"
				},
				{
					"inputs": [],
					"name": "_symbol",
					"outputs": [
						{
							"internalType": "string",
							"name": "",
							"type": "string"
						}
					],
					"stateMutability": "view",
					"type": "function"
				},
				{
					"inputs": [],
					"name": "_totalSupply",
					"outputs": [
						{
							"internalType": "uint256",
							"name": "",
							"type": "uint256"
						}
					],
					"stateMutability": "view",
					"type": "function"
				},
				{
					"inputs": [
						{
							"internalType": "address",
							"name": "owner",
							"type": "address"
						},
						{
							"internalType": "address",
							"name": "spender",
							"type": "address"
						}
					],
					"name": "allowance",
					"outputs": [
						{
							"internalType": "uint256",
							"name": "",
							"type": "uint256"
						}
					],
					"stateMutability": "view",
					"type": "function"
				},
				{
					"inputs": [
						{
							"internalType": "address",
							"name": "spender",
							"type": "address"
						},
						{
							"internalType": "uint256",
							"name": "amount",
							"type": "uint256"
						}
					],
					"name": "approve",
					"outputs": [
						{
							"internalType": "bool",
							"name": "",
							"type": "bool"
						}
					],
					"stateMutability": "nonpayable",
					"type": "function"
				},
				{
					"inputs": [
						{
							"internalType": "address",
							"name": "account",
							"type": "address"
						}
					],
					"name": "balanceOf",
					"outputs": [
						{
							"internalType": "uint256",
							"name": "",
							"type": "uint256"
						}
					],
					"stateMutability": "view",
					"type": "function"
				},
				{
					"inputs": [
						{
							"internalType": "address",
							"name": "to",
							"type": "address"
						},
						{
							"internalType": "uint256",
							"name": "tokenAmount",
							"type": "uint256"
						}
					],
					"name": "buyToken",
					"outputs": [],
					"stateMutability": "payable",
					"type": "function"
				},
				{
					"inputs": [],
					"name": "decimals",
					"outputs": [
						{
							"internalType": "uint8",
							"name": "",
							"type": "uint8"
						}
					],
					"stateMutability": "view",
					"type": "function"
				},
				{
					"inputs": [
						{
							"internalType": "address",
							"name": "spender",
							"type": "address"
						},
						{
							"internalType": "uint256",
							"name": "subtractedValue",
							"type": "uint256"
						}
					],
					"name": "decreaseAllowance",
					"outputs": [
						{
							"internalType": "bool",
							"name": "",
							"type": "bool"
						}
					],
					"stateMutability": "nonpayable",
					"type": "function"
				},
				{
					"inputs": [
						{
							"internalType": "address",
							"name": "spender",
							"type": "address"
						},
						{
							"internalType": "uint256",
							"name": "addedValue",
							"type": "uint256"
						}
					],
					"name": "increaseAllowance",
					"outputs": [
						{
							"internalType": "bool",
							"name": "",
							"type": "bool"
						}
					],
					"stateMutability": "nonpayable",
					"type": "function"
				},
				{
					"inputs": [],
					"name": "name",
					"outputs": [
						{
							"internalType": "string",
							"name": "",
							"type": "string"
						}
					],
					"stateMutability": "view",
					"type": "function"
				},
				{
					"inputs": [],
					"name": "symbol",
					"outputs": [
						{
							"internalType": "string",
							"name": "",
							"type": "string"
						}
					],
					"stateMutability": "view",
					"type": "function"
				},
				{
					"inputs": [],
					"name": "totalSupply",
					"outputs": [
						{
							"internalType": "uint256",
							"name": "",
							"type": "uint256"
						}
					],
					"stateMutability": "view",
					"type": "function"
				},
				{
					"inputs": [
						{
							"internalType": "address",
							"name": "to",
							"type": "address"
						},
						{
							"internalType": "uint256",
							"name": "amount",
							"type": "uint256"
						}
					],
					"name": "transfer",
					"outputs": [
						{
							"internalType": "bool",
							"name": "",
							"type": "bool"
						}
					],
					"stateMutability": "nonpayable",
					"type": "function"
				},
				{
					"inputs": [
						{
							"internalType": "address",
							"name": "from",
							"type": "address"
						},
						{
							"internalType": "address",
							"name": "to",
							"type": "address"
						},
						{
							"internalType": "uint256",
							"name": "amount",
							"type": "uint256"
						}
					],
					"name": "transferFrom",
					"outputs": [
						{
							"internalType": "bool",
							"name": "",
							"type": "bool"
						}
					],
					"stateMutability": "nonpayable",
					"type": "function"
				}
			],
			"devdoc": {
				"events": {
					"Approval(address,address,uint256)": {
						"details": "Emitted when the allowance of a `spender` for an `owner` is set by a call to {approve}. `value` is the new allowance."
					},
					"Transfer(address,address,uint256)": {
						"details": "Emitted when `value` tokens are moved from one account (`from`) to another (`to`). Note that `value` may be zero."
					}
				},
				"kind": "dev",
				"methods": {
					"allowance(address,address)": {
						"details": "See {IERC20-allowance}."
					},
					"approve(address,uint256)": {
						"details": "See {IERC20-approve}. NOTE: If `amount` is the maximum `uint256`, the allowance is not updated on `transferFrom`. This is semantically equivalent to an infinite approval. Requirements: - `spender` cannot be the zero address."
					},
					"balanceOf(address)": {
						"details": "See {IERC20-balanceOf}."
					},
					"decimals()": {
						"details": "Returns the number of decimals used to get its user representation. For example, if `decimals` equals `2`, a balance of `505` tokens should be displayed to a user as `5.05` (`505 / 10 ** 2`). Tokens usually opt for a value of 18, imitating the relationship between Ether and Wei. This is the default value returned by this function, unless it's overridden. NOTE: This information is only used for _display_ purposes: it in no way affects any of the arithmetic of the contract, including {IERC20-balanceOf} and {IERC20-transfer}."
					},
					"decreaseAllowance(address,uint256)": {
						"details": "Atomically decreases the allowance granted to `spender` by the caller. This is an alternative to {approve} that can be used as a mitigation for problems described in {IERC20-approve}. Emits an {Approval} event indicating the updated allowance. Requirements: - `spender` cannot be the zero address. - `spender` must have allowance for the caller of at least `subtractedValue`."
					},
					"increaseAllowance(address,uint256)": {
						"details": "Atomically increases the allowance granted to `spender` by the caller. This is an alternative to {approve} that can be used as a mitigation for problems described in {IERC20-approve}. Emits an {Approval} event indicating the updated allowance. Requirements: - `spender` cannot be the zero address."
					},
					"name()": {
						"details": "Returns the name of the token."
					},
					"symbol()": {
						"details": "Returns the symbol of the token, usually a shorter version of the name."
					},
					"totalSupply()": {
						"details": "See {IERC20-totalSupply}."
					},
					"transfer(address,uint256)": {
						"details": "See {IERC20-transfer}. Requirements: - `to` cannot be the zero address. - the caller must have a balance of at least `amount`."
					},
					"transferFrom(address,address,uint256)": {
						"details": "See {IERC20-transferFrom}. Emits an {Approval} event indicating the updated allowance. This is not required by the EIP. See the note at the beginning of {ERC20}. NOTE: Does not update the allowance if the current allowance is the maximum `uint256`. Requirements: - `from` and `to` cannot be the zero address. - `from` must have a balance of at least `amount`. - the caller must have allowance for ``from``'s tokens of at least `amount`."
					}
				},
				"version": 1
			},
			"evm": {
				"assembly": "    /* \"contracts/JwtToken.sol\":99:430  contract JwtToken is ERC20 {... */\n  mstore(0x40, 0x80)\n    /* \"contracts/JwtToken.sol\":132:164  string public _name = \"JwtToken\" */\n  mload(0x40)\n  dup1\n  0x40\n  add\n  0x40\n  mstore\n  dup1\n  0x08\n  dup2\n  mstore\n  0x20\n  add\n  0x4a7774546f6b656e000000000000000000000000000000000000000000000000\n  dup2\n  mstore\n  pop\n  0x06\n  swap1\n  dup2\n  tag_1\n  swap2\n  swap1\n  tag_2\n  jump\t// in\ntag_1:\n  pop\n    /* \"contracts/JwtToken.sol\":170:199  string public _symbol = \"JTK\" */\n  mload(0x40)\n  dup1\n  0x40\n  add\n  0x40\n  mstore\n  dup1\n  0x03\n  dup2\n  mstore\n  0x20\n  add\n  0x4a544b0000000000000000000000000000000000000000000000000000000000\n  dup2\n  mstore\n  pop\n  0x07\n  swap1\n  dup2\n  tag_3\n  swap2\n  swap1\n  tag_2\n  jump\t// in\ntag_3:\n  pop\n    /* \"contracts/JwtToken.sol\":249:259  decimals() */\n  tag_4\n    /* \"contracts/JwtToken.sol\":249:257  decimals */\n  shl(0x20, tag_5)\n    /* \"contracts/JwtToken.sol\":249:259  decimals() */\n  0x20\n  shr\n  jump\t// in\ntag_4:\n    /* \"contracts/JwtToken.sol\":243:245  10 */\n  0x0a\n    /* \"contracts/JwtToken.sol\":243:259  10 ** decimals() */\n  tag_6\n  swap2\n  swap1\n  tag_7\n  jump\t// in\ntag_6:\n    /* \"contracts/JwtToken.sol\":235:239  5000 */\n  0x1388\n    /* \"contracts/JwtToken.sol\":235:260  5000 * (10 ** decimals()) */\n  tag_8\n  swap2\n  swap1\n  tag_9\n  jump\t// in\ntag_8:\n    /* \"contracts/JwtToken.sol\":205:260  uint256 public _totalSupply = 5000 * (10 ** decimals()) */\n  0x08\n  sstore\n    /* \"contracts/JwtToken.sol\":267:428  constructor() ERC20(_name, _symbol) {... */\n  callvalue\n  dup1\n  iszero\n  tag_10\n  jumpi\n  0x00\n  dup1\n  revert\ntag_10:\n  pop\n    /* \"contracts/JwtToken.sol\":287:292  _name */\n  0x06\n    /* \"node_modules/@openzeppelin/contracts/token/ERC20/ERC20.sol\":1999:2141  constructor(string memory name_, string memory symbol_) {... */\n  dup1\n  sload\n  tag_12\n  swap1\n  tag_13\n  jump\t// in\ntag_12:\n  dup1\n  0x1f\n  add\n  0x20\n  dup1\n  swap2\n  div\n  mul\n  0x20\n  add\n  mload(0x40)\n  swap1\n  dup2\n  add\n  0x40\n  mstore\n  dup1\n  swap3\n  swap2\n  swap1\n  dup2\n  dup2\n  mstore\n  0x20\n  add\n  dup3\n  dup1\n  sload\n  tag_14\n  swap1\n  tag_13\n  jump\t// in\ntag_14:\n  dup1\n  iszero\n  tag_15\n  jumpi\n  dup1\n  0x1f\n  lt\n  tag_16\n  jumpi\n  0x0100\n  dup1\n  dup4\n  sload\n  div\n  mul\n  dup4\n  mstore\n  swap2\n  0x20\n  add\n  swap2\n  jump(tag_15)\ntag_16:\n  dup3\n  add\n  swap2\n  swap1\n  0x00\n  mstore\n  keccak256(0x00, 0x20)\n  swap1\ntag_17:\n  dup2\n  sload\n  dup2\n  mstore\n  swap1\n  0x01\n  add\n  swap1\n  0x20\n  add\n  dup1\n  dup4\n  gt\n  tag_17\n  jumpi\n  dup3\n  swap1\n  sub\n  0x1f\n  and\n  dup3\n  add\n  swap2\ntag_15:\n  pop\n  pop\n  pop\n  pop\n  pop\n    /* \"contracts/JwtToken.sol\":294:301  _symbol */\n  0x07\n    /* \"node_modules/@openzeppelin/contracts/token/ERC20/ERC20.sol\":1999:2141  constructor(string memory name_, string memory symbol_) {... */\n  dup1\n  sload\n  tag_18\n  swap1\n  tag_13\n  jump\t// in\ntag_18:\n  dup1\n  0x1f\n  add\n  0x20\n  dup1\n  swap2\n  div\n  mul\n  0x20\n  add\n  mload(0x40)\n  swap1\n  dup2\n  add\n  0x40\n  mstore\n  dup1\n  swap3\n  swap2\n  swap1\n  dup2\n  dup2\n  mstore\n  0x20\n  add\n  dup3\n  dup1\n  sload\n  tag_19\n  swap1\n  tag_13\n  jump\t// in\ntag_19:\n  dup1\n  iszero\n  tag_20\n  jumpi\n  dup1\n  0x1f\n  lt\n  tag_21\n  jumpi\n  0x0100\n  dup1\n  dup4\n  sload\n  div\n  mul\n  dup4\n  mstore\n  swap2\n  0x20\n  add\n  swap2\n  jump(tag_20)\ntag_21:\n  dup3\n  add\n  swap2\n  swap1\n  0x00\n  mstore\n  keccak256(0x00, 0x20)\n  swap1\ntag_22:\n  dup2\n  sload\n  dup2\n  mstore\n  swap1\n  0x01\n  add\n  swap1\n  0x20\n  add\n  dup1\n  dup4\n  gt\n  tag_22\n  jumpi\n  dup3\n  swap1\n  sub\n  0x1f\n  and\n  dup3\n  add\n  swap2\ntag_20:\n  pop\n  pop\n  pop\n  pop\n  pop\n    /* \"node_modules/@openzeppelin/contracts/token/ERC20/ERC20.sol\":2073:2078  name_ */\n  dup2\n    /* \"node_modules/@openzeppelin/contracts/token/ERC20/ERC20.sol\":2065:2070  _name */\n  0x03\n    /* \"node_modules/@openzeppelin/contracts/token/ERC20/ERC20.sol\":2065:2078  _name = name_ */\n  swap1\n  dup2\n  tag_25\n  swap2\n  swap1\n  tag_2\n  jump\t// in\ntag_25:\n  pop\n    /* \"node_modules/@openzeppelin/contracts/token/ERC20/ERC20.sol\":2098:2105  symbol_ */\n  dup1\n    /* \"node_modules/@openzeppelin/contracts/token/ERC20/ERC20.sol\":2088:2095  _symbol */\n  0x04\n    /* \"node_modules/@openzeppelin/contracts/token/ERC20/ERC20.sol\":2088:2105  _symbol = symbol_ */\n  swap1\n  dup2\n  tag_26\n  swap2\n  swap1\n  tag_2\n  jump\t// in\ntag_26:\n  pop\n    /* \"node_modules/@openzeppelin/contracts/token/ERC20/ERC20.sol\":2124:2134  msg.sender */\n  caller\n    /* \"node_modules/@openzeppelin/contracts/token/ERC20/ERC20.sol\":2115:2121  _owner */\n  0x05\n  0x00\n    /* \"node_modules/@openzeppelin/contracts/token/ERC20/ERC20.sol\":2115:2134  _owner = msg.sender */\n  0x0100\n  exp\n  dup2\n  sload\n  dup2\n  0xffffffffffffffffffffffffffffffffffffffff\n  mul\n  not\n  and\n  swap1\n  dup4\n  0xffffffffffffffffffffffffffffffffffffffff\n  and\n  mul\n  or\n  swap1\n  sstore\n  pop\n    /* \"node_modules/@openzeppelin/contracts/token/ERC20/ERC20.sol\":1999:2141  constructor(string memory name_, string memory symbol_) {... */\n  pop\n  pop\n    /* \"contracts/JwtToken.sol\":387:421  _mint(address(this), _totalSupply) */\n  tag_28\n    /* \"contracts/JwtToken.sol\":401:405  this */\n  address\n    /* \"contracts/JwtToken.sol\":408:420  _totalSupply */\n  sload(0x08)\n    /* \"contracts/JwtToken.sol\":387:392  _mint */\n  shl(0x20, tag_29)\n    /* \"contracts/JwtToken.sol\":387:421  _mint(address(this), _totalSupply) */\n  0x20\n  shr\n  jump\t// in\ntag_28:\n    /* \"contracts/JwtToken.sol\":99:430  contract JwtToken is ERC20 {... */\n  jump(tag_30)\n    /* \"node_modules/@openzeppelin/contracts/token/ERC20/ERC20.sol\":3385:3476  function decimals() public view virtual override returns (uint8) {... */\ntag_5:\n    /* \"node_modules/@openzeppelin/contracts/token/ERC20/ERC20.sol\":3443:3448  uint8 */\n  0x00\n    /* \"node_modules/@openzeppelin/contracts/token/ERC20/ERC20.sol\":3467:3469  18 */\n  0x12\n    /* \"node_modules/@openzeppelin/contracts/token/ERC20/ERC20.sol\":3460:3469  return 18 */\n  swap1\n  pop\n    /* \"node_modules/@openzeppelin/contracts/token/ERC20/ERC20.sol\":3385:3476  function decimals() public view virtual override returns (uint8) {... */\n  swap1\n  jump\t// out\n    /* \"node_modules/@openzeppelin/contracts/token/ERC20/ERC20.sol\":8796:9331  function _mint(address account, uint256 amount) internal virtual {... */\ntag_29:\n    /* \"node_modules/@openzeppelin/contracts/token/ERC20/ERC20.sol\":8898:8899  0 */\n  0x00\n    /* \"node_modules/@openzeppelin/contracts/token/ERC20/ERC20.sol\":8879:8900  account != address(0) */\n  0xffffffffffffffffffffffffffffffffffffffff\n  and\n    /* \"node_modules/@openzeppelin/contracts/token/ERC20/ERC20.sol\":8879:8886  account */\n  dup3\n    /* \"node_modules/@openzeppelin/contracts/token/ERC20/ERC20.sol\":8879:8900  account != address(0) */\n  0xffffffffffffffffffffffffffffffffffffffff\n  and\n  sub\n    /* \"node_modules/@openzeppelin/contracts/token/ERC20/ERC20.sol\":8871:8936  require(account != address(0), \"ERC20: mint to the zero address\") */\n  tag_33\n  jumpi\n  mload(0x40)\n  0x08c379a000000000000000000000000000000000000000000000000000000000\n  dup2\n  mstore\n  0x04\n  add\n  tag_34\n  swap1\n  tag_35\n  jump\t// in\ntag_34:\n  mload(0x40)\n  dup1\n  swap2\n  sub\n  swap1\n  revert\ntag_33:\n    /* \"node_modules/@openzeppelin/contracts/token/ERC20/ERC20.sol\":8947:8996  _beforeTokenTransfer(address(0), account, amount) */\n  tag_36\n    /* \"node_modules/@openzeppelin/contracts/token/ERC20/ERC20.sol\":8976:8977  0 */\n  0x00\n    /* \"node_modules/@openzeppelin/contracts/token/ERC20/ERC20.sol\":8980:8987  account */\n  dup4\n    /* \"node_modules/@openzeppelin/contracts/token/ERC20/ERC20.sol\":8989:8995  amount */\n  dup4\n    /* \"node_modules/@openzeppelin/contracts/token/ERC20/ERC20.sol\":8947:8967  _beforeTokenTransfer */\n  shl(0x20, tag_37)\n    /* \"node_modules/@openzeppelin/contracts/token/ERC20/ERC20.sol\":8947:8996  _beforeTokenTransfer(address(0), account, amount) */\n  0x20\n  shr\n  jump\t// in\ntag_36:\n    /* \"node_modules/@openzeppelin/contracts/token/ERC20/ERC20.sol\":9023:9029  amount */\n  dup1\n    /* \"node_modules/@openzeppelin/contracts/token/ERC20/ERC20.sol\":9007:9019  _totalSupply */\n  0x02\n  0x00\n    /* \"node_modules/@openzeppelin/contracts/token/ERC20/ERC20.sol\":9007:9029  _totalSupply += amount */\n  dup3\n  dup3\n  sload\n  tag_38\n  swap2\n  swap1\n  tag_39\n  jump\t// in\ntag_38:\n  swap3\n  pop\n  pop\n  dup2\n  swap1\n  sstore\n  pop\n    /* \"node_modules/@openzeppelin/contracts/token/ERC20/ERC20.sol\":9197:9203  amount */\n  dup1\n    /* \"node_modules/@openzeppelin/contracts/token/ERC20/ERC20.sol\":9175:9184  _balances */\n  0x00\n    /* \"node_modules/@openzeppelin/contracts/token/ERC20/ERC20.sol\":9175:9193  _balances[account] */\n  dup1\n    /* \"node_modules/@openzeppelin/contracts/token/ERC20/ERC20.sol\":9185:9192  account */\n  dup5\n    /* \"node_modules/@openzeppelin/contracts/token/ERC20/ERC20.sol\":9175:9193  _balances[account] */\n  0xffffffffffffffffffffffffffffffffffffffff\n  and\n  0xffffffffffffffffffffffffffffffffffffffff\n  and\n  dup2\n  mstore\n  0x20\n  add\n  swap1\n  dup2\n  mstore\n  0x20\n  add\n  0x00\n  keccak256\n  0x00\n    /* \"node_modules/@openzeppelin/contracts/token/ERC20/ERC20.sol\":9175:9203  _balances[account] += amount */\n  dup3\n  dup3\n  sload\n  add\n  swap3\n  pop\n  pop\n  dup2\n  swap1\n  sstore\n  pop\n    /* \"node_modules/@openzeppelin/contracts/token/ERC20/ERC20.sol\":9249:9256  account */\n  dup2\n    /* \"node_modules/@openzeppelin/contracts/token/ERC20/ERC20.sol\":9228:9265  Transfer(address(0), account, amount) */\n  0xffffffffffffffffffffffffffffffffffffffff\n  and\n    /* \"node_modules/@openzeppelin/contracts/token/ERC20/ERC20.sol\":9245:9246  0 */\n  0x00\n    /* \"node_modules/@openzeppelin/contracts/token/ERC20/ERC20.sol\":9228:9265  Transfer(address(0), account, amount) */\n  0xffffffffffffffffffffffffffffffffffffffff\n  and\n  0xddf252ad1be2c89b69c2b068fc378daa952ba7f163c4a11628f55a4df523b3ef\n    /* \"node_modules/@openzeppelin/contracts/token/ERC20/ERC20.sol\":9258:9264  amount */\n  dup4\n    /* \"node_modules/@openzeppelin/contracts/token/ERC20/ERC20.sol\":9228:9265  Transfer(address(0), account, amount) */\n  mload(0x40)\n  tag_40\n  swap2\n  swap1\n  tag_41\n  jump\t// in\ntag_40:\n  mload(0x40)\n  dup1\n  swap2\n  sub\n  swap1\n  log3\n    /* \"node_modules/@openzeppelin/contracts/token/ERC20/ERC20.sol\":9276:9324  _afterTokenTransfer(address(0), account, amount) */\n  tag_42\n    /* \"node_modules/@openzeppelin/contracts/token/ERC20/ERC20.sol\":9304:9305  0 */\n  0x00\n    /* \"node_modules/@openzeppelin/contracts/token/ERC20/ERC20.sol\":9308:9315  account */\n  dup4\n    /* \"node_modules/@openzeppelin/contracts/token/ERC20/ERC20.sol\":9317:9323  amount */\n  dup4\n    /* \"node_modules/@openzeppelin/contracts/token/ERC20/ERC20.sol\":9276:9295  _afterTokenTransfer */\n  shl(0x20, tag_43)\n    /* \"node_modules/@openzeppelin/contracts/token/ERC20/ERC20.sol\":9276:9324  _afterTokenTransfer(address(0), account, amount) */\n  0x20\n  shr\n  jump\t// in\ntag_42:\n    /* \"node_modules/@openzeppelin/contracts/token/ERC20/ERC20.sol\":8796:9331  function _mint(address account, uint256 amount) internal virtual {... */\n  pop\n  pop\n  jump\t// out\n    /* \"node_modules/@openzeppelin/contracts/token/ERC20/ERC20.sol\":12349:12440  function _beforeTokenTransfer(address from, address to, uint256 amount) internal virtual {} */\ntag_37:\n  pop\n  pop\n  pop\n  jump\t// out\n    /* \"node_modules/@openzeppelin/contracts/token/ERC20/ERC20.sol\":13028:13118  function _afterTokenTransfer(address from, address to, uint256 amount) internal virtual {} */\ntag_43:\n  pop\n  pop\n  pop\n  jump\t// out\n    /* \"#utility.yul\":7:106   */\ntag_46:\n    /* \"#utility.yul\":59:65   */\n  0x00\n    /* \"#utility.yul\":93:98   */\n  dup2\n    /* \"#utility.yul\":87:99   */\n  mload\n    /* \"#utility.yul\":77:99   */\n  swap1\n  pop\n    /* \"#utility.yul\":7:106   */\n  swap2\n  swap1\n  pop\n  jump\t// out\n    /* \"#utility.yul\":112:292   */\ntag_47:\n    /* \"#utility.yul\":160:237   */\n  0x4e487b7100000000000000000000000000000000000000000000000000000000\n    /* \"#utility.yul\":157:158   */\n  0x00\n    /* \"#utility.yul\":150:238   */\n  mstore\n    /* \"#utility.yul\":257:261   */\n  0x41\n    /* \"#utility.yul\":254:255   */\n  0x04\n    /* \"#utility.yul\":247:262   */\n  mstore\n    /* \"#utility.yul\":281:285   */\n  0x24\n    /* \"#utility.yul\":278:279   */\n  0x00\n    /* \"#utility.yul\":271:286   */\n  revert\n    /* \"#utility.yul\":298:478   */\ntag_48:\n    /* \"#utility.yul\":346:423   */\n  0x4e487b7100000000000000000000000000000000000000000000000000000000\n    /* \"#utility.yul\":343:344   */\n  0x00\n    /* \"#utility.yul\":336:424   */\n  mstore\n    /* \"#utility.yul\":443:447   */\n  0x22\n    /* \"#utility.yul\":440:441   */\n  0x04\n    /* \"#utility.yul\":433:448   */\n  mstore\n    /* \"#utility.yul\":467:471   */\n  0x24\n    /* \"#utility.yul\":464:465   */\n  0x00\n    /* \"#utility.yul\":457:472   */\n  revert\n    /* \"#utility.yul\":484:804   */\ntag_13:\n    /* \"#utility.yul\":528:534   */\n  0x00\n    /* \"#utility.yul\":565:566   */\n  0x02\n    /* \"#utility.yul\":559:563   */\n  dup3\n    /* \"#utility.yul\":555:567   */\n  div\n    /* \"#utility.yul\":545:567   */\n  swap1\n  pop\n    /* \"#utility.yul\":612:613   */\n  0x01\n    /* \"#utility.yul\":606:610   */\n  dup3\n    /* \"#utility.yul\":602:614   */\n  and\n    /* \"#utility.yul\":633:651   */\n  dup1\n    /* \"#utility.yul\":623:704   */\n  tag_79\n  jumpi\n    /* \"#utility.yul\":689:693   */\n  0x7f\n    /* \"#utility.yul\":681:687   */\n  dup3\n    /* \"#utility.yul\":677:694   */\n  and\n    /* \"#utility.yul\":667:694   */\n  swap2\n  pop\n    /* \"#utility.yul\":623:704   */\ntag_79:\n    /* \"#utility.yul\":751:753   */\n  0x20\n    /* \"#utility.yul\":743:749   */\n  dup3\n    /* \"#utility.yul\":740:754   */\n  lt\n    /* \"#utility.yul\":720:738   */\n  dup2\n    /* \"#utility.yul\":717:755   */\n  sub\n    /* \"#utility.yul\":714:798   */\n  tag_80\n  jumpi\n    /* \"#utility.yul\":770:788   */\n  tag_81\n  tag_48\n  jump\t// in\ntag_81:\n    /* \"#utility.yul\":714:798   */\ntag_80:\n    /* \"#utility.yul\":535:804   */\n  pop\n    /* \"#utility.yul\":484:804   */\n  swap2\n  swap1\n  pop\n  jump\t// out\n    /* \"#utility.yul\":810:951   */\ntag_49:\n    /* \"#utility.yul\":859:863   */\n  0x00\n    /* \"#utility.yul\":882:885   */\n  dup2\n    /* \"#utility.yul\":874:885   */\n  swap1\n  pop\n    /* \"#utility.yul\":905:908   */\n  dup2\n    /* \"#utility.yul\":902:903   */\n  0x00\n    /* \"#utility.yul\":895:909   */\n  mstore\n    /* \"#utility.yul\":939:943   */\n  0x20\n    /* \"#utility.yul\":936:937   */\n  0x00\n    /* \"#utility.yul\":926:944   */\n  keccak256\n    /* \"#utility.yul\":918:944   */\n  swap1\n  pop\n    /* \"#utility.yul\":810:951   */\n  swap2\n  swap1\n  pop\n  jump\t// out\n    /* \"#utility.yul\":957:1050   */\ntag_50:\n    /* \"#utility.yul\":994:1000   */\n  0x00\n    /* \"#utility.yul\":1041:1043   */\n  0x20\n    /* \"#utility.yul\":1036:1038   */\n  0x1f\n    /* \"#utility.yul\":1029:1034   */\n  dup4\n    /* \"#utility.yul\":1025:1039   */\n  add\n    /* \"#utility.yul\":1021:1044   */\n  div\n    /* \"#utility.yul\":1011:1044   */\n  swap1\n  pop\n    /* \"#utility.yul\":957:1050   */\n  swap2\n  swap1\n  pop\n  jump\t// out\n    /* \"#utility.yul\":1056:1163   */\ntag_51:\n    /* \"#utility.yul\":1100:1108   */\n  0x00\n    /* \"#utility.yul\":1150:1155   */\n  dup3\n    /* \"#utility.yul\":1144:1148   */\n  dup3\n    /* \"#utility.yul\":1140:1156   */\n  shl\n    /* \"#utility.yul\":1119:1156   */\n  swap1\n  pop\n    /* \"#utility.yul\":1056:1163   */\n  swap3\n  swap2\n  pop\n  pop\n  jump\t// out\n    /* \"#utility.yul\":1169:1562   */\ntag_52:\n    /* \"#utility.yul\":1238:1244   */\n  0x00\n    /* \"#utility.yul\":1288:1289   */\n  0x08\n    /* \"#utility.yul\":1276:1286   */\n  dup4\n    /* \"#utility.yul\":1272:1290   */\n  mul\n    /* \"#utility.yul\":1311:1408   */\n  tag_86\n    /* \"#utility.yul\":1341:1407   */\n  0xffffffffffffffffffffffffffffffffffffffffffffffffffffffffffffffff\n    /* \"#utility.yul\":1330:1339   */\n  dup3\n    /* \"#utility.yul\":1311:1408   */\n  tag_51\n  jump\t// in\ntag_86:\n    /* \"#utility.yul\":1429:1468   */\n  tag_87\n    /* \"#utility.yul\":1459:1467   */\n  dup7\n    /* \"#utility.yul\":1448:1457   */\n  dup4\n    /* \"#utility.yul\":1429:1468   */\n  tag_51\n  jump\t// in\ntag_87:\n    /* \"#utility.yul\":1417:1468   */\n  swap6\n  pop\n    /* \"#utility.yul\":1501:1505   */\n  dup1\n    /* \"#utility.yul\":1497:1506   */\n  not\n    /* \"#utility.yul\":1490:1495   */\n  dup5\n    /* \"#utility.yul\":1486:1507   */\n  and\n    /* \"#utility.yul\":1477:1507   */\n  swap4\n  pop\n    /* \"#utility.yul\":1550:1554   */\n  dup1\n    /* \"#utility.yul\":1540:1548   */\n  dup7\n    /* \"#utility.yul\":1536:1555   */\n  and\n    /* \"#utility.yul\":1529:1534   */\n  dup5\n    /* \"#utility.yul\":1526:1556   */\n  or\n    /* \"#utility.yul\":1516:1556   */\n  swap3\n  pop\n    /* \"#utility.yul\":1245:1562   */\n  pop\n  pop\n    /* \"#utility.yul\":1169:1562   */\n  swap4\n  swap3\n  pop\n  pop\n  pop\n  jump\t// out\n    /* \"#utility.yul\":1568:1645   */\ntag_53:\n    /* \"#utility.yul\":1605:1612   */\n  0x00\n    /* \"#utility.yul\":1634:1639   */\n  dup2\n    /* \"#utility.yul\":1623:1639   */\n  swap1\n  pop\n    /* \"#utility.yul\":1568:1645   */\n  swap2\n  swap1\n  pop\n  jump\t// out\n    /* \"#utility.yul\":1651:1711   */\ntag_54:\n    /* \"#utility.yul\":1679:1682   */\n  0x00\n    /* \"#utility.yul\":1700:1705   */\n  dup2\n    /* \"#utility.yul\":1693:1705   */\n  swap1\n  pop\n    /* \"#utility.yul\":1651:1711   */\n  swap2\n  swap1\n  pop\n  jump\t// out\n    /* \"#utility.yul\":1717:1859   */\ntag_55:\n    /* \"#utility.yul\":1767:1776   */\n  0x00\n    /* \"#utility.yul\":1800:1853   */\n  tag_91\n    /* \"#utility.yul\":1818:1852   */\n  tag_92\n    /* \"#utility.yul\":1827:1851   */\n  tag_93\n    /* \"#utility.yul\":1845:1850   */\n  dup5\n    /* \"#utility.yul\":1827:1851   */\n  tag_53\n  jump\t// in\ntag_93:\n    /* \"#utility.yul\":1818:1852   */\n  tag_54\n  jump\t// in\ntag_92:\n    /* \"#utility.yul\":1800:1853   */\n  tag_53\n  jump\t// in\ntag_91:\n    /* \"#utility.yul\":1787:1853   */\n  swap1\n  pop\n    /* \"#utility.yul\":1717:1859   */\n  swap2\n  swap1\n  pop\n  jump\t// out\n    /* \"#utility.yul\":1865:1940   */\ntag_56:\n    /* \"#utility.yul\":1908:1911   */\n  0x00\n    /* \"#utility.yul\":1929:1934   */\n  dup2\n    /* \"#utility.yul\":1922:1934   */\n  swap1\n  pop\n    /* \"#utility.yul\":1865:1940   */\n  swap2\n  swap1\n  pop\n  jump\t// out\n    /* \"#utility.yul\":1946:2215   */\ntag_57:\n    /* \"#utility.yul\":2056:2095   */\n  tag_96\n    /* \"#utility.yul\":2087:2094   */\n  dup4\n    /* \"#utility.yul\":2056:2095   */\n  tag_55\n  jump\t// in\ntag_96:\n    /* \"#utility.yul\":2117:2208   */\n  tag_97\n    /* \"#utility.yul\":2166:2207   */\n  tag_98\n    /* \"#utility.yul\":2190:2206   */\n  dup3\n    /* \"#utility.yul\":2166:2207   */\n  tag_56\n  jump\t// in\ntag_98:\n    /* \"#utility.yul\":2158:2164   */\n  dup5\n    /* \"#utility.yul\":2151:2155   */\n  dup5\n    /* \"#utility.yul\":2145:2156   */\n  sload\n    /* \"#utility.yul\":2117:2208   */\n  tag_52\n  jump\t// in\ntag_97:\n    /* \"#utility.yul\":2111:2115   */\n  dup3\n    /* \"#utility.yul\":2104:2209   */\n  sstore\n    /* \"#utility.yul\":2022:2215   */\n  pop\n    /* \"#utility.yul\":1946:2215   */\n  pop\n  pop\n  pop\n  jump\t// out\n    /* \"#utility.yul\":2221:2294   */\ntag_58:\n    /* \"#utility.yul\":2266:2269   */\n  0x00\n    /* \"#utility.yul\":2221:2294   */\n  swap1\n  jump\t// out\n    /* \"#utility.yul\":2300:2489   */\ntag_59:\n    /* \"#utility.yul\":2377:2409   */\n  tag_101\n  tag_58\n  jump\t// in\ntag_101:\n    /* \"#utility.yul\":2418:2483   */\n  tag_102\n    /* \"#utility.yul\":2476:2482   */\n  dup2\n    /* \"#utility.yul\":2468:2474   */\n  dup5\n    /* \"#utility.yul\":2462:2466   */\n  dup5\n    /* \"#utility.yul\":2418:2483   */\n  tag_57\n  jump\t// in\ntag_102:\n    /* \"#utility.yul\":2353:2489   */\n  pop\n    /* \"#utility.yul\":2300:2489   */\n  pop\n  pop\n  jump\t// out\n    /* \"#utility.yul\":2495:2681   */\ntag_60:\n    /* \"#utility.yul\":2555:2675   */\ntag_104:\n    /* \"#utility.yul\":2572:2575   */\n  dup2\n    /* \"#utility.yul\":2565:2570   */\n  dup2\n    /* \"#utility.yul\":2562:2576   */\n  lt\n    /* \"#utility.yul\":2555:2675   */\n  iszero\n  tag_106\n  jumpi\n    /* \"#utility.yul\":2626:2665   */\n  tag_107\n    /* \"#utility.yul\":2663:2664   */\n  0x00\n    /* \"#utility.yul\":2656:2661   */\n  dup3\n    /* \"#utility.yul\":2626:2665   */\n  tag_59\n  jump\t// in\ntag_107:\n    /* \"#utility.yul\":2599:2600   */\n  0x01\n    /* \"#utility.yul\":2592:2597   */\n  dup2\n    /* \"#utility.yul\":2588:2601   */\n  add\n    /* \"#utility.yul\":2579:2601   */\n  swap1\n  pop\n    /* \"#utility.yul\":2555:2675   */\n  jump(tag_104)\ntag_106:\n    /* \"#utility.yul\":2495:2681   */\n  pop\n  pop\n  jump\t// out\n    /* \"#utility.yul\":2687:3230   */\ntag_61:\n    /* \"#utility.yul\":2788:2790   */\n  0x1f\n    /* \"#utility.yul\":2783:2786   */\n  dup3\n    /* \"#utility.yul\":2780:2791   */\n  gt\n    /* \"#utility.yul\":2777:3223   */\n  iszero\n  tag_109\n  jumpi\n    /* \"#utility.yul\":2822:2860   */\n  tag_110\n    /* \"#utility.yul\":2854:2859   */\n  dup2\n    /* \"#utility.yul\":2822:2860   */\n  tag_49\n  jump\t// in\ntag_110:\n    /* \"#utility.yul\":2906:2935   */\n  tag_111\n    /* \"#utility.yul\":2924:2934   */\n  dup5\n    /* \"#utility.yul\":2906:2935   */\n  tag_50\n  jump\t// in\ntag_111:\n    /* \"#utility.yul\":2896:2904   */\n  dup2\n    /* \"#utility.yul\":2892:2936   */\n  add\n    /* \"#utility.yul\":3089:3091   */\n  0x20\n    /* \"#utility.yul\":3077:3087   */\n  dup6\n    /* \"#utility.yul\":3074:3092   */\n  lt\n    /* \"#utility.yul\":3071:3120   */\n  iszero\n  tag_112\n  jumpi\n    /* \"#utility.yul\":3110:3118   */\n  dup2\n    /* \"#utility.yul\":3095:3118   */\n  swap1\n  pop\n    /* \"#utility.yul\":3071:3120   */\ntag_112:\n    /* \"#utility.yul\":3133:3213   */\n  tag_113\n    /* \"#utility.yul\":3189:3211   */\n  tag_114\n    /* \"#utility.yul\":3207:3210   */\n  dup6\n    /* \"#utility.yul\":3189:3211   */\n  tag_50\n  jump\t// in\ntag_114:\n    /* \"#utility.yul\":3179:3187   */\n  dup4\n    /* \"#utility.yul\":3175:3212   */\n  add\n    /* \"#utility.yul\":3162:3173   */\n  dup3\n    /* \"#utility.yul\":3133:3213   */\n  tag_60\n  jump\t// in\ntag_113:\n    /* \"#utility.yul\":2792:3223   */\n  pop\n  pop\n    /* \"#utility.yul\":2777:3223   */\ntag_109:\n    /* \"#utility.yul\":2687:3230   */\n  pop\n  pop\n  pop\n  jump\t// out\n    /* \"#utility.yul\":3236:3353   */\ntag_62:\n    /* \"#utility.yul\":3290:3298   */\n  0x00\n    /* \"#utility.yul\":3340:3345   */\n  dup3\n    /* \"#utility.yul\":3334:3338   */\n  dup3\n    /* \"#utility.yul\":3330:3346   */\n  shr\n    /* \"#utility.yul\":3309:3346   */\n  swap1\n  pop\n    /* \"#utility.yul\":3236:3353   */\n  swap3\n  swap2\n  pop\n  pop\n  jump\t// out\n    /* \"#utility.yul\":3359:3528   */\ntag_63:\n    /* \"#utility.yul\":3403:3409   */\n  0x00\n    /* \"#utility.yul\":3436:3487   */\n  tag_117\n    /* \"#utility.yul\":3484:3485   */\n  0x00\n    /* \"#utility.yul\":3480:3486   */\n  not\n    /* \"#utility.yul\":3472:3477   */\n  dup5\n    /* \"#utility.yul\":3469:3470   */\n  0x08\n    /* \"#utility.yul\":3465:3478   */\n  mul\n    /* \"#utility.yul\":3436:3487   */\n  tag_62\n  jump\t// in\ntag_117:\n    /* \"#utility.yul\":3432:3488   */\n  not\n    /* \"#utility.yul\":3517:3521   */\n  dup1\n    /* \"#utility.yul\":3511:3515   */\n  dup4\n    /* \"#utility.yul\":3507:3522   */\n  and\n    /* \"#utility.yul\":3497:3522   */\n  swap2\n  pop\n    /* \"#utility.yul\":3410:3528   */\n  pop\n    /* \"#utility.yul\":3359:3528   */\n  swap3\n  swap2\n  pop\n  pop\n  jump\t// out\n    /* \"#utility.yul\":3533:3828   */\ntag_64:\n    /* \"#utility.yul\":3609:3613   */\n  0x00\n    /* \"#utility.yul\":3755:3784   */\n  tag_119\n    /* \"#utility.yul\":3780:3783   */\n  dup4\n    /* \"#utility.yul\":3774:3778   */\n  dup4\n    /* \"#utility.yul\":3755:3784   */\n  tag_63\n  jump\t// in\ntag_119:\n    /* \"#utility.yul\":3747:3784   */\n  swap2\n  pop\n    /* \"#utility.yul\":3817:3820   */\n  dup3\n    /* \"#utility.yul\":3814:3815   */\n  0x02\n    /* \"#utility.yul\":3810:3821   */\n  mul\n    /* \"#utility.yul\":3804:3808   */\n  dup3\n    /* \"#utility.yul\":3801:3822   */\n  or\n    /* \"#utility.yul\":3793:3822   */\n  swap1\n  pop\n    /* \"#utility.yul\":3533:3828   */\n  swap3\n  swap2\n  pop\n  pop\n  jump\t// out\n    /* \"#utility.yul\":3833:5228   */\ntag_2:\n    /* \"#utility.yul\":3950:3987   */\n  tag_121\n    /* \"#utility.yul\":3983:3986   */\n  dup3\n    /* \"#utility.yul\":3950:3987   */\n  tag_46\n  jump\t// in\ntag_121:\n    /* \"#utility.yul\":4052:4070   */\n  0xffffffffffffffff\n    /* \"#utility.yul\":4044:4050   */\n  dup2\n    /* \"#utility.yul\":4041:4071   */\n  gt\n    /* \"#utility.yul\":4038:4094   */\n  iszero\n  tag_122\n  jumpi\n    /* \"#utility.yul\":4074:4092   */\n  tag_123\n  tag_47\n  jump\t// in\ntag_123:\n    /* \"#utility.yul\":4038:4094   */\ntag_122:\n    /* \"#utility.yul\":4118:4156   */\n  tag_124\n    /* \"#utility.yul\":4150:4154   */\n  dup3\n    /* \"#utility.yul\":4144:4155   */\n  sload\n    /* \"#utility.yul\":4118:4156   */\n  tag_13\n  jump\t// in\ntag_124:\n    /* \"#utility.yul\":4203:4270   */\n  tag_125\n    /* \"#utility.yul\":4263:4269   */\n  dup3\n    /* \"#utility.yul\":4255:4261   */\n  dup3\n    /* \"#utility.yul\":4249:4253   */\n  dup6\n    /* \"#utility.yul\":4203:4270   */\n  tag_61\n  jump\t// in\ntag_125:\n    /* \"#utility.yul\":4297:4298   */\n  0x00\n    /* \"#utility.yul\":4321:4325   */\n  0x20\n    /* \"#utility.yul\":4308:4325   */\n  swap1\n  pop\n    /* \"#utility.yul\":4353:4355   */\n  0x1f\n    /* \"#utility.yul\":4345:4351   */\n  dup4\n    /* \"#utility.yul\":4342:4356   */\n  gt\n    /* \"#utility.yul\":4370:4371   */\n  0x01\n    /* \"#utility.yul\":4365:4983   */\n  dup2\n  eq\n  tag_127\n  jumpi\n    /* \"#utility.yul\":5027:5028   */\n  0x00\n    /* \"#utility.yul\":5044:5050   */\n  dup5\n    /* \"#utility.yul\":5041:5118   */\n  iszero\n  tag_128\n  jumpi\n    /* \"#utility.yul\":5093:5102   */\n  dup3\n    /* \"#utility.yul\":5088:5091   */\n  dup8\n    /* \"#utility.yul\":5084:5103   */\n  add\n    /* \"#utility.yul\":5078:5104   */\n  mload\n    /* \"#utility.yul\":5069:5104   */\n  swap1\n  pop\n    /* \"#utility.yul\":5041:5118   */\ntag_128:\n    /* \"#utility.yul\":5144:5211   */\n  tag_129\n    /* \"#utility.yul\":5204:5210   */\n  dup6\n    /* \"#utility.yul\":5197:5202   */\n  dup3\n    /* \"#utility.yul\":5144:5211   */\n  tag_64\n  jump\t// in\ntag_129:\n    /* \"#utility.yul\":5138:5142   */\n  dup7\n    /* \"#utility.yul\":5131:5212   */\n  sstore\n    /* \"#utility.yul\":5000:5222   */\n  pop\n    /* \"#utility.yul\":4335:5222   */\n  jump(tag_126)\n    /* \"#utility.yul\":4365:4983   */\ntag_127:\n    /* \"#utility.yul\":4417:4421   */\n  0x1f\n    /* \"#utility.yul\":4413:4422   */\n  not\n    /* \"#utility.yul\":4405:4411   */\n  dup5\n    /* \"#utility.yul\":4401:4423   */\n  and\n    /* \"#utility.yul\":4451:4488   */\n  tag_130\n    /* \"#utility.yul\":4483:4487   */\n  dup7\n    /* \"#utility.yul\":4451:4488   */\n  tag_49\n  jump\t// in\ntag_130:\n    /* \"#utility.yul\":4510:4511   */\n  0x00\n    /* \"#utility.yul\":4524:4732   */\ntag_131:\n    /* \"#utility.yul\":4538:4545   */\n  dup3\n    /* \"#utility.yul\":4535:4536   */\n  dup2\n    /* \"#utility.yul\":4532:4546   */\n  lt\n    /* \"#utility.yul\":4524:4732   */\n  iszero\n  tag_133\n  jumpi\n    /* \"#utility.yul\":4617:4626   */\n  dup5\n    /* \"#utility.yul\":4612:4615   */\n  dup10\n    /* \"#utility.yul\":4608:4627   */\n  add\n    /* \"#utility.yul\":4602:4628   */\n  mload\n    /* \"#utility.yul\":4594:4600   */\n  dup3\n    /* \"#utility.yul\":4587:4629   */\n  sstore\n    /* \"#utility.yul\":4668:4669   */\n  0x01\n    /* \"#utility.yul\":4660:4666   */\n  dup3\n    /* \"#utility.yul\":4656:4670   */\n  add\n    /* \"#utility.yul\":4646:4670   */\n  swap2\n  pop\n    /* \"#utility.yul\":4715:4717   */\n  0x20\n    /* \"#utility.yul\":4704:4713   */\n  dup6\n    /* \"#utility.yul\":4700:4718   */\n  add\n    /* \"#utility.yul\":4687:4718   */\n  swap5\n  pop\n    /* \"#utility.yul\":4561:4565   */\n  0x20\n    /* \"#utility.yul\":4558:4559   */\n  dup2\n    /* \"#utility.yul\":4554:4566   */\n  add\n    /* \"#utility.yul\":4549:4566   */\n  swap1\n  pop\n    /* \"#utility.yul\":4524:4732   */\n  jump(tag_131)\ntag_133:\n    /* \"#utility.yul\":4760:4766   */\n  dup7\n    /* \"#utility.yul\":4751:4758   */\n  dup4\n    /* \"#utility.yul\":4748:4767   */\n  lt\n    /* \"#utility.yul\":4745:4924   */\n  iszero\n  tag_134\n  jumpi\n    /* \"#utility.yul\":4818:4827   */\n  dup5\n    /* \"#utility.yul\":4813:4816   */\n  dup10\n    /* \"#utility.yul\":4809:4828   */\n  add\n    /* \"#utility.yul\":4803:4829   */\n  mload\n    /* \"#utility.yul\":4861:4909   */\n  tag_135\n    /* \"#utility.yul\":4903:4907   */\n  0x1f\n    /* \"#utility.yul\":4895:4901   */\n  dup10\n    /* \"#utility.yul\":4891:4908   */\n  and\n    /* \"#utility.yul\":4880:4889   */\n  dup3\n    /* \"#utility.yul\":4861:4909   */\n  tag_63\n  jump\t// in\ntag_135:\n    /* \"#utility.yul\":4853:4859   */\n  dup4\n    /* \"#utility.yul\":4846:4910   */\n  sstore\n    /* \"#utility.yul\":4768:4924   */\n  pop\n    /* \"#utility.yul\":4745:4924   */\ntag_134:\n    /* \"#utility.yul\":4970:4971   */\n  0x01\n    /* \"#utility.yul\":4966:4967   */\n  0x02\n    /* \"#utility.yul\":4958:4964   */\n  dup9\n    /* \"#utility.yul\":4954:4968   */\n  mul\n    /* \"#utility.yul\":4950:4972   */\n  add\n    /* \"#utility.yul\":4944:4948   */\n  dup9\n    /* \"#utility.yul\":4937:4973   */\n  sstore\n    /* \"#utility.yul\":4372:4983   */\n  pop\n  pop\n  pop\n    /* \"#utility.yul\":4335:5222   */\ntag_126:\n  pop\n    /* \"#utility.yul\":3925:5228   */\n  pop\n  pop\n  pop\n    /* \"#utility.yul\":3833:5228   */\n  pop\n  pop\n  jump\t// out\n    /* \"#utility.yul\":5234:5414   */\ntag_65:\n    /* \"#utility.yul\":5282:5359   */\n  0x4e487b7100000000000000000000000000000000000000000000000000000000\n    /* \"#utility.yul\":5279:5280   */\n  0x00\n    /* \"#utility.yul\":5272:5360   */\n  mstore\n    /* \"#utility.yul\":5379:5383   */\n  0x11\n    /* \"#utility.yul\":5376:5377   */\n  0x04\n    /* \"#utility.yul\":5369:5384   */\n  mstore\n    /* \"#utility.yul\":5403:5407   */\n  0x24\n    /* \"#utility.yul\":5400:5401   */\n  0x00\n    /* \"#utility.yul\":5393:5408   */\n  revert\n    /* \"#utility.yul\":5420:5522   */\ntag_66:\n    /* \"#utility.yul\":5462:5470   */\n  0x00\n    /* \"#utility.yul\":5509:5514   */\n  dup2\n    /* \"#utility.yul\":5506:5507   */\n  0x01\n    /* \"#utility.yul\":5502:5515   */\n  shr\n    /* \"#utility.yul\":5481:5515   */\n  swap1\n  pop\n    /* \"#utility.yul\":5420:5522   */\n  swap2\n  swap1\n  pop\n  jump\t// out\n    /* \"#utility.yul\":5528:6376   */\ntag_67:\n    /* \"#utility.yul\":5589:5594   */\n  0x00\n    /* \"#utility.yul\":5596:5600   */\n  dup1\n    /* \"#utility.yul\":5620:5626   */\n  dup3\n    /* \"#utility.yul\":5611:5626   */\n  swap2\n  pop\n    /* \"#utility.yul\":5644:5649   */\n  dup4\n    /* \"#utility.yul\":5635:5649   */\n  swap1\n  pop\n    /* \"#utility.yul\":5658:6370   */\ntag_139:\n    /* \"#utility.yul\":5679:5680   */\n  0x01\n    /* \"#utility.yul\":5669:5677   */\n  dup6\n    /* \"#utility.yul\":5666:5681   */\n  gt\n    /* \"#utility.yul\":5658:6370   */\n  iszero\n  tag_141\n  jumpi\n    /* \"#utility.yul\":5774:5778   */\n  dup1\n    /* \"#utility.yul\":5769:5772   */\n  dup7\n    /* \"#utility.yul\":5765:5779   */\n  div\n    /* \"#utility.yul\":5759:5763   */\n  dup2\n    /* \"#utility.yul\":5756:5780   */\n  gt\n    /* \"#utility.yul\":5753:5803   */\n  iszero\n  tag_142\n  jumpi\n    /* \"#utility.yul\":5783:5801   */\n  tag_143\n  tag_65\n  jump\t// in\ntag_143:\n    /* \"#utility.yul\":5753:5803   */\ntag_142:\n    /* \"#utility.yul\":5833:5834   */\n  0x01\n    /* \"#utility.yul\":5823:5831   */\n  dup6\n    /* \"#utility.yul\":5819:5835   */\n  and\n    /* \"#utility.yul\":5816:6267   */\n  iszero\n  tag_144\n  jumpi\n    /* \"#utility.yul\":6248:6252   */\n  dup1\n    /* \"#utility.yul\":6241:6246   */\n  dup3\n    /* \"#utility.yul\":6237:6253   */\n  mul\n    /* \"#utility.yul\":6228:6253   */\n  swap2\n  pop\n    /* \"#utility.yul\":5816:6267   */\ntag_144:\n    /* \"#utility.yul\":6298:6302   */\n  dup1\n    /* \"#utility.yul\":6292:6296   */\n  dup2\n    /* \"#utility.yul\":6288:6303   */\n  mul\n    /* \"#utility.yul\":6280:6303   */\n  swap1\n  pop\n    /* \"#utility.yul\":6328:6360   */\n  tag_145\n    /* \"#utility.yul\":6351:6359   */\n  dup6\n    /* \"#utility.yul\":6328:6360   */\n  tag_66\n  jump\t// in\ntag_145:\n    /* \"#utility.yul\":6316:6360   */\n  swap5\n  pop\n    /* \"#utility.yul\":5658:6370   */\n  jump(tag_139)\ntag_141:\n    /* \"#utility.yul\":5528:6376   */\n  swap5\n  pop\n  swap5\n  swap3\n  pop\n  pop\n  pop\n  jump\t// out\n    /* \"#utility.yul\":6382:7455   */\ntag_68:\n    /* \"#utility.yul\":6436:6441   */\n  0x00\n    /* \"#utility.yul\":6627:6635   */\n  dup3\n    /* \"#utility.yul\":6617:6657   */\n  tag_147\n  jumpi\n    /* \"#utility.yul\":6648:6649   */\n  0x01\n    /* \"#utility.yul\":6639:6649   */\n  swap1\n  pop\n    /* \"#utility.yul\":6650:6655   */\n  jump(tag_146)\n    /* \"#utility.yul\":6617:6657   */\ntag_147:\n    /* \"#utility.yul\":6676:6680   */\n  dup2\n    /* \"#utility.yul\":6666:6702   */\n  tag_148\n  jumpi\n    /* \"#utility.yul\":6693:6694   */\n  0x00\n    /* \"#utility.yul\":6684:6694   */\n  swap1\n  pop\n    /* \"#utility.yul\":6695:6700   */\n  jump(tag_146)\n    /* \"#utility.yul\":6666:6702   */\ntag_148:\n    /* \"#utility.yul\":6762:6766   */\n  dup2\n    /* \"#utility.yul\":6810:6811   */\n  0x01\n    /* \"#utility.yul\":6805:6832   */\n  dup2\n  eq\n  tag_150\n  jumpi\n    /* \"#utility.yul\":6846:6847   */\n  0x02\n    /* \"#utility.yul\":6841:7032   */\n  dup2\n  eq\n  tag_151\n  jumpi\n    /* \"#utility.yul\":6755:7032   */\n  jump(tag_149)\n    /* \"#utility.yul\":6805:6832   */\ntag_150:\n    /* \"#utility.yul\":6823:6824   */\n  0x01\n    /* \"#utility.yul\":6814:6824   */\n  swap2\n  pop\n    /* \"#utility.yul\":6825:6830   */\n  pop\n  jump(tag_146)\n    /* \"#utility.yul\":6841:7032   */\ntag_151:\n    /* \"#utility.yul\":6886:6889   */\n  0xff\n    /* \"#utility.yul\":6876:6884   */\n  dup5\n    /* \"#utility.yul\":6873:6890   */\n  gt\n    /* \"#utility.yul\":6870:6913   */\n  iszero\n  tag_152\n  jumpi\n    /* \"#utility.yul\":6893:6911   */\n  tag_153\n  tag_65\n  jump\t// in\ntag_153:\n    /* \"#utility.yul\":6870:6913   */\ntag_152:\n    /* \"#utility.yul\":6942:6950   */\n  dup4\n    /* \"#utility.yul\":6939:6940   */\n  0x02\n    /* \"#utility.yul\":6935:6951   */\n  exp\n    /* \"#utility.yul\":6926:6951   */\n  swap2\n  pop\n    /* \"#utility.yul\":6977:6980   */\n  dup5\n    /* \"#utility.yul\":6970:6975   */\n  dup3\n    /* \"#utility.yul\":6967:6981   */\n  gt\n    /* \"#utility.yul\":6964:7004   */\n  iszero\n  tag_154\n  jumpi\n    /* \"#utility.yul\":6984:7002   */\n  tag_155\n  tag_65\n  jump\t// in\ntag_155:\n    /* \"#utility.yul\":6964:7004   */\ntag_154:\n    /* \"#utility.yul\":7017:7022   */\n  pop\n  jump(tag_146)\n    /* \"#utility.yul\":6755:7032   */\ntag_149:\n  pop\n    /* \"#utility.yul\":7141:7143   */\n  0x20\n    /* \"#utility.yul\":7131:7139   */\n  dup4\n    /* \"#utility.yul\":7128:7144   */\n  lt\n    /* \"#utility.yul\":7122:7125   */\n  0x0133\n    /* \"#utility.yul\":7116:7120   */\n  dup4\n    /* \"#utility.yul\":7113:7126   */\n  lt\n    /* \"#utility.yul\":7109:7145   */\n  and\n    /* \"#utility.yul\":7091:7093   */\n  0x4e\n    /* \"#utility.yul\":7081:7089   */\n  dup5\n    /* \"#utility.yul\":7078:7094   */\n  lt\n    /* \"#utility.yul\":7073:7075   */\n  0x0b\n    /* \"#utility.yul\":7067:7071   */\n  dup5\n    /* \"#utility.yul\":7064:7076   */\n  lt\n    /* \"#utility.yul\":7060:7095   */\n  and\n    /* \"#utility.yul\":7044:7155   */\n  or\n    /* \"#utility.yul\":7041:7287   */\n  iszero\n  tag_156\n  jumpi\n    /* \"#utility.yul\":7197:7205   */\n  dup3\n    /* \"#utility.yul\":7191:7195   */\n  dup3\n    /* \"#utility.yul\":7187:7206   */\n  exp\n    /* \"#utility.yul\":7178:7206   */\n  swap1\n  pop\n    /* \"#utility.yul\":7232:7235   */\n  dup4\n    /* \"#utility.yul\":7225:7230   */\n  dup2\n    /* \"#utility.yul\":7222:7236   */\n  gt\n    /* \"#utility.yul\":7219:7259   */\n  iszero\n  tag_157\n  jumpi\n    /* \"#utility.yul\":7239:7257   */\n  tag_158\n  tag_65\n  jump\t// in\ntag_158:\n    /* \"#utility.yul\":7219:7259   */\ntag_157:\n    /* \"#utility.yul\":7272:7277   */\n  jump(tag_146)\n    /* \"#utility.yul\":7041:7287   */\ntag_156:\n    /* \"#utility.yul\":7312:7354   */\n  tag_159\n    /* \"#utility.yul\":7350:7353   */\n  dup5\n    /* \"#utility.yul\":7340:7348   */\n  dup5\n    /* \"#utility.yul\":7334:7338   */\n  dup5\n    /* \"#utility.yul\":7331:7332   */\n  0x01\n    /* \"#utility.yul\":7312:7354   */\n  tag_67\n  jump\t// in\ntag_159:\n    /* \"#utility.yul\":7297:7354   */\n  swap3\n  pop\n  swap1\n  pop\n    /* \"#utility.yul\":7386:7390   */\n  dup2\n    /* \"#utility.yul\":7381:7384   */\n  dup5\n    /* \"#utility.yul\":7377:7391   */\n  div\n    /* \"#utility.yul\":7370:7375   */\n  dup2\n    /* \"#utility.yul\":7367:7392   */\n  gt\n    /* \"#utility.yul\":7364:7415   */\n  iszero\n  tag_160\n  jumpi\n    /* \"#utility.yul\":7395:7413   */\n  tag_161\n  tag_65\n  jump\t// in\ntag_161:\n    /* \"#utility.yul\":7364:7415   */\ntag_160:\n    /* \"#utility.yul\":7444:7448   */\n  dup2\n    /* \"#utility.yul\":7437:7442   */\n  dup2\n    /* \"#utility.yul\":7433:7449   */\n  mul\n    /* \"#utility.yul\":7424:7449   */\n  swap1\n  pop\n    /* \"#utility.yul\":6382:7455   */\ntag_146:\n  swap4\n  swap3\n  pop\n  pop\n  pop\n  jump\t// out\n    /* \"#utility.yul\":7461:7547   */\ntag_69:\n    /* \"#utility.yul\":7496:7503   */\n  0x00\n    /* \"#utility.yul\":7536:7540   */\n  0xff\n    /* \"#utility.yul\":7529:7534   */\n  dup3\n    /* \"#utility.yul\":7525:7541   */\n  and\n    /* \"#utility.yul\":7514:7541   */\n  swap1\n  pop\n    /* \"#utility.yul\":7461:7547   */\n  swap2\n  swap1\n  pop\n  jump\t// out\n    /* \"#utility.yul\":7553:7834   */\ntag_7:\n    /* \"#utility.yul\":7611:7616   */\n  0x00\n    /* \"#utility.yul\":7635:7658   */\n  tag_164\n    /* \"#utility.yul\":7653:7657   */\n  dup3\n    /* \"#utility.yul\":7635:7658   */\n  tag_53\n  jump\t// in\ntag_164:\n    /* \"#utility.yul\":7627:7658   */\n  swap2\n  pop\n    /* \"#utility.yul\":7679:7704   */\n  tag_165\n    /* \"#utility.yul\":7695:7703   */\n  dup4\n    /* \"#utility.yul\":7679:7704   */\n  tag_69\n  jump\t// in\ntag_165:\n    /* \"#utility.yul\":7667:7704   */\n  swap3\n  pop\n    /* \"#utility.yul\":7723:7827   */\n  tag_166\n    /* \"#utility.yul\":7760:7826   */\n  0xffffffffffffffffffffffffffffffffffffffffffffffffffffffffffffffff\n    /* \"#utility.yul\":7750:7758   */\n  dup5\n    /* \"#utility.yul\":7744:7748   */\n  dup5\n    /* \"#utility.yul\":7723:7827   */\n  tag_68\n  jump\t// in\ntag_166:\n    /* \"#utility.yul\":7714:7827   */\n  swap1\n  pop\n    /* \"#utility.yul\":7553:7834   */\n  swap3\n  swap2\n  pop\n  pop\n  jump\t// out\n    /* \"#utility.yul\":7840:8250   */\ntag_9:\n    /* \"#utility.yul\":7880:7887   */\n  0x00\n    /* \"#utility.yul\":7903:7923   */\n  tag_168\n    /* \"#utility.yul\":7921:7922   */\n  dup3\n    /* \"#utility.yul\":7903:7923   */\n  tag_53\n  jump\t// in\ntag_168:\n    /* \"#utility.yul\":7898:7923   */\n  swap2\n  pop\n    /* \"#utility.yul\":7937:7957   */\n  tag_169\n    /* \"#utility.yul\":7955:7956   */\n  dup4\n    /* \"#utility.yul\":7937:7957   */\n  tag_53\n  jump\t// in\ntag_169:\n    /* \"#utility.yul\":7932:7957   */\n  swap3\n  pop\n    /* \"#utility.yul\":7992:7993   */\n  dup3\n    /* \"#utility.yul\":7989:7990   */\n  dup3\n    /* \"#utility.yul\":7985:7994   */\n  mul\n    /* \"#utility.yul\":8014:8044   */\n  tag_170\n    /* \"#utility.yul\":8032:8043   */\n  dup2\n    /* \"#utility.yul\":8014:8044   */\n  tag_53\n  jump\t// in\ntag_170:\n    /* \"#utility.yul\":8003:8044   */\n  swap2\n  pop\n    /* \"#utility.yul\":8193:8194   */\n  dup3\n    /* \"#utility.yul\":8184:8191   */\n  dup3\n    /* \"#utility.yul\":8180:8195   */\n  div\n    /* \"#utility.yul\":8177:8178   */\n  dup5\n    /* \"#utility.yul\":8174:8196   */\n  eq\n    /* \"#utility.yul\":8154:8155   */\n  dup4\n    /* \"#utility.yul\":8147:8156   */\n  iszero\n    /* \"#utility.yul\":8127:8210   */\n  or\n    /* \"#utility.yul\":8104:8243   */\n  tag_171\n  jumpi\n    /* \"#utility.yul\":8223:8241   */\n  tag_172\n  tag_65\n  jump\t// in\ntag_172:\n    /* \"#utility.yul\":8104:8243   */\ntag_171:\n    /* \"#utility.yul\":7888:8250   */\n  pop\n    /* \"#utility.yul\":7840:8250   */\n  swap3\n  swap2\n  pop\n  pop\n  jump\t// out\n    /* \"#utility.yul\":8256:8425   */\ntag_70:\n    /* \"#utility.yul\":8340:8351   */\n  0x00\n    /* \"#utility.yul\":8374:8380   */\n  dup3\n    /* \"#utility.yul\":8369:8372   */\n  dup3\n    /* \"#utility.yul\":8362:8381   */\n  mstore\n    /* \"#utility.yul\":8414:8418   */\n  0x20\n    /* \"#utility.yul\":8409:8412   */\n  dup3\n    /* \"#utility.yul\":8405:8419   */\n  add\n    /* \"#utility.yul\":8390:8419   */\n  swap1\n  pop\n    /* \"#utility.yul\":8256:8425   */\n  swap3\n  swap2\n  pop\n  pop\n  jump\t// out\n    /* \"#utility.yul\":8431:8612   */\ntag_71:\n    /* \"#utility.yul\":8571:8604   */\n  0x45524332303a206d696e7420746f20746865207a65726f206164647265737300\n    /* \"#utility.yul\":8567:8568   */\n  0x00\n    /* \"#utility.yul\":8559:8565   */\n  dup3\n    /* \"#utility.yul\":8555:8569   */\n  add\n    /* \"#utility.yul\":8548:8605   */\n  mstore\n    /* \"#utility.yul\":8431:8612   */\n  pop\n  jump\t// out\n    /* \"#utility.yul\":8618:8984   */\ntag_72:\n    /* \"#utility.yul\":8760:8763   */\n  0x00\n    /* \"#utility.yul\":8781:8848   */\n  tag_176\n    /* \"#utility.yul\":8845:8847   */\n  0x1f\n    /* \"#utility.yul\":8840:8843   */\n  dup4\n    /* \"#utility.yul\":8781:8848   */\n  tag_70\n  jump\t// in\ntag_176:\n    /* \"#utility.yul\":8774:8848   */\n  swap2\n  pop\n    /* \"#utility.yul\":8857:8950   */\n  tag_177\n    /* \"#utility.yul\":8946:8949   */\n  dup3\n    /* \"#utility.yul\":8857:8950   */\n  tag_71\n  jump\t// in\ntag_177:\n    /* \"#utility.yul\":8975:8977   */\n  0x20\n    /* \"#utility.yul\":8970:8973   */\n  dup3\n    /* \"#utility.yul\":8966:8978   */\n  add\n    /* \"#utility.yul\":8959:8978   */\n  swap1\n  pop\n    /* \"#utility.yul\":8618:8984   */\n  swap2\n  swap1\n  pop\n  jump\t// out\n    /* \"#utility.yul\":8990:9409   */\ntag_35:\n    /* \"#utility.yul\":9156:9160   */\n  0x00\n    /* \"#utility.yul\":9194:9196   */\n  0x20\n    /* \"#utility.yul\":9183:9192   */\n  dup3\n    /* \"#utility.yul\":9179:9197   */\n  add\n    /* \"#utility.yul\":9171:9197   */\n  swap1\n  pop\n    /* \"#utility.yul\":9243:9252   */\n  dup2\n    /* \"#utility.yul\":9237:9241   */\n  dup2\n    /* \"#utility.yul\":9233:9253   */\n  sub\n    /* \"#utility.yul\":9229:9230   */\n  0x00\n    /* \"#utility.yul\":9218:9227   */\n  dup4\n    /* \"#utility.yul\":9214:9231   */\n  add\n    /* \"#utility.yul\":9207:9254   */\n  mstore\n    /* \"#utility.yul\":9271:9402   */\n  tag_179\n    /* \"#utility.yul\":9397:9401   */\n  dup2\n    /* \"#utility.yul\":9271:9402   */\n  tag_72\n  jump\t// in\ntag_179:\n    /* \"#utility.yul\":9263:9402   */\n  swap1\n  pop\n    /* \"#utility.yul\":8990:9409   */\n  swap2\n  swap1\n  pop\n  jump\t// out\n    /* \"#utility.yul\":9415:9606   */\ntag_39:\n    /* \"#utility.yul\":9455:9458   */\n  0x00\n    /* \"#utility.yul\":9474:9494   */\n  tag_181\n    /* \"#utility.yul\":9492:9493   */\n  dup3\n    /* \"#utility.yul\":9474:9494   */\n  tag_53\n  jump\t// in\ntag_181:\n    /* \"#utility.yul\":9469:9494   */\n  swap2\n  pop\n    /* \"#utility.yul\":9508:9528   */\n  tag_182\n    /* \"#utility.yul\":9526:9527   */\n  dup4\n    /* \"#utility.yul\":9508:9528   */\n  tag_53\n  jump\t// in\ntag_182:\n    /* \"#utility.yul\":9503:9528   */\n  swap3\n  pop\n    /* \"#utility.yul\":9551:9552   */\n  dup3\n    /* \"#utility.yul\":9548:9549   */\n  dup3\n    /* \"#utility.yul\":9544:9553   */\n  add\n    /* \"#utility.yul\":9537:9553   */\n  swap1\n  pop\n    /* \"#utility.yul\":9572:9575   */\n  dup1\n    /* \"#utility.yul\":9569:9570   */\n  dup3\n    /* \"#utility.yul\":9566:9576   */\n  gt\n    /* \"#utility.yul\":9563:9599   */\n  iszero\n  tag_183\n  jumpi\n    /* \"#utility.yul\":9579:9597   */\n  tag_184\n  tag_65\n  jump\t// in\ntag_184:\n    /* \"#utility.yul\":9563:9599   */\ntag_183:\n    /* \"#utility.yul\":9415:9606   */\n  swap3\n  swap2\n  pop\n  pop\n  jump\t// out\n    /* \"#utility.yul\":9612:9730   */\ntag_73:\n    /* \"#utility.yul\":9699:9723   */\n  tag_186\n    /* \"#utility.yul\":9717:9722   */\n  dup2\n    /* \"#utility.yul\":9699:9723   */\n  tag_53\n  jump\t// in\ntag_186:\n    /* \"#utility.yul\":9694:9697   */\n  dup3\n    /* \"#utility.yul\":9687:9724   */\n  mstore\n    /* \"#utility.yul\":9612:9730   */\n  pop\n  pop\n  jump\t// out\n    /* \"#utility.yul\":9736:9958   */\ntag_41:\n    /* \"#utility.yul\":9829:9833   */\n  0x00\n    /* \"#utility.yul\":9867:9869   */\n  0x20\n    /* \"#utility.yul\":9856:9865   */\n  dup3\n    /* \"#utility.yul\":9852:9870   */\n  add\n    /* \"#utility.yul\":9844:9870   */\n  swap1\n  pop\n    /* \"#utility.yul\":9880:9951   */\n  tag_188\n    /* \"#utility.yul\":9948:9949   */\n  0x00\n    /* \"#utility.yul\":9937:9946   */\n  dup4\n    /* \"#utility.yul\":9933:9950   */\n  add\n    /* \"#utility.yul\":9924:9930   */\n  dup5\n    /* \"#utility.yul\":9880:9951   */\n  tag_73\n  jump\t// in\ntag_188:\n    /* \"#utility.yul\":9736:9958   */\n  swap3\n  swap2\n  pop\n  pop\n  jump\t// out\n    /* \"contracts/JwtToken.sol\":99:430  contract JwtToken is ERC20 {... */\ntag_30:\n  dataSize(sub_0)\n  dup1\n  dataOffset(sub_0)\n  0x00\n  codecopy\n  0x00\n  return\nstop\n\nsub_0: assembly {\n        /* \"contracts/JwtToken.sol\":99:430  contract JwtToken is ERC20 {... */\n      mstore(0x40, 0x80)\n      jumpi(tag_1, lt(calldatasize, 0x04))\n      shr(0xe0, calldataload(0x00))\n      dup1\n      0x70a08231\n      gt\n      tag_18\n      jumpi\n      dup1\n      0xa9059cbb\n      gt\n      tag_19\n      jumpi\n      dup1\n      0xa9059cbb\n      eq\n      tag_14\n      jumpi\n      dup1\n      0xb09f1266\n      eq\n      tag_15\n      jumpi\n      dup1\n      0xd28d8852\n      eq\n      tag_16\n      jumpi\n      dup1\n      0xdd62ed3e\n      eq\n      tag_17\n      jumpi\n      jump(tag_1)\n    tag_19:\n      dup1\n      0x70a08231\n      eq\n      tag_10\n      jumpi\n      dup1\n      0x89ded484\n      eq\n      tag_11\n      jumpi\n      dup1\n      0x95d89b41\n      eq\n      tag_12\n      jumpi\n      dup1\n      0xa457c2d7\n      eq\n      tag_13\n      jumpi\n      jump(tag_1)\n    tag_18:\n      dup1\n      0x313ce567\n      gt\n      tag_20\n      jumpi\n      dup1\n      0x313ce567\n      eq\n      tag_6\n      jumpi\n      dup1\n      0x39509351\n      eq\n      tag_7\n      jumpi\n      dup1\n      0x3eaaf86b\n      eq\n      tag_8\n      jumpi\n      dup1\n      0x68f8fc10\n      eq\n      tag_9\n      jumpi\n      jump(tag_1)\n    tag_20:\n      dup1\n      0x06fdde03\n      eq\n      tag_2\n      jumpi\n      dup1\n      0x095ea7b3\n      eq\n      tag_3\n      jumpi\n      dup1\n      0x18160ddd\n      eq\n      tag_4\n      jumpi\n      dup1\n      0x23b872dd\n      eq\n      tag_5\n      jumpi\n    tag_1:\n      0x00\n      dup1\n      revert\n        /* \"node_modules/@openzeppelin/contracts/token/ERC20/ERC20.sol\":2206:2304  function name() public view virtual override returns (string memory) {... */\n    tag_2:\n      callvalue\n      dup1\n      iszero\n      tag_21\n      jumpi\n      0x00\n      dup1\n      revert\n    tag_21:\n      pop\n      tag_22\n      tag_23\n      jump\t// in\n    tag_22:\n      mload(0x40)\n      tag_24\n      swap2\n      swap1\n      tag_25\n      jump\t// in\n    tag_24:\n      mload(0x40)\n      dup1\n      swap2\n      sub\n      swap1\n      return\n        /* \"node_modules/@openzeppelin/contracts/token/ERC20/ERC20.sol\":4720:4917  function approve(address spender, uint256 amount) public virtual override returns (bool) {... */\n    tag_3:\n      callvalue\n      dup1\n      iszero\n      tag_26\n      jumpi\n      0x00\n      dup1\n      revert\n    tag_26:\n      pop\n      tag_27\n      0x04\n      dup1\n      calldatasize\n      sub\n      dup2\n      add\n      swap1\n      tag_28\n      swap2\n      swap1\n      tag_29\n      jump\t// in\n    tag_28:\n      tag_30\n      jump\t// in\n    tag_27:\n      mload(0x40)\n      tag_31\n      swap2\n      swap1\n      tag_32\n      jump\t// in\n    tag_31:\n      mload(0x40)\n      dup1\n      swap2\n      sub\n      swap1\n      return\n        /* \"node_modules/@openzeppelin/contracts/token/ERC20/ERC20.sol\":3536:3642  function totalSupply() public view virtual override returns (uint256) {... */\n    tag_4:\n      callvalue\n      dup1\n      iszero\n      tag_33\n      jumpi\n      0x00\n      dup1\n      revert\n    tag_33:\n      pop\n      tag_34\n      tag_35\n      jump\t// in\n    tag_34:\n      mload(0x40)\n      tag_36\n      swap2\n      swap1\n      tag_37\n      jump\t// in\n    tag_36:\n      mload(0x40)\n      dup1\n      swap2\n      sub\n      swap1\n      return\n        /* \"node_modules/@openzeppelin/contracts/token/ERC20/ERC20.sol\":5479:5735  function transferFrom(address from, address to, uint256 amount) public virtual override returns (bool) {... */\n    tag_5:\n      callvalue\n      dup1\n      iszero\n      tag_38\n      jumpi\n      0x00\n      dup1\n      revert\n    tag_38:\n      pop\n      tag_39\n      0x04\n      dup1\n      calldatasize\n      sub\n      dup2\n      add\n      swap1\n      tag_40\n      swap2\n      swap1\n      tag_41\n      jump\t// in\n    tag_40:\n      tag_42\n      jump\t// in\n    tag_39:\n      mload(0x40)\n      tag_43\n      swap2\n      swap1\n      tag_32\n      jump\t// in\n    tag_43:\n      mload(0x40)\n      dup1\n      swap2\n      sub\n      swap1\n      return\n        /* \"node_modules/@openzeppelin/contracts/token/ERC20/ERC20.sol\":3385:3476  function decimals() public view virtual override returns (uint8) {... */\n    tag_6:\n      callvalue\n      dup1\n      iszero\n      tag_44\n      jumpi\n      0x00\n      dup1\n      revert\n    tag_44:\n      pop\n      tag_45\n      tag_46\n      jump\t// in\n    tag_45:\n      mload(0x40)\n      tag_47\n      swap2\n      swap1\n      tag_48\n      jump\t// in\n    tag_47:\n      mload(0x40)\n      dup1\n      swap2\n      sub\n      swap1\n      return\n        /* \"node_modules/@openzeppelin/contracts/token/ERC20/ERC20.sol\":6130:6364  function increaseAllowance(address spender, uint256 addedValue) public virtual returns (bool) {... */\n    tag_7:\n      callvalue\n      dup1\n      iszero\n      tag_49\n      jumpi\n      0x00\n      dup1\n      revert\n    tag_49:\n      pop\n      tag_50\n      0x04\n      dup1\n      calldatasize\n      sub\n      dup2\n      add\n      swap1\n      tag_51\n      swap2\n      swap1\n      tag_29\n      jump\t// in\n    tag_51:\n      tag_52\n      jump\t// in\n    tag_50:\n      mload(0x40)\n      tag_53\n      swap2\n      swap1\n      tag_32\n      jump\t// in\n    tag_53:\n      mload(0x40)\n      dup1\n      swap2\n      sub\n      swap1\n      return\n        /* \"contracts/JwtToken.sol\":205:260  uint256 public _totalSupply = 5000 * (10 ** decimals()) */\n    tag_8:\n      callvalue\n      dup1\n      iszero\n      tag_54\n      jumpi\n      0x00\n      dup1\n      revert\n    tag_54:\n      pop\n      tag_55\n      tag_56\n      jump\t// in\n    tag_55:\n      mload(0x40)\n      tag_57\n      swap2\n      swap1\n      tag_37\n      jump\t// in\n    tag_57:\n      mload(0x40)\n      dup1\n      swap2\n      sub\n      swap1\n      return\n        /* \"node_modules/@openzeppelin/contracts/token/ERC20/ERC20.sol\":2525:2649  function buyToken(address to, uint256 tokenAmount) public payable {... */\n    tag_9:\n      tag_58\n      0x04\n      dup1\n      calldatasize\n      sub\n      dup2\n      add\n      swap1\n      tag_59\n      swap2\n      swap1\n      tag_29\n      jump\t// in\n    tag_59:\n      tag_60\n      jump\t// in\n    tag_58:\n      stop\n        /* \"node_modules/@openzeppelin/contracts/token/ERC20/ERC20.sol\":3700:3825  function balanceOf(address account) public view virtual override returns (uint256) {... */\n    tag_10:\n      callvalue\n      dup1\n      iszero\n      tag_61\n      jumpi\n      0x00\n      dup1\n      revert\n    tag_61:\n      pop\n      tag_62\n      0x04\n      dup1\n      calldatasize\n      sub\n      dup2\n      add\n      swap1\n      tag_63\n      swap2\n      swap1\n      tag_64\n      jump\t// in\n    tag_63:\n      tag_65\n      jump\t// in\n    tag_62:\n      mload(0x40)\n      tag_66\n      swap2\n      swap1\n      tag_37\n      jump\t// in\n    tag_66:\n      mload(0x40)\n      dup1\n      swap2\n      sub\n      swap1\n      return\n        /* \"node_modules/@openzeppelin/contracts/token/ERC20/ERC20.sol\":2655:2753  function _balanceOf () public view returns (uint) {... */\n    tag_11:\n      callvalue\n      dup1\n      iszero\n      tag_67\n      jumpi\n      0x00\n      dup1\n      revert\n    tag_67:\n      pop\n      tag_68\n      tag_69\n      jump\t// in\n    tag_68:\n      mload(0x40)\n      tag_70\n      swap2\n      swap1\n      tag_37\n      jump\t// in\n    tag_70:\n      mload(0x40)\n      dup1\n      swap2\n      sub\n      swap1\n      return\n        /* \"node_modules/@openzeppelin/contracts/token/ERC20/ERC20.sol\":2417:2519  function symbol() public view virtual override returns (string memory) {... */\n    tag_12:\n      callvalue\n      dup1\n      iszero\n      tag_71\n      jumpi\n      0x00\n      dup1\n      revert\n    tag_71:\n      pop\n      tag_72\n      tag_73\n      jump\t// in\n    tag_72:\n      mload(0x40)\n      tag_74\n      swap2\n      swap1\n      tag_25\n      jump\t// in\n    tag_74:\n      mload(0x40)\n      dup1\n      swap2\n      sub\n      swap1\n      return\n        /* \"node_modules/@openzeppelin/contracts/token/ERC20/ERC20.sol\":6851:7278  function decreaseAllowance(address spender, uint256 subtractedValue) public virtual returns (bool) {... */\n    tag_13:\n      callvalue\n      dup1\n      iszero\n      tag_75\n      jumpi\n      0x00\n      dup1\n      revert\n    tag_75:\n      pop\n      tag_76\n      0x04\n      dup1\n      calldatasize\n      sub\n      dup2\n      add\n      swap1\n      tag_77\n      swap2\n      swap1\n      tag_29\n      jump\t// in\n    tag_77:\n      tag_78\n      jump\t// in\n    tag_76:\n      mload(0x40)\n      tag_79\n      swap2\n      swap1\n      tag_32\n      jump\t// in\n    tag_79:\n      mload(0x40)\n      dup1\n      swap2\n      sub\n      swap1\n      return\n        /* \"node_modules/@openzeppelin/contracts/token/ERC20/ERC20.sol\":4021:4204  function transfer(address to, uint256 amount) public virtual override returns (bool) {... */\n    tag_14:\n      callvalue\n      dup1\n      iszero\n      tag_80\n      jumpi\n      0x00\n      dup1\n      revert\n    tag_80:\n      pop\n      tag_81\n      0x04\n      dup1\n      calldatasize\n      sub\n      dup2\n      add\n      swap1\n      tag_82\n      swap2\n      swap1\n      tag_29\n      jump\t// in\n    tag_82:\n      tag_83\n      jump\t// in\n    tag_81:\n      mload(0x40)\n      tag_84\n      swap2\n      swap1\n      tag_32\n      jump\t// in\n    tag_84:\n      mload(0x40)\n      dup1\n      swap2\n      sub\n      swap1\n      return\n        /* \"contracts/JwtToken.sol\":170:199  string public _symbol = \"JTK\" */\n    tag_15:\n      callvalue\n      dup1\n      iszero\n      tag_85\n      jumpi\n      0x00\n      dup1\n      revert\n    tag_85:\n      pop\n      tag_86\n      tag_87\n      jump\t// in\n    tag_86:\n      mload(0x40)\n      tag_88\n      swap2\n      swap1\n      tag_25\n      jump\t// in\n    tag_88:\n      mload(0x40)\n      dup1\n      swap2\n      sub\n      swap1\n      return\n        /* \"contracts/JwtToken.sol\":132:164  string public _name = \"JwtToken\" */\n    tag_16:\n      callvalue\n      dup1\n      iszero\n      tag_89\n      jumpi\n      0x00\n      dup1\n      revert\n    tag_89:\n      pop\n      tag_90\n      tag_91\n      jump\t// in\n    tag_90:\n      mload(0x40)\n      tag_92\n      swap2\n      swap1\n      tag_25\n      jump\t// in\n    tag_92:\n      mload(0x40)\n      dup1\n      swap2\n      sub\n      swap1\n      return\n        /* \"node_modules/@openzeppelin/contracts/token/ERC20/ERC20.sol\":4263:4412  function allowance(address owner, address spender) public view virtual override returns (uint256) {... */\n    tag_17:\n      callvalue\n      dup1\n      iszero\n      tag_93\n      jumpi\n      0x00\n      dup1\n      revert\n    tag_93:\n      pop\n      tag_94\n      0x04\n      dup1\n      calldatasize\n      sub\n      dup2\n      add\n      swap1\n      tag_95\n      swap2\n      swap1\n      tag_96\n      jump\t// in\n    tag_95:\n      tag_97\n      jump\t// in\n    tag_94:\n      mload(0x40)\n      tag_98\n      swap2\n      swap1\n      tag_37\n      jump\t// in\n    tag_98:\n      mload(0x40)\n      dup1\n      swap2\n      sub\n      swap1\n      return\n        /* \"node_modules/@openzeppelin/contracts/token/ERC20/ERC20.sol\":2206:2304  function name() public view virtual override returns (string memory) {... */\n    tag_23:\n        /* \"node_modules/@openzeppelin/contracts/token/ERC20/ERC20.sol\":2260:2273  string memory */\n      0x60\n        /* \"node_modules/@openzeppelin/contracts/token/ERC20/ERC20.sol\":2292:2297  _name */\n      0x03\n        /* \"node_modules/@openzeppelin/contracts/token/ERC20/ERC20.sol\":2285:2297  return _name */\n      dup1\n      sload\n      tag_100\n      swap1\n      tag_101\n      jump\t// in\n    tag_100:\n      dup1\n      0x1f\n      add\n      0x20\n      dup1\n      swap2\n      div\n      mul\n      0x20\n      add\n      mload(0x40)\n      swap1\n      dup2\n      add\n      0x40\n      mstore\n      dup1\n      swap3\n      swap2\n      swap1\n      dup2\n      dup2\n      mstore\n      0x20\n      add\n      dup3\n      dup1\n      sload\n      tag_102\n      swap1\n      tag_101\n      jump\t// in\n    tag_102:\n      dup1\n      iszero\n      tag_103\n      jumpi\n      dup1\n      0x1f\n      lt\n      tag_104\n      jumpi\n      0x0100\n      dup1\n      dup4\n      sload\n      div\n      mul\n      dup4\n      mstore\n      swap2\n      0x20\n      add\n      swap2\n      jump(tag_103)\n    tag_104:\n      dup3\n      add\n      swap2\n      swap1\n      0x00\n      mstore\n      keccak256(0x00, 0x20)\n      swap1\n    tag_105:\n      dup2\n      sload\n      dup2\n      mstore\n      swap1\n      0x01\n      add\n      swap1\n      0x20\n      add\n      dup1\n      dup4\n      gt\n      tag_105\n      jumpi\n      dup3\n      swap1\n      sub\n      0x1f\n      and\n      dup3\n      add\n      swap2\n    tag_103:\n      pop\n      pop\n      pop\n      pop\n      pop\n      swap1\n      pop\n        /* \"node_modules/@openzeppelin/contracts/token/ERC20/ERC20.sol\":2206:2304  function name() public view virtual override returns (string memory) {... */\n      swap1\n      jump\t// out\n        /* \"node_modules/@openzeppelin/contracts/token/ERC20/ERC20.sol\":4720:4917  function approve(address spender, uint256 amount) public virtual override returns (bool) {... */\n    tag_30:\n        /* \"node_modules/@openzeppelin/contracts/token/ERC20/ERC20.sol\":4803:4807  bool */\n      0x00\n        /* \"node_modules/@openzeppelin/contracts/token/ERC20/ERC20.sol\":4819:4832  address owner */\n      dup1\n        /* \"node_modules/@openzeppelin/contracts/token/ERC20/ERC20.sol\":4835:4847  _msgSender() */\n      tag_107\n        /* \"node_modules/@openzeppelin/contracts/token/ERC20/ERC20.sol\":4835:4845  _msgSender */\n      tag_108\n        /* \"node_modules/@openzeppelin/contracts/token/ERC20/ERC20.sol\":4835:4847  _msgSender() */\n      jump\t// in\n    tag_107:\n        /* \"node_modules/@openzeppelin/contracts/token/ERC20/ERC20.sol\":4819:4847  address owner = _msgSender() */\n      swap1\n      pop\n        /* \"node_modules/@openzeppelin/contracts/token/ERC20/ERC20.sol\":4857:4889  _approve(owner, spender, amount) */\n      tag_109\n        /* \"node_modules/@openzeppelin/contracts/token/ERC20/ERC20.sol\":4866:4871  owner */\n      dup2\n        /* \"node_modules/@openzeppelin/contracts/token/ERC20/ERC20.sol\":4873:4880  spender */\n      dup6\n        /* \"node_modules/@openzeppelin/contracts/token/ERC20/ERC20.sol\":4882:4888  amount */\n      dup6\n        /* \"node_modules/@openzeppelin/contracts/token/ERC20/ERC20.sol\":4857:4865  _approve */\n      tag_110\n        /* \"node_modules/@openzeppelin/contracts/token/ERC20/ERC20.sol\":4857:4889  _approve(owner, spender, amount) */\n      jump\t// in\n    tag_109:\n        /* \"node_modules/@openzeppelin/contracts/token/ERC20/ERC20.sol\":4906:4910  true */\n      0x01\n        /* \"node_modules/@openzeppelin/contracts/token/ERC20/ERC20.sol\":4899:4910  return true */\n      swap2\n      pop\n      pop\n        /* \"node_modules/@openzeppelin/contracts/token/ERC20/ERC20.sol\":4720:4917  function approve(address spender, uint256 amount) public virtual override returns (bool) {... */\n      swap3\n      swap2\n      pop\n      pop\n      jump\t// out\n        /* \"node_modules/@openzeppelin/contracts/token/ERC20/ERC20.sol\":3536:3642  function totalSupply() public view virtual override returns (uint256) {... */\n    tag_35:\n        /* \"node_modules/@openzeppelin/contracts/token/ERC20/ERC20.sol\":3597:3604  uint256 */\n      0x00\n        /* \"node_modules/@openzeppelin/contracts/token/ERC20/ERC20.sol\":3623:3635  _totalSupply */\n      sload(0x02)\n        /* \"node_modules/@openzeppelin/contracts/token/ERC20/ERC20.sol\":3616:3635  return _totalSupply */\n      swap1\n      pop\n        /* \"node_modules/@openzeppelin/contracts/token/ERC20/ERC20.sol\":3536:3642  function totalSupply() public view virtual override returns (uint256) {... */\n      swap1\n      jump\t// out\n        /* \"node_modules/@openzeppelin/contracts/token/ERC20/ERC20.sol\":5479:5735  function transferFrom(address from, address to, uint256 amount) public virtual override returns (bool) {... */\n    tag_42:\n        /* \"node_modules/@openzeppelin/contracts/token/ERC20/ERC20.sol\":5576:5580  bool */\n      0x00\n        /* \"node_modules/@openzeppelin/contracts/token/ERC20/ERC20.sol\":5592:5607  address spender */\n      dup1\n        /* \"node_modules/@openzeppelin/contracts/token/ERC20/ERC20.sol\":5610:5622  _msgSender() */\n      tag_113\n        /* \"node_modules/@openzeppelin/contracts/token/ERC20/ERC20.sol\":5610:5620  _msgSender */\n      tag_108\n        /* \"node_modules/@openzeppelin/contracts/token/ERC20/ERC20.sol\":5610:5622  _msgSender() */\n      jump\t// in\n    tag_113:\n        /* \"node_modules/@openzeppelin/contracts/token/ERC20/ERC20.sol\":5592:5622  address spender = _msgSender() */\n      swap1\n      pop\n        /* \"node_modules/@openzeppelin/contracts/token/ERC20/ERC20.sol\":5632:5670  _spendAllowance(from, spender, amount) */\n      tag_114\n        /* \"node_modules/@openzeppelin/contracts/token/ERC20/ERC20.sol\":5648:5652  from */\n      dup6\n        /* \"node_modules/@openzeppelin/contracts/token/ERC20/ERC20.sol\":5654:5661  spender */\n      dup3\n        /* \"node_modules/@openzeppelin/contracts/token/ERC20/ERC20.sol\":5663:5669  amount */\n      dup6\n        /* \"node_modules/@openzeppelin/contracts/token/ERC20/ERC20.sol\":5632:5647  _spendAllowance */\n      tag_115\n        /* \"node_modules/@openzeppelin/contracts/token/ERC20/ERC20.sol\":5632:5670  _spendAllowance(from, spender, amount) */\n      jump\t// in\n    tag_114:\n        /* \"node_modules/@openzeppelin/contracts/token/ERC20/ERC20.sol\":5680:5707  _transfer(from, to, amount) */\n      tag_116\n        /* \"node_modules/@openzeppelin/contracts/token/ERC20/ERC20.sol\":5690:5694  from */\n      dup6\n        /* \"node_modules/@openzeppelin/contracts/token/ERC20/ERC20.sol\":5696:5698  to */\n      dup6\n        /* \"node_modules/@openzeppelin/contracts/token/ERC20/ERC20.sol\":5700:5706  amount */\n      dup6\n        /* \"node_modules/@openzeppelin/contracts/token/ERC20/ERC20.sol\":5680:5689  _transfer */\n      tag_117\n        /* \"node_modules/@openzeppelin/contracts/token/ERC20/ERC20.sol\":5680:5707  _transfer(from, to, amount) */\n      jump\t// in\n    tag_116:\n        /* \"node_modules/@openzeppelin/contracts/token/ERC20/ERC20.sol\":5724:5728  true */\n      0x01\n        /* \"node_modules/@openzeppelin/contracts/token/ERC20/ERC20.sol\":5717:5728  return true */\n      swap2\n      pop\n      pop\n        /* \"node_modules/@openzeppelin/contracts/token/ERC20/ERC20.sol\":5479:5735  function transferFrom(address from, address to, uint256 amount) public virtual override returns (bool) {... */\n      swap4\n      swap3\n      pop\n      pop\n      pop\n      jump\t// out\n        /* \"node_modules/@openzeppelin/contracts/token/ERC20/ERC20.sol\":3385:3476  function decimals() public view virtual override returns (uint8) {... */\n    tag_46:\n        /* \"node_modules/@openzeppelin/contracts/token/ERC20/ERC20.sol\":3443:3448  uint8 */\n      0x00\n        /* \"node_modules/@openzeppelin/contracts/token/ERC20/ERC20.sol\":3467:3469  18 */\n      0x12\n        /* \"node_modules/@openzeppelin/contracts/token/ERC20/ERC20.sol\":3460:3469  return 18 */\n      swap1\n      pop\n        /* \"node_modules/@openzeppelin/contracts/token/ERC20/ERC20.sol\":3385:3476  function decimals() public view virtual override returns (uint8) {... */\n      swap1\n      jump\t// out\n        /* \"node_modules/@openzeppelin/contracts/token/ERC20/ERC20.sol\":6130:6364  function increaseAllowance(address spender, uint256 addedValue) public virtual returns (bool) {... */\n    tag_52:\n        /* \"node_modules/@openzeppelin/contracts/token/ERC20/ERC20.sol\":6218:6222  bool */\n      0x00\n        /* \"node_modules/@openzeppelin/contracts/token/ERC20/ERC20.sol\":6234:6247  address owner */\n      dup1\n        /* \"node_modules/@openzeppelin/contracts/token/ERC20/ERC20.sol\":6250:6262  _msgSender() */\n      tag_120\n        /* \"node_modules/@openzeppelin/contracts/token/ERC20/ERC20.sol\":6250:6260  _msgSender */\n      tag_108\n        /* \"node_modules/@openzeppelin/contracts/token/ERC20/ERC20.sol\":6250:6262  _msgSender() */\n      jump\t// in\n    tag_120:\n        /* \"node_modules/@openzeppelin/contracts/token/ERC20/ERC20.sol\":6234:6262  address owner = _msgSender() */\n      swap1\n      pop\n        /* \"node_modules/@openzeppelin/contracts/token/ERC20/ERC20.sol\":6272:6336  _approve(owner, spender, allowance(owner, spender) + addedValue) */\n      tag_121\n        /* \"node_modules/@openzeppelin/contracts/token/ERC20/ERC20.sol\":6281:6286  owner */\n      dup2\n        /* \"node_modules/@openzeppelin/contracts/token/ERC20/ERC20.sol\":6288:6295  spender */\n      dup6\n        /* \"node_modules/@openzeppelin/contracts/token/ERC20/ERC20.sol\":6325:6335  addedValue */\n      dup6\n        /* \"node_modules/@openzeppelin/contracts/token/ERC20/ERC20.sol\":6297:6322  allowance(owner, spender) */\n      tag_122\n        /* \"node_modules/@openzeppelin/contracts/token/ERC20/ERC20.sol\":6307:6312  owner */\n      dup6\n        /* \"node_modules/@openzeppelin/contracts/token/ERC20/ERC20.sol\":6314:6321  spender */\n      dup10\n        /* \"node_modules/@openzeppelin/contracts/token/ERC20/ERC20.sol\":6297:6306  allowance */\n      tag_97\n        /* \"node_modules/@openzeppelin/contracts/token/ERC20/ERC20.sol\":6297:6322  allowance(owner, spender) */\n      jump\t// in\n    tag_122:\n        /* \"node_modules/@openzeppelin/contracts/token/ERC20/ERC20.sol\":6297:6335  allowance(owner, spender) + addedValue */\n      tag_123\n      swap2\n      swap1\n      tag_124\n      jump\t// in\n    tag_123:\n        /* \"node_modules/@openzeppelin/contracts/token/ERC20/ERC20.sol\":6272:6280  _approve */\n      tag_110\n        /* \"node_modules/@openzeppelin/contracts/token/ERC20/ERC20.sol\":6272:6336  _approve(owner, spender, allowance(owner, spender) + addedValue) */\n      jump\t// in\n    tag_121:\n        /* \"node_modules/@openzeppelin/contracts/token/ERC20/ERC20.sol\":6353:6357  true */\n      0x01\n        /* \"node_modules/@openzeppelin/contracts/token/ERC20/ERC20.sol\":6346:6357  return true */\n      swap2\n      pop\n      pop\n        /* \"node_modules/@openzeppelin/contracts/token/ERC20/ERC20.sol\":6130:6364  function increaseAllowance(address spender, uint256 addedValue) public virtual returns (bool) {... */\n      swap3\n      swap2\n      pop\n      pop\n      jump\t// out\n        /* \"contracts/JwtToken.sol\":205:260  uint256 public _totalSupply = 5000 * (10 ** decimals()) */\n    tag_56:\n      sload(0x08)\n      dup2\n      jump\t// out\n        /* \"node_modules/@openzeppelin/contracts/token/ERC20/ERC20.sol\":2525:2649  function buyToken(address to, uint256 tokenAmount) public payable {... */\n    tag_60:\n        /* \"node_modules/@openzeppelin/contracts/token/ERC20/ERC20.sol\":2601:2642  _transfer(address(this), to, tokenAmount) */\n      tag_126\n        /* \"node_modules/@openzeppelin/contracts/token/ERC20/ERC20.sol\":2619:2623  this */\n      address\n        /* \"node_modules/@openzeppelin/contracts/token/ERC20/ERC20.sol\":2626:2628  to */\n      dup4\n        /* \"node_modules/@openzeppelin/contracts/token/ERC20/ERC20.sol\":2630:2641  tokenAmount */\n      dup4\n        /* \"node_modules/@openzeppelin/contracts/token/ERC20/ERC20.sol\":2601:2610  _transfer */\n      tag_117\n        /* \"node_modules/@openzeppelin/contracts/token/ERC20/ERC20.sol\":2601:2642  _transfer(address(this), to, tokenAmount) */\n      jump\t// in\n    tag_126:\n        /* \"node_modules/@openzeppelin/contracts/token/ERC20/ERC20.sol\":2525:2649  function buyToken(address to, uint256 tokenAmount) public payable {... */\n      pop\n      pop\n      jump\t// out\n        /* \"node_modules/@openzeppelin/contracts/token/ERC20/ERC20.sol\":3700:3825  function balanceOf(address account) public view virtual override returns (uint256) {... */\n    tag_65:\n        /* \"node_modules/@openzeppelin/contracts/token/ERC20/ERC20.sol\":3774:3781  uint256 */\n      0x00\n        /* \"node_modules/@openzeppelin/contracts/token/ERC20/ERC20.sol\":3800:3809  _balances */\n      dup1\n        /* \"node_modules/@openzeppelin/contracts/token/ERC20/ERC20.sol\":3800:3818  _balances[account] */\n      0x00\n        /* \"node_modules/@openzeppelin/contracts/token/ERC20/ERC20.sol\":3810:3817  account */\n      dup4\n        /* \"node_modules/@openzeppelin/contracts/token/ERC20/ERC20.sol\":3800:3818  _balances[account] */\n      0xffffffffffffffffffffffffffffffffffffffff\n      and\n      0xffffffffffffffffffffffffffffffffffffffff\n      and\n      dup2\n      mstore\n      0x20\n      add\n      swap1\n      dup2\n      mstore\n      0x20\n      add\n      0x00\n      keccak256\n      sload\n        /* \"node_modules/@openzeppelin/contracts/token/ERC20/ERC20.sol\":3793:3818  return _balances[account] */\n      swap1\n      pop\n        /* \"node_modules/@openzeppelin/contracts/token/ERC20/ERC20.sol\":3700:3825  function balanceOf(address account) public view virtual override returns (uint256) {... */\n      swap2\n      swap1\n      pop\n      jump\t// out\n        /* \"node_modules/@openzeppelin/contracts/token/ERC20/ERC20.sol\":2655:2753  function _balanceOf () public view returns (uint) {... */\n    tag_69:\n        /* \"node_modules/@openzeppelin/contracts/token/ERC20/ERC20.sol\":2699:2703  uint */\n      0x00\n        /* \"node_modules/@openzeppelin/contracts/token/ERC20/ERC20.sol\":2722:2731  _balances */\n      dup1\n        /* \"node_modules/@openzeppelin/contracts/token/ERC20/ERC20.sol\":2722:2746  _balances[address(this)] */\n      0x00\n        /* \"node_modules/@openzeppelin/contracts/token/ERC20/ERC20.sol\":2740:2744  this */\n      address\n        /* \"node_modules/@openzeppelin/contracts/token/ERC20/ERC20.sol\":2722:2746  _balances[address(this)] */\n      0xffffffffffffffffffffffffffffffffffffffff\n      and\n      0xffffffffffffffffffffffffffffffffffffffff\n      and\n      dup2\n      mstore\n      0x20\n      add\n      swap1\n      dup2\n      mstore\n      0x20\n      add\n      0x00\n      keccak256\n      sload\n        /* \"node_modules/@openzeppelin/contracts/token/ERC20/ERC20.sol\":2715:2746  return _balances[address(this)] */\n      swap1\n      pop\n        /* \"node_modules/@openzeppelin/contracts/token/ERC20/ERC20.sol\":2655:2753  function _balanceOf () public view returns (uint) {... */\n      swap1\n      jump\t// out\n        /* \"node_modules/@openzeppelin/contracts/token/ERC20/ERC20.sol\":2417:2519  function symbol() public view virtual override returns (string memory) {... */\n    tag_73:\n        /* \"node_modules/@openzeppelin/contracts/token/ERC20/ERC20.sol\":2473:2486  string memory */\n      0x60\n        /* \"node_modules/@openzeppelin/contracts/token/ERC20/ERC20.sol\":2505:2512  _symbol */\n      0x04\n        /* \"node_modules/@openzeppelin/contracts/token/ERC20/ERC20.sol\":2498:2512  return _symbol */\n      dup1\n      sload\n      tag_130\n      swap1\n      tag_101\n      jump\t// in\n    tag_130:\n      dup1\n      0x1f\n      add\n      0x20\n      dup1\n      swap2\n      div\n      mul\n      0x20\n      add\n      mload(0x40)\n      swap1\n      dup2\n      add\n      0x40\n      mstore\n      dup1\n      swap3\n      swap2\n      swap1\n      dup2\n      dup2\n      mstore\n      0x20\n      add\n      dup3\n      dup1\n      sload\n      tag_131\n      swap1\n      tag_101\n      jump\t// in\n    tag_131:\n      dup1\n      iszero\n      tag_132\n      jumpi\n      dup1\n      0x1f\n      lt\n      tag_133\n      jumpi\n      0x0100\n      dup1\n      dup4\n      sload\n      div\n      mul\n      dup4\n      mstore\n      swap2\n      0x20\n      add\n      swap2\n      jump(tag_132)\n    tag_133:\n      dup3\n      add\n      swap2\n      swap1\n      0x00\n      mstore\n      keccak256(0x00, 0x20)\n      swap1\n    tag_134:\n      dup2\n      sload\n      dup2\n      mstore\n      swap1\n      0x01\n      add\n      swap1\n      0x20\n      add\n      dup1\n      dup4\n      gt\n      tag_134\n      jumpi\n      dup3\n      swap1\n      sub\n      0x1f\n      and\n      dup3\n      add\n      swap2\n    tag_132:\n      pop\n      pop\n      pop\n      pop\n      pop\n      swap1\n      pop\n        /* \"node_modules/@openzeppelin/contracts/token/ERC20/ERC20.sol\":2417:2519  function symbol() public view virtual override returns (string memory) {... */\n      swap1\n      jump\t// out\n        /* \"node_modules/@openzeppelin/contracts/token/ERC20/ERC20.sol\":6851:7278  function decreaseAllowance(address spender, uint256 subtractedValue) public virtual returns (bool) {... */\n    tag_78:\n        /* \"node_modules/@openzeppelin/contracts/token/ERC20/ERC20.sol\":6944:6948  bool */\n      0x00\n        /* \"node_modules/@openzeppelin/contracts/token/ERC20/ERC20.sol\":6960:6973  address owner */\n      dup1\n        /* \"node_modules/@openzeppelin/contracts/token/ERC20/ERC20.sol\":6976:6988  _msgSender() */\n      tag_136\n        /* \"node_modules/@openzeppelin/contracts/token/ERC20/ERC20.sol\":6976:6986  _msgSender */\n      tag_108\n        /* \"node_modules/@openzeppelin/contracts/token/ERC20/ERC20.sol\":6976:6988  _msgSender() */\n      jump\t// in\n    tag_136:\n        /* \"node_modules/@openzeppelin/contracts/token/ERC20/ERC20.sol\":6960:6988  address owner = _msgSender() */\n      swap1\n      pop\n        /* \"node_modules/@openzeppelin/contracts/token/ERC20/ERC20.sol\":6998:7022  uint256 currentAllowance */\n      0x00\n        /* \"node_modules/@openzeppelin/contracts/token/ERC20/ERC20.sol\":7025:7050  allowance(owner, spender) */\n      tag_137\n        /* \"node_modules/@openzeppelin/contracts/token/ERC20/ERC20.sol\":7035:7040  owner */\n      dup3\n        /* \"node_modules/@openzeppelin/contracts/token/ERC20/ERC20.sol\":7042:7049  spender */\n      dup7\n        /* \"node_modules/@openzeppelin/contracts/token/ERC20/ERC20.sol\":7025:7034  allowance */\n      tag_97\n        /* \"node_modules/@openzeppelin/contracts/token/ERC20/ERC20.sol\":7025:7050  allowance(owner, spender) */\n      jump\t// in\n    tag_137:\n        /* \"node_modules/@openzeppelin/contracts/token/ERC20/ERC20.sol\":6998:7050  uint256 currentAllowance = allowance(owner, spender) */\n      swap1\n      pop\n        /* \"node_modules/@openzeppelin/contracts/token/ERC20/ERC20.sol\":7088:7103  subtractedValue */\n      dup4\n        /* \"node_modules/@openzeppelin/contracts/token/ERC20/ERC20.sol\":7068:7084  currentAllowance */\n      dup2\n        /* \"node_modules/@openzeppelin/contracts/token/ERC20/ERC20.sol\":7068:7103  currentAllowance >= subtractedValue */\n      lt\n      iszero\n        /* \"node_modules/@openzeppelin/contracts/token/ERC20/ERC20.sol\":7060:7145  require(currentAllowance >= subtractedValue, \"ERC20: decreased allowance below zero\") */\n      tag_138\n      jumpi\n      mload(0x40)\n      0x08c379a000000000000000000000000000000000000000000000000000000000\n      dup2\n      mstore\n      0x04\n      add\n      tag_139\n      swap1\n      tag_140\n      jump\t// in\n    tag_139:\n      mload(0x40)\n      dup1\n      swap2\n      sub\n      swap1\n      revert\n    tag_138:\n        /* \"node_modules/@openzeppelin/contracts/token/ERC20/ERC20.sol\":7179:7239  _approve(owner, spender, currentAllowance - subtractedValue) */\n      tag_141\n        /* \"node_modules/@openzeppelin/contracts/token/ERC20/ERC20.sol\":7188:7193  owner */\n      dup3\n        /* \"node_modules/@openzeppelin/contracts/token/ERC20/ERC20.sol\":7195:7202  spender */\n      dup7\n        /* \"node_modules/@openzeppelin/contracts/token/ERC20/ERC20.sol\":7223:7238  subtractedValue */\n      dup7\n        /* \"node_modules/@openzeppelin/contracts/token/ERC20/ERC20.sol\":7204:7220  currentAllowance */\n      dup5\n        /* \"node_modules/@openzeppelin/contracts/token/ERC20/ERC20.sol\":7204:7238  currentAllowance - subtractedValue */\n      sub\n        /* \"node_modules/@openzeppelin/contracts/token/ERC20/ERC20.sol\":7179:7187  _approve */\n      tag_110\n        /* \"node_modules/@openzeppelin/contracts/token/ERC20/ERC20.sol\":7179:7239  _approve(owner, spender, currentAllowance - subtractedValue) */\n      jump\t// in\n    tag_141:\n        /* \"node_modules/@openzeppelin/contracts/token/ERC20/ERC20.sol\":7267:7271  true */\n      0x01\n        /* \"node_modules/@openzeppelin/contracts/token/ERC20/ERC20.sol\":7260:7271  return true */\n      swap3\n      pop\n      pop\n      pop\n        /* \"node_modules/@openzeppelin/contracts/token/ERC20/ERC20.sol\":6851:7278  function decreaseAllowance(address spender, uint256 subtractedValue) public virtual returns (bool) {... */\n      swap3\n      swap2\n      pop\n      pop\n      jump\t// out\n        /* \"node_modules/@openzeppelin/contracts/token/ERC20/ERC20.sol\":4021:4204  function transfer(address to, uint256 amount) public virtual override returns (bool) {... */\n    tag_83:\n        /* \"node_modules/@openzeppelin/contracts/token/ERC20/ERC20.sol\":4100:4104  bool */\n      0x00\n        /* \"node_modules/@openzeppelin/contracts/token/ERC20/ERC20.sol\":4116:4129  address owner */\n      dup1\n        /* \"node_modules/@openzeppelin/contracts/token/ERC20/ERC20.sol\":4132:4138  _owner */\n      0x05\n      0x00\n      swap1\n      sload\n      swap1\n      0x0100\n      exp\n      swap1\n      div\n      0xffffffffffffffffffffffffffffffffffffffff\n      and\n        /* \"node_modules/@openzeppelin/contracts/token/ERC20/ERC20.sol\":4116:4138  address owner = _owner */\n      swap1\n      pop\n        /* \"node_modules/@openzeppelin/contracts/token/ERC20/ERC20.sol\":4148:4176  _transfer(owner, to, amount) */\n      tag_143\n        /* \"node_modules/@openzeppelin/contracts/token/ERC20/ERC20.sol\":4158:4163  owner */\n      dup2\n        /* \"node_modules/@openzeppelin/contracts/token/ERC20/ERC20.sol\":4165:4167  to */\n      dup6\n        /* \"node_modules/@openzeppelin/contracts/token/ERC20/ERC20.sol\":4169:4175  amount */\n      dup6\n        /* \"node_modules/@openzeppelin/contracts/token/ERC20/ERC20.sol\":4148:4157  _transfer */\n      tag_117\n        /* \"node_modules/@openzeppelin/contracts/token/ERC20/ERC20.sol\":4148:4176  _transfer(owner, to, amount) */\n      jump\t// in\n    tag_143:\n        /* \"node_modules/@openzeppelin/contracts/token/ERC20/ERC20.sol\":4193:4197  true */\n      0x01\n        /* \"node_modules/@openzeppelin/contracts/token/ERC20/ERC20.sol\":4186:4197  return true */\n      swap2\n      pop\n      pop\n        /* \"node_modules/@openzeppelin/contracts/token/ERC20/ERC20.sol\":4021:4204  function transfer(address to, uint256 amount) public virtual override returns (bool) {... */\n      swap3\n      swap2\n      pop\n      pop\n      jump\t// out\n        /* \"contracts/JwtToken.sol\":170:199  string public _symbol = \"JTK\" */\n    tag_87:\n      0x07\n      dup1\n      sload\n      tag_144\n      swap1\n      tag_101\n      jump\t// in\n    tag_144:\n      dup1\n      0x1f\n      add\n      0x20\n      dup1\n      swap2\n      div\n      mul\n      0x20\n      add\n      mload(0x40)\n      swap1\n      dup2\n      add\n      0x40\n      mstore\n      dup1\n      swap3\n      swap2\n      swap1\n      dup2\n      dup2\n      mstore\n      0x20\n      add\n      dup3\n      dup1\n      sload\n      tag_145\n      swap1\n      tag_101\n      jump\t// in\n    tag_145:\n      dup1\n      iszero\n      tag_146\n      jumpi\n      dup1\n      0x1f\n      lt\n      tag_147\n      jumpi\n      0x0100\n      dup1\n      dup4\n      sload\n      div\n      mul\n      dup4\n      mstore\n      swap2\n      0x20\n      add\n      swap2\n      jump(tag_146)\n    tag_147:\n      dup3\n      add\n      swap2\n      swap1\n      0x00\n      mstore\n      keccak256(0x00, 0x20)\n      swap1\n    tag_148:\n      dup2\n      sload\n      dup2\n      mstore\n      swap1\n      0x01\n      add\n      swap1\n      0x20\n      add\n      dup1\n      dup4\n      gt\n      tag_148\n      jumpi\n      dup3\n      swap1\n      sub\n      0x1f\n      and\n      dup3\n      add\n      swap2\n    tag_146:\n      pop\n      pop\n      pop\n      pop\n      pop\n      dup2\n      jump\t// out\n        /* \"contracts/JwtToken.sol\":132:164  string public _name = \"JwtToken\" */\n    tag_91:\n      0x06\n      dup1\n      sload\n      tag_149\n      swap1\n      tag_101\n      jump\t// in\n    tag_149:\n      dup1\n      0x1f\n      add\n      0x20\n      dup1\n      swap2\n      div\n      mul\n      0x20\n      add\n      mload(0x40)\n      swap1\n      dup2\n      add\n      0x40\n      mstore\n      dup1\n      swap3\n      swap2\n      swap1\n      dup2\n      dup2\n      mstore\n      0x20\n      add\n      dup3\n      dup1\n      sload\n      tag_150\n      swap1\n      tag_101\n      jump\t// in\n    tag_150:\n      dup1\n      iszero\n      tag_151\n      jumpi\n      dup1\n      0x1f\n      lt\n      tag_152\n      jumpi\n      0x0100\n      dup1\n      dup4\n      sload\n      div\n      mul\n      dup4\n      mstore\n      swap2\n      0x20\n      add\n      swap2\n      jump(tag_151)\n    tag_152:\n      dup3\n      add\n      swap2\n      swap1\n      0x00\n      mstore\n      keccak256(0x00, 0x20)\n      swap1\n    tag_153:\n      dup2\n      sload\n      dup2\n      mstore\n      swap1\n      0x01\n      add\n      swap1\n      0x20\n      add\n      dup1\n      dup4\n      gt\n      tag_153\n      jumpi\n      dup3\n      swap1\n      sub\n      0x1f\n      and\n      dup3\n      add\n      swap2\n    tag_151:\n      pop\n      pop\n      pop\n      pop\n      pop\n      dup2\n      jump\t// out\n        /* \"node_modules/@openzeppelin/contracts/token/ERC20/ERC20.sol\":4263:4412  function allowance(address owner, address spender) public view virtual override returns (uint256) {... */\n    tag_97:\n        /* \"node_modules/@openzeppelin/contracts/token/ERC20/ERC20.sol\":4352:4359  uint256 */\n      0x00\n        /* \"node_modules/@openzeppelin/contracts/token/ERC20/ERC20.sol\":4378:4389  _allowances */\n      0x01\n        /* \"node_modules/@openzeppelin/contracts/token/ERC20/ERC20.sol\":4378:4396  _allowances[owner] */\n      0x00\n        /* \"node_modules/@openzeppelin/contracts/token/ERC20/ERC20.sol\":4390:4395  owner */\n      dup5\n        /* \"node_modules/@openzeppelin/contracts/token/ERC20/ERC20.sol\":4378:4396  _allowances[owner] */\n      0xffffffffffffffffffffffffffffffffffffffff\n      and\n      0xffffffffffffffffffffffffffffffffffffffff\n      and\n      dup2\n      mstore\n      0x20\n      add\n      swap1\n      dup2\n      mstore\n      0x20\n      add\n      0x00\n      keccak256\n        /* \"node_modules/@openzeppelin/contracts/token/ERC20/ERC20.sol\":4378:4405  _allowances[owner][spender] */\n      0x00\n        /* \"node_modules/@openzeppelin/contracts/token/ERC20/ERC20.sol\":4397:4404  spender */\n      dup4\n        /* \"node_modules/@openzeppelin/contracts/token/ERC20/ERC20.sol\":4378:4405  _allowances[owner][spender] */\n      0xffffffffffffffffffffffffffffffffffffffff\n      and\n      0xffffffffffffffffffffffffffffffffffffffff\n      and\n      dup2\n      mstore\n      0x20\n      add\n      swap1\n      dup2\n      mstore\n      0x20\n      add\n      0x00\n      keccak256\n      sload\n        /* \"node_modules/@openzeppelin/contracts/token/ERC20/ERC20.sol\":4371:4405  return _allowances[owner][spender] */\n      swap1\n      pop\n        /* \"node_modules/@openzeppelin/contracts/token/ERC20/ERC20.sol\":4263:4412  function allowance(address owner, address spender) public view virtual override returns (uint256) {... */\n      swap3\n      swap2\n      pop\n      pop\n      jump\t// out\n        /* \"node_modules/@openzeppelin/contracts/utils/Context.sol\":640:736  function _msgSender() internal view virtual returns (address) {... */\n    tag_108:\n        /* \"node_modules/@openzeppelin/contracts/utils/Context.sol\":693:700  address */\n      0x00\n        /* \"node_modules/@openzeppelin/contracts/utils/Context.sol\":719:729  msg.sender */\n      caller\n        /* \"node_modules/@openzeppelin/contracts/utils/Context.sol\":712:729  return msg.sender */\n      swap1\n      pop\n        /* \"node_modules/@openzeppelin/contracts/utils/Context.sol\":640:736  function _msgSender() internal view virtual returns (address) {... */\n      swap1\n      jump\t// out\n        /* \"node_modules/@openzeppelin/contracts/token/ERC20/ERC20.sol\":10733:11073  function _approve(address owner, address spender, uint256 amount) internal virtual {... */\n    tag_110:\n        /* \"node_modules/@openzeppelin/contracts/token/ERC20/ERC20.sol\":10851:10852  0 */\n      0x00\n        /* \"node_modules/@openzeppelin/contracts/token/ERC20/ERC20.sol\":10834:10853  owner != address(0) */\n      0xffffffffffffffffffffffffffffffffffffffff\n      and\n        /* \"node_modules/@openzeppelin/contracts/token/ERC20/ERC20.sol\":10834:10839  owner */\n      dup4\n        /* \"node_modules/@openzeppelin/contracts/token/ERC20/ERC20.sol\":10834:10853  owner != address(0) */\n      0xffffffffffffffffffffffffffffffffffffffff\n      and\n      sub\n        /* \"node_modules/@openzeppelin/contracts/token/ERC20/ERC20.sol\":10826:10894  require(owner != address(0), \"ERC20: approve from the zero address\") */\n      tag_157\n      jumpi\n      mload(0x40)\n      0x08c379a000000000000000000000000000000000000000000000000000000000\n      dup2\n      mstore\n      0x04\n      add\n      tag_158\n      swap1\n      tag_159\n      jump\t// in\n    tag_158:\n      mload(0x40)\n      dup1\n      swap2\n      sub\n      swap1\n      revert\n    tag_157:\n        /* \"node_modules/@openzeppelin/contracts/token/ERC20/ERC20.sol\":10931:10932  0 */\n      0x00\n        /* \"node_modules/@openzeppelin/contracts/token/ERC20/ERC20.sol\":10912:10933  spender != address(0) */\n      0xffffffffffffffffffffffffffffffffffffffff\n      and\n        /* \"node_modules/@openzeppelin/contracts/token/ERC20/ERC20.sol\":10912:10919  spender */\n      dup3\n        /* \"node_modules/@openzeppelin/contracts/token/ERC20/ERC20.sol\":10912:10933  spender != address(0) */\n      0xffffffffffffffffffffffffffffffffffffffff\n      and\n      sub\n        /* \"node_modules/@openzeppelin/contracts/token/ERC20/ERC20.sol\":10904:10972  require(spender != address(0), \"ERC20: approve to the zero address\") */\n      tag_160\n      jumpi\n      mload(0x40)\n      0x08c379a000000000000000000000000000000000000000000000000000000000\n      dup2\n      mstore\n      0x04\n      add\n      tag_161\n      swap1\n      tag_162\n      jump\t// in\n    tag_161:\n      mload(0x40)\n      dup1\n      swap2\n      sub\n      swap1\n      revert\n    tag_160:\n        /* \"node_modules/@openzeppelin/contracts/token/ERC20/ERC20.sol\":11013:11019  amount */\n      dup1\n        /* \"node_modules/@openzeppelin/contracts/token/ERC20/ERC20.sol\":10983:10994  _allowances */\n      0x01\n        /* \"node_modules/@openzeppelin/contracts/token/ERC20/ERC20.sol\":10983:11001  _allowances[owner] */\n      0x00\n        /* \"node_modules/@openzeppelin/contracts/token/ERC20/ERC20.sol\":10995:11000  owner */\n      dup6\n        /* \"node_modules/@openzeppelin/contracts/token/ERC20/ERC20.sol\":10983:11001  _allowances[owner] */\n      0xffffffffffffffffffffffffffffffffffffffff\n      and\n      0xffffffffffffffffffffffffffffffffffffffff\n      and\n      dup2\n      mstore\n      0x20\n      add\n      swap1\n      dup2\n      mstore\n      0x20\n      add\n      0x00\n      keccak256\n        /* \"node_modules/@openzeppelin/contracts/token/ERC20/ERC20.sol\":10983:11010  _allowances[owner][spender] */\n      0x00\n        /* \"node_modules/@openzeppelin/contracts/token/ERC20/ERC20.sol\":11002:11009  spender */\n      dup5\n        /* \"node_modules/@openzeppelin/contracts/token/ERC20/ERC20.sol\":10983:11010  _allowances[owner][spender] */\n      0xffffffffffffffffffffffffffffffffffffffff\n      and\n      0xffffffffffffffffffffffffffffffffffffffff\n      and\n      dup2\n      mstore\n      0x20\n      add\n      swap1\n      dup2\n      mstore\n      0x20\n      add\n      0x00\n      keccak256\n        /* \"node_modules/@openzeppelin/contracts/token/ERC20/ERC20.sol\":10983:11019  _allowances[owner][spender] = amount */\n      dup2\n      swap1\n      sstore\n      pop\n        /* \"node_modules/@openzeppelin/contracts/token/ERC20/ERC20.sol\":11050:11057  spender */\n      dup2\n        /* \"node_modules/@openzeppelin/contracts/token/ERC20/ERC20.sol\":11034:11066  Approval(owner, spender, amount) */\n      0xffffffffffffffffffffffffffffffffffffffff\n      and\n        /* \"node_modules/@openzeppelin/contracts/token/ERC20/ERC20.sol\":11043:11048  owner */\n      dup4\n        /* \"node_modules/@openzeppelin/contracts/token/ERC20/ERC20.sol\":11034:11066  Approval(owner, spender, amount) */\n      0xffffffffffffffffffffffffffffffffffffffff\n      and\n      0x8c5be1e5ebec7d5bd14f71427d1e84f3dd0314c0f7b2291e5b200ac8c7c3b925\n        /* \"node_modules/@openzeppelin/contracts/token/ERC20/ERC20.sol\":11059:11065  amount */\n      dup4\n        /* \"node_modules/@openzeppelin/contracts/token/ERC20/ERC20.sol\":11034:11066  Approval(owner, spender, amount) */\n      mload(0x40)\n      tag_163\n      swap2\n      swap1\n      tag_37\n      jump\t// in\n    tag_163:\n      mload(0x40)\n      dup1\n      swap2\n      sub\n      swap1\n      log3\n        /* \"node_modules/@openzeppelin/contracts/token/ERC20/ERC20.sol\":10733:11073  function _approve(address owner, address spender, uint256 amount) internal virtual {... */\n      pop\n      pop\n      pop\n      jump\t// out\n        /* \"node_modules/@openzeppelin/contracts/token/ERC20/ERC20.sol\":11354:11765  function _spendAllowance(address owner, address spender, uint256 amount) internal virtual {... */\n    tag_115:\n        /* \"node_modules/@openzeppelin/contracts/token/ERC20/ERC20.sol\":11454:11478  uint256 currentAllowance */\n      0x00\n        /* \"node_modules/@openzeppelin/contracts/token/ERC20/ERC20.sol\":11481:11506  allowance(owner, spender) */\n      tag_165\n        /* \"node_modules/@openzeppelin/contracts/token/ERC20/ERC20.sol\":11491:11496  owner */\n      dup5\n        /* \"node_modules/@openzeppelin/contracts/token/ERC20/ERC20.sol\":11498:11505  spender */\n      dup5\n        /* \"node_modules/@openzeppelin/contracts/token/ERC20/ERC20.sol\":11481:11490  allowance */\n      tag_97\n        /* \"node_modules/@openzeppelin/contracts/token/ERC20/ERC20.sol\":11481:11506  allowance(owner, spender) */\n      jump\t// in\n    tag_165:\n        /* \"node_modules/@openzeppelin/contracts/token/ERC20/ERC20.sol\":11454:11506  uint256 currentAllowance = allowance(owner, spender) */\n      swap1\n      pop\n        /* \"node_modules/@openzeppelin/contracts/token/ERC20/ERC20.sol\":11540:11557  type(uint256).max */\n      0xffffffffffffffffffffffffffffffffffffffffffffffffffffffffffffffff\n        /* \"node_modules/@openzeppelin/contracts/token/ERC20/ERC20.sol\":11520:11536  currentAllowance */\n      dup2\n        /* \"node_modules/@openzeppelin/contracts/token/ERC20/ERC20.sol\":11520:11557  currentAllowance != type(uint256).max */\n      eq\n        /* \"node_modules/@openzeppelin/contracts/token/ERC20/ERC20.sol\":11516:11759  if (currentAllowance != type(uint256).max) {... */\n      tag_166\n      jumpi\n        /* \"node_modules/@openzeppelin/contracts/token/ERC20/ERC20.sol\":11601:11607  amount */\n      dup2\n        /* \"node_modules/@openzeppelin/contracts/token/ERC20/ERC20.sol\":11581:11597  currentAllowance */\n      dup2\n        /* \"node_modules/@openzeppelin/contracts/token/ERC20/ERC20.sol\":11581:11607  currentAllowance >= amount */\n      lt\n      iszero\n        /* \"node_modules/@openzeppelin/contracts/token/ERC20/ERC20.sol\":11573:11641  require(currentAllowance >= amount, \"ERC20: insufficient allowance\") */\n      tag_167\n      jumpi\n      mload(0x40)\n      0x08c379a000000000000000000000000000000000000000000000000000000000\n      dup2\n      mstore\n      0x04\n      add\n      tag_168\n      swap1\n      tag_169\n      jump\t// in\n    tag_168:\n      mload(0x40)\n      dup1\n      swap2\n      sub\n      swap1\n      revert\n    tag_167:\n        /* \"node_modules/@openzeppelin/contracts/token/ERC20/ERC20.sol\":11683:11734  _approve(owner, spender, currentAllowance - amount) */\n      tag_170\n        /* \"node_modules/@openzeppelin/contracts/token/ERC20/ERC20.sol\":11692:11697  owner */\n      dup5\n        /* \"node_modules/@openzeppelin/contracts/token/ERC20/ERC20.sol\":11699:11706  spender */\n      dup5\n        /* \"node_modules/@openzeppelin/contracts/token/ERC20/ERC20.sol\":11727:11733  amount */\n      dup5\n        /* \"node_modules/@openzeppelin/contracts/token/ERC20/ERC20.sol\":11708:11724  currentAllowance */\n      dup5\n        /* \"node_modules/@openzeppelin/contracts/token/ERC20/ERC20.sol\":11708:11733  currentAllowance - amount */\n      sub\n        /* \"node_modules/@openzeppelin/contracts/token/ERC20/ERC20.sol\":11683:11691  _approve */\n      tag_110\n        /* \"node_modules/@openzeppelin/contracts/token/ERC20/ERC20.sol\":11683:11734  _approve(owner, spender, currentAllowance - amount) */\n      jump\t// in\n    tag_170:\n        /* \"node_modules/@openzeppelin/contracts/token/ERC20/ERC20.sol\":11516:11759  if (currentAllowance != type(uint256).max) {... */\n    tag_166:\n        /* \"node_modules/@openzeppelin/contracts/token/ERC20/ERC20.sol\":11444:11765  {... */\n      pop\n        /* \"node_modules/@openzeppelin/contracts/token/ERC20/ERC20.sol\":11354:11765  function _spendAllowance(address owner, address spender, uint256 amount) internal virtual {... */\n      pop\n      pop\n      pop\n      jump\t// out\n        /* \"node_modules/@openzeppelin/contracts/token/ERC20/ERC20.sol\":7732:8520  function _transfer(address from, address to, uint256 amount) internal virtual {... */\n    tag_117:\n        /* \"node_modules/@openzeppelin/contracts/token/ERC20/ERC20.sol\":7844:7845  0 */\n      0x00\n        /* \"node_modules/@openzeppelin/contracts/token/ERC20/ERC20.sol\":7828:7846  from != address(0) */\n      0xffffffffffffffffffffffffffffffffffffffff\n      and\n        /* \"node_modules/@openzeppelin/contracts/token/ERC20/ERC20.sol\":7828:7832  from */\n      dup4\n        /* \"node_modules/@openzeppelin/contracts/token/ERC20/ERC20.sol\":7828:7846  from != address(0) */\n      0xffffffffffffffffffffffffffffffffffffffff\n      and\n      sub\n        /* \"node_modules/@openzeppelin/contracts/token/ERC20/ERC20.sol\":7820:7888  require(from != address(0), \"ERC20: transfer from the zero address\") */\n      tag_172\n      jumpi\n      mload(0x40)\n      0x08c379a000000000000000000000000000000000000000000000000000000000\n      dup2\n      mstore\n      0x04\n      add\n      tag_173\n      swap1\n      tag_174\n      jump\t// in\n    tag_173:\n      mload(0x40)\n      dup1\n      swap2\n      sub\n      swap1\n      revert\n    tag_172:\n        /* \"node_modules/@openzeppelin/contracts/token/ERC20/ERC20.sol\":7920:7921  0 */\n      0x00\n        /* \"node_modules/@openzeppelin/contracts/token/ERC20/ERC20.sol\":7906:7922  to != address(0) */\n      0xffffffffffffffffffffffffffffffffffffffff\n      and\n        /* \"node_modules/@openzeppelin/contracts/token/ERC20/ERC20.sol\":7906:7908  to */\n      dup3\n        /* \"node_modules/@openzeppelin/contracts/token/ERC20/ERC20.sol\":7906:7922  to != address(0) */\n      0xffffffffffffffffffffffffffffffffffffffff\n      and\n      sub\n        /* \"node_modules/@openzeppelin/contracts/token/ERC20/ERC20.sol\":7898:7962  require(to != address(0), \"ERC20: transfer to the zero address\") */\n      tag_175\n      jumpi\n      mload(0x40)\n      0x08c379a000000000000000000000000000000000000000000000000000000000\n      dup2\n      mstore\n      0x04\n      add\n      tag_176\n      swap1\n      tag_177\n      jump\t// in\n    tag_176:\n      mload(0x40)\n      dup1\n      swap2\n      sub\n      swap1\n      revert\n    tag_175:\n        /* \"node_modules/@openzeppelin/contracts/token/ERC20/ERC20.sol\":7973:8011  _beforeTokenTransfer(from, to, amount) */\n      tag_178\n        /* \"node_modules/@openzeppelin/contracts/token/ERC20/ERC20.sol\":7994:7998  from */\n      dup4\n        /* \"node_modules/@openzeppelin/contracts/token/ERC20/ERC20.sol\":8000:8002  to */\n      dup4\n        /* \"node_modules/@openzeppelin/contracts/token/ERC20/ERC20.sol\":8004:8010  amount */\n      dup4\n        /* \"node_modules/@openzeppelin/contracts/token/ERC20/ERC20.sol\":7973:7993  _beforeTokenTransfer */\n      tag_179\n        /* \"node_modules/@openzeppelin/contracts/token/ERC20/ERC20.sol\":7973:8011  _beforeTokenTransfer(from, to, amount) */\n      jump\t// in\n    tag_178:\n        /* \"node_modules/@openzeppelin/contracts/token/ERC20/ERC20.sol\":8022:8041  uint256 fromBalance */\n      0x00\n        /* \"node_modules/@openzeppelin/contracts/token/ERC20/ERC20.sol\":8044:8053  _balances */\n      dup1\n        /* \"node_modules/@openzeppelin/contracts/token/ERC20/ERC20.sol\":8044:8059  _balances[from] */\n      0x00\n        /* \"node_modules/@openzeppelin/contracts/token/ERC20/ERC20.sol\":8054:8058  from */\n      dup6\n        /* \"node_modules/@openzeppelin/contracts/token/ERC20/ERC20.sol\":8044:8059  _balances[from] */\n      0xffffffffffffffffffffffffffffffffffffffff\n      and\n      0xffffffffffffffffffffffffffffffffffffffff\n      and\n      dup2\n      mstore\n      0x20\n      add\n      swap1\n      dup2\n      mstore\n      0x20\n      add\n      0x00\n      keccak256\n      sload\n        /* \"node_modules/@openzeppelin/contracts/token/ERC20/ERC20.sol\":8022:8059  uint256 fromBalance = _balances[from] */\n      swap1\n      pop\n        /* \"node_modules/@openzeppelin/contracts/token/ERC20/ERC20.sol\":8092:8098  amount */\n      dup2\n        /* \"node_modules/@openzeppelin/contracts/token/ERC20/ERC20.sol\":8077:8088  fromBalance */\n      dup2\n        /* \"node_modules/@openzeppelin/contracts/token/ERC20/ERC20.sol\":8077:8098  fromBalance >= amount */\n      lt\n      iszero\n        /* \"node_modules/@openzeppelin/contracts/token/ERC20/ERC20.sol\":8069:8141  require(fromBalance >= amount, \"ERC20: transfer amount exceeds balance\") */\n      tag_180\n      jumpi\n      mload(0x40)\n      0x08c379a000000000000000000000000000000000000000000000000000000000\n      dup2\n      mstore\n      0x04\n      add\n      tag_181\n      swap1\n      tag_182\n      jump\t// in\n    tag_181:\n      mload(0x40)\n      dup1\n      swap2\n      sub\n      swap1\n      revert\n    tag_180:\n        /* \"node_modules/@openzeppelin/contracts/token/ERC20/ERC20.sol\":8207:8213  amount */\n      dup2\n        /* \"node_modules/@openzeppelin/contracts/token/ERC20/ERC20.sol\":8193:8204  fromBalance */\n      dup2\n        /* \"node_modules/@openzeppelin/contracts/token/ERC20/ERC20.sol\":8193:8213  fromBalance - amount */\n      sub\n        /* \"node_modules/@openzeppelin/contracts/token/ERC20/ERC20.sol\":8175:8184  _balances */\n      0x00\n        /* \"node_modules/@openzeppelin/contracts/token/ERC20/ERC20.sol\":8175:8190  _balances[from] */\n      dup1\n        /* \"node_modules/@openzeppelin/contracts/token/ERC20/ERC20.sol\":8185:8189  from */\n      dup7\n        /* \"node_modules/@openzeppelin/contracts/token/ERC20/ERC20.sol\":8175:8190  _balances[from] */\n      0xffffffffffffffffffffffffffffffffffffffff\n      and\n      0xffffffffffffffffffffffffffffffffffffffff\n      and\n      dup2\n      mstore\n      0x20\n      add\n      swap1\n      dup2\n      mstore\n      0x20\n      add\n      0x00\n      keccak256\n        /* \"node_modules/@openzeppelin/contracts/token/ERC20/ERC20.sol\":8175:8213  _balances[from] = fromBalance - amount */\n      dup2\n      swap1\n      sstore\n      pop\n        /* \"node_modules/@openzeppelin/contracts/token/ERC20/ERC20.sol\":8407:8413  amount */\n      dup2\n        /* \"node_modules/@openzeppelin/contracts/token/ERC20/ERC20.sol\":8390:8399  _balances */\n      0x00\n        /* \"node_modules/@openzeppelin/contracts/token/ERC20/ERC20.sol\":8390:8403  _balances[to] */\n      dup1\n        /* \"node_modules/@openzeppelin/contracts/token/ERC20/ERC20.sol\":8400:8402  to */\n      dup6\n        /* \"node_modules/@openzeppelin/contracts/token/ERC20/ERC20.sol\":8390:8403  _balances[to] */\n      0xffffffffffffffffffffffffffffffffffffffff\n      and\n      0xffffffffffffffffffffffffffffffffffffffff\n      and\n      dup2\n      mstore\n      0x20\n      add\n      swap1\n      dup2\n      mstore\n      0x20\n      add\n      0x00\n      keccak256\n      0x00\n        /* \"node_modules/@openzeppelin/contracts/token/ERC20/ERC20.sol\":8390:8413  _balances[to] += amount */\n      dup3\n      dup3\n      sload\n      add\n      swap3\n      pop\n      pop\n      dup2\n      swap1\n      sstore\n      pop\n        /* \"node_modules/@openzeppelin/contracts/token/ERC20/ERC20.sol\":8454:8456  to */\n      dup3\n        /* \"node_modules/@openzeppelin/contracts/token/ERC20/ERC20.sol\":8439:8465  Transfer(from, to, amount) */\n      0xffffffffffffffffffffffffffffffffffffffff\n      and\n        /* \"node_modules/@openzeppelin/contracts/token/ERC20/ERC20.sol\":8448:8452  from */\n      dup5\n        /* \"node_modules/@openzeppelin/contracts/token/ERC20/ERC20.sol\":8439:8465  Transfer(from, to, amount) */\n      0xffffffffffffffffffffffffffffffffffffffff\n      and\n      0xddf252ad1be2c89b69c2b068fc378daa952ba7f163c4a11628f55a4df523b3ef\n        /* \"node_modules/@openzeppelin/contracts/token/ERC20/ERC20.sol\":8458:8464  amount */\n      dup5\n        /* \"node_modules/@openzeppelin/contracts/token/ERC20/ERC20.sol\":8439:8465  Transfer(from, to, amount) */\n      mload(0x40)\n      tag_183\n      swap2\n      swap1\n      tag_37\n      jump\t// in\n    tag_183:\n      mload(0x40)\n      dup1\n      swap2\n      sub\n      swap1\n      log3\n        /* \"node_modules/@openzeppelin/contracts/token/ERC20/ERC20.sol\":8476:8513  _afterTokenTransfer(from, to, amount) */\n      tag_184\n        /* \"node_modules/@openzeppelin/contracts/token/ERC20/ERC20.sol\":8496:8500  from */\n      dup5\n        /* \"node_modules/@openzeppelin/contracts/token/ERC20/ERC20.sol\":8502:8504  to */\n      dup5\n        /* \"node_modules/@openzeppelin/contracts/token/ERC20/ERC20.sol\":8506:8512  amount */\n      dup5\n        /* \"node_modules/@openzeppelin/contracts/token/ERC20/ERC20.sol\":8476:8495  _afterTokenTransfer */\n      tag_185\n        /* \"node_modules/@openzeppelin/contracts/token/ERC20/ERC20.sol\":8476:8513  _afterTokenTransfer(from, to, amount) */\n      jump\t// in\n    tag_184:\n        /* \"node_modules/@openzeppelin/contracts/token/ERC20/ERC20.sol\":7810:8520  {... */\n      pop\n        /* \"node_modules/@openzeppelin/contracts/token/ERC20/ERC20.sol\":7732:8520  function _transfer(address from, address to, uint256 amount) internal virtual {... */\n      pop\n      pop\n      pop\n      jump\t// out\n        /* \"node_modules/@openzeppelin/contracts/token/ERC20/ERC20.sol\":12349:12440  function _beforeTokenTransfer(address from, address to, uint256 amount) internal virtual {} */\n    tag_179:\n      pop\n      pop\n      pop\n      jump\t// out\n        /* \"node_modules/@openzeppelin/contracts/token/ERC20/ERC20.sol\":13028:13118  function _afterTokenTransfer(address from, address to, uint256 amount) internal virtual {} */\n    tag_185:\n      pop\n      pop\n      pop\n      jump\t// out\n        /* \"#utility.yul\":7:106   */\n    tag_188:\n        /* \"#utility.yul\":59:65   */\n      0x00\n        /* \"#utility.yul\":93:98   */\n      dup2\n        /* \"#utility.yul\":87:99   */\n      mload\n        /* \"#utility.yul\":77:99   */\n      swap1\n      pop\n        /* \"#utility.yul\":7:106   */\n      swap2\n      swap1\n      pop\n      jump\t// out\n        /* \"#utility.yul\":112:281   */\n    tag_189:\n        /* \"#utility.yul\":196:207   */\n      0x00\n        /* \"#utility.yul\":230:236   */\n      dup3\n        /* \"#utility.yul\":225:228   */\n      dup3\n        /* \"#utility.yul\":218:237   */\n      mstore\n        /* \"#utility.yul\":270:274   */\n      0x20\n        /* \"#utility.yul\":265:268   */\n      dup3\n        /* \"#utility.yul\":261:275   */\n      add\n        /* \"#utility.yul\":246:275   */\n      swap1\n      pop\n        /* \"#utility.yul\":112:281   */\n      swap3\n      swap2\n      pop\n      pop\n      jump\t// out\n        /* \"#utility.yul\":287:533   */\n    tag_190:\n        /* \"#utility.yul\":368:369   */\n      0x00\n        /* \"#utility.yul\":378:491   */\n    tag_228:\n        /* \"#utility.yul\":392:398   */\n      dup4\n        /* \"#utility.yul\":389:390   */\n      dup2\n        /* \"#utility.yul\":386:399   */\n      lt\n        /* \"#utility.yul\":378:491   */\n      iszero\n      tag_230\n      jumpi\n        /* \"#utility.yul\":477:478   */\n      dup1\n        /* \"#utility.yul\":472:475   */\n      dup3\n        /* \"#utility.yul\":468:479   */\n      add\n        /* \"#utility.yul\":462:480   */\n      mload\n        /* \"#utility.yul\":458:459   */\n      dup2\n        /* \"#utility.yul\":453:456   */\n      dup5\n        /* \"#utility.yul\":449:460   */\n      add\n        /* \"#utility.yul\":442:481   */\n      mstore\n        /* \"#utility.yul\":414:416   */\n      0x20\n        /* \"#utility.yul\":411:412   */\n      dup2\n        /* \"#utility.yul\":407:417   */\n      add\n        /* \"#utility.yul\":402:417   */\n      swap1\n      pop\n        /* \"#utility.yul\":378:491   */\n      jump(tag_228)\n    tag_230:\n        /* \"#utility.yul\":525:526   */\n      0x00\n        /* \"#utility.yul\":516:522   */\n      dup5\n        /* \"#utility.yul\":511:514   */\n      dup5\n        /* \"#utility.yul\":507:523   */\n      add\n        /* \"#utility.yul\":500:527   */\n      mstore\n        /* \"#utility.yul\":349:533   */\n      pop\n        /* \"#utility.yul\":287:533   */\n      pop\n      pop\n      pop\n      jump\t// out\n        /* \"#utility.yul\":539:641   */\n    tag_191:\n        /* \"#utility.yul\":580:586   */\n      0x00\n        /* \"#utility.yul\":631:633   */\n      0x1f\n        /* \"#utility.yul\":627:634   */\n      not\n        /* \"#utility.yul\":622:624   */\n      0x1f\n        /* \"#utility.yul\":615:620   */\n      dup4\n        /* \"#utility.yul\":611:625   */\n      add\n        /* \"#utility.yul\":607:635   */\n      and\n        /* \"#utility.yul\":597:635   */\n      swap1\n      pop\n        /* \"#utility.yul\":539:641   */\n      swap2\n      swap1\n      pop\n      jump\t// out\n        /* \"#utility.yul\":647:1024   */\n    tag_192:\n        /* \"#utility.yul\":735:738   */\n      0x00\n        /* \"#utility.yul\":763:802   */\n      tag_233\n        /* \"#utility.yul\":796:801   */\n      dup3\n        /* \"#utility.yul\":763:802   */\n      tag_188\n      jump\t// in\n    tag_233:\n        /* \"#utility.yul\":818:889   */\n      tag_234\n        /* \"#utility.yul\":882:888   */\n      dup2\n        /* \"#utility.yul\":877:880   */\n      dup6\n        /* \"#utility.yul\":818:889   */\n      tag_189\n      jump\t// in\n    tag_234:\n        /* \"#utility.yul\":811:889   */\n      swap4\n      pop\n        /* \"#utility.yul\":898:963   */\n      tag_235\n        /* \"#utility.yul\":956:962   */\n      dup2\n        /* \"#utility.yul\":951:954   */\n      dup6\n        /* \"#utility.yul\":944:948   */\n      0x20\n        /* \"#utility.yul\":937:942   */\n      dup7\n        /* \"#utility.yul\":933:949   */\n      add\n        /* \"#utility.yul\":898:963   */\n      tag_190\n      jump\t// in\n    tag_235:\n        /* \"#utility.yul\":988:1017   */\n      tag_236\n        /* \"#utility.yul\":1010:1016   */\n      dup2\n        /* \"#utility.yul\":988:1017   */\n      tag_191\n      jump\t// in\n    tag_236:\n        /* \"#utility.yul\":983:986   */\n      dup5\n        /* \"#utility.yul\":979:1018   */\n      add\n        /* \"#utility.yul\":972:1018   */\n      swap2\n      pop\n        /* \"#utility.yul\":739:1024   */\n      pop\n        /* \"#utility.yul\":647:1024   */\n      swap3\n      swap2\n      pop\n      pop\n      jump\t// out\n        /* \"#utility.yul\":1030:1343   */\n    tag_25:\n        /* \"#utility.yul\":1143:1147   */\n      0x00\n        /* \"#utility.yul\":1181:1183   */\n      0x20\n        /* \"#utility.yul\":1170:1179   */\n      dup3\n        /* \"#utility.yul\":1166:1184   */\n      add\n        /* \"#utility.yul\":1158:1184   */\n      swap1\n      pop\n        /* \"#utility.yul\":1230:1239   */\n      dup2\n        /* \"#utility.yul\":1224:1228   */\n      dup2\n        /* \"#utility.yul\":1220:1240   */\n      sub\n        /* \"#utility.yul\":1216:1217   */\n      0x00\n        /* \"#utility.yul\":1205:1214   */\n      dup4\n        /* \"#utility.yul\":1201:1218   */\n      add\n        /* \"#utility.yul\":1194:1241   */\n      mstore\n        /* \"#utility.yul\":1258:1336   */\n      tag_238\n        /* \"#utility.yul\":1331:1335   */\n      dup2\n        /* \"#utility.yul\":1322:1328   */\n      dup5\n        /* \"#utility.yul\":1258:1336   */\n      tag_192\n      jump\t// in\n    tag_238:\n        /* \"#utility.yul\":1250:1336   */\n      swap1\n      pop\n        /* \"#utility.yul\":1030:1343   */\n      swap3\n      swap2\n      pop\n      pop\n      jump\t// out\n        /* \"#utility.yul\":1430:1547   */\n    tag_194:\n        /* \"#utility.yul\":1539:1540   */\n      0x00\n        /* \"#utility.yul\":1536:1537   */\n      dup1\n        /* \"#utility.yul\":1529:1541   */\n      revert\n        /* \"#utility.yul\":1676:1802   */\n    tag_196:\n        /* \"#utility.yul\":1713:1720   */\n      0x00\n        /* \"#utility.yul\":1753:1795   */\n      0xffffffffffffffffffffffffffffffffffffffff\n        /* \"#utility.yul\":1746:1751   */\n      dup3\n        /* \"#utility.yul\":1742:1796   */\n      and\n        /* \"#utility.yul\":1731:1796   */\n      swap1\n      pop\n        /* \"#utility.yul\":1676:1802   */\n      swap2\n      swap1\n      pop\n      jump\t// out\n        /* \"#utility.yul\":1808:1904   */\n    tag_197:\n        /* \"#utility.yul\":1845:1852   */\n      0x00\n        /* \"#utility.yul\":1874:1898   */\n      tag_244\n        /* \"#utility.yul\":1892:1897   */\n      dup3\n        /* \"#utility.yul\":1874:1898   */\n      tag_196\n      jump\t// in\n    tag_244:\n        /* \"#utility.yul\":1863:1898   */\n      swap1\n      pop\n        /* \"#utility.yul\":1808:1904   */\n      swap2\n      swap1\n      pop\n      jump\t// out\n        /* \"#utility.yul\":1910:2032   */\n    tag_198:\n        /* \"#utility.yul\":1983:2007   */\n      tag_246\n        /* \"#utility.yul\":2001:2006   */\n      dup2\n        /* \"#utility.yul\":1983:2007   */\n      tag_197\n      jump\t// in\n    tag_246:\n        /* \"#utility.yul\":1976:1981   */\n      dup2\n        /* \"#utility.yul\":1973:2008   */\n      eq\n        /* \"#utility.yul\":1963:2026   */\n      tag_247\n      jumpi\n        /* \"#utility.yul\":2022:2023   */\n      0x00\n        /* \"#utility.yul\":2019:2020   */\n      dup1\n        /* \"#utility.yul\":2012:2024   */\n      revert\n        /* \"#utility.yul\":1963:2026   */\n    tag_247:\n        /* \"#utility.yul\":1910:2032   */\n      pop\n      jump\t// out\n        /* \"#utility.yul\":2038:2177   */\n    tag_199:\n        /* \"#utility.yul\":2084:2089   */\n      0x00\n        /* \"#utility.yul\":2122:2128   */\n      dup2\n        /* \"#utility.yul\":2109:2129   */\n      calldataload\n        /* \"#utility.yul\":2100:2129   */\n      swap1\n      pop\n        /* \"#utility.yul\":2138:2171   */\n      tag_249\n        /* \"#utility.yul\":2165:2170   */\n      dup2\n        /* \"#utility.yul\":2138:2171   */\n      tag_198\n      jump\t// in\n    tag_249:\n        /* \"#utility.yul\":2038:2177   */\n      swap3\n      swap2\n      pop\n      pop\n      jump\t// out\n        /* \"#utility.yul\":2183:2260   */\n    tag_200:\n        /* \"#utility.yul\":2220:2227   */\n      0x00\n        /* \"#utility.yul\":2249:2254   */\n      dup2\n        /* \"#utility.yul\":2238:2254   */\n      swap1\n      pop\n        /* \"#utility.yul\":2183:2260   */\n      swap2\n      swap1\n      pop\n      jump\t// out\n        /* \"#utility.yul\":2266:2388   */\n    tag_201:\n        /* \"#utility.yul\":2339:2363   */\n      tag_252\n        /* \"#utility.yul\":2357:2362   */\n      dup2\n        /* \"#utility.yul\":2339:2363   */\n      tag_200\n      jump\t// in\n    tag_252:\n        /* \"#utility.yul\":2332:2337   */\n      dup2\n        /* \"#utility.yul\":2329:2364   */\n      eq\n        /* \"#utility.yul\":2319:2382   */\n      tag_253\n      jumpi\n        /* \"#utility.yul\":2378:2379   */\n      0x00\n        /* \"#utility.yul\":2375:2376   */\n      dup1\n        /* \"#utility.yul\":2368:2380   */\n      revert\n        /* \"#utility.yul\":2319:2382   */\n    tag_253:\n        /* \"#utility.yul\":2266:2388   */\n      pop\n      jump\t// out\n        /* \"#utility.yul\":2394:2533   */\n    tag_202:\n        /* \"#utility.yul\":2440:2445   */\n      0x00\n        /* \"#utility.yul\":2478:2484   */\n      dup2\n        /* \"#utility.yul\":2465:2485   */\n      calldataload\n        /* \"#utility.yul\":2456:2485   */\n      swap1\n      pop\n        /* \"#utility.yul\":2494:2527   */\n      tag_255\n        /* \"#utility.yul\":2521:2526   */\n      dup2\n        /* \"#utility.yul\":2494:2527   */\n      tag_201\n      jump\t// in\n    tag_255:\n        /* \"#utility.yul\":2394:2533   */\n      swap3\n      swap2\n      pop\n      pop\n      jump\t// out\n        /* \"#utility.yul\":2539:3013   */\n    tag_29:\n        /* \"#utility.yul\":2607:2613   */\n      0x00\n        /* \"#utility.yul\":2615:2621   */\n      dup1\n        /* \"#utility.yul\":2664:2666   */\n      0x40\n        /* \"#utility.yul\":2652:2661   */\n      dup4\n        /* \"#utility.yul\":2643:2650   */\n      dup6\n        /* \"#utility.yul\":2639:2662   */\n      sub\n        /* \"#utility.yul\":2635:2667   */\n      slt\n        /* \"#utility.yul\":2632:2751   */\n      iszero\n      tag_257\n      jumpi\n        /* \"#utility.yul\":2670:2749   */\n      tag_258\n      tag_194\n      jump\t// in\n    tag_258:\n        /* \"#utility.yul\":2632:2751   */\n    tag_257:\n        /* \"#utility.yul\":2790:2791   */\n      0x00\n        /* \"#utility.yul\":2815:2868   */\n      tag_259\n        /* \"#utility.yul\":2860:2867   */\n      dup6\n        /* \"#utility.yul\":2851:2857   */\n      dup3\n        /* \"#utility.yul\":2840:2849   */\n      dup7\n        /* \"#utility.yul\":2836:2858   */\n      add\n        /* \"#utility.yul\":2815:2868   */\n      tag_199\n      jump\t// in\n    tag_259:\n        /* \"#utility.yul\":2805:2868   */\n      swap3\n      pop\n        /* \"#utility.yul\":2761:2878   */\n      pop\n        /* \"#utility.yul\":2917:2919   */\n      0x20\n        /* \"#utility.yul\":2943:2996   */\n      tag_260\n        /* \"#utility.yul\":2988:2995   */\n      dup6\n        /* \"#utility.yul\":2979:2985   */\n      dup3\n        /* \"#utility.yul\":2968:2977   */\n      dup7\n        /* \"#utility.yul\":2964:2986   */\n      add\n        /* \"#utility.yul\":2943:2996   */\n      tag_202\n      jump\t// in\n    tag_260:\n        /* \"#utility.yul\":2933:2996   */\n      swap2\n      pop\n        /* \"#utility.yul\":2888:3006   */\n      pop\n        /* \"#utility.yul\":2539:3013   */\n      swap3\n      pop\n      swap3\n      swap1\n      pop\n      jump\t// out\n        /* \"#utility.yul\":3019:3109   */\n    tag_203:\n        /* \"#utility.yul\":3053:3060   */\n      0x00\n        /* \"#utility.yul\":3096:3101   */\n      dup2\n        /* \"#utility.yul\":3089:3102   */\n      iszero\n        /* \"#utility.yul\":3082:3103   */\n      iszero\n        /* \"#utility.yul\":3071:3103   */\n      swap1\n      pop\n        /* \"#utility.yul\":3019:3109   */\n      swap2\n      swap1\n      pop\n      jump\t// out\n        /* \"#utility.yul\":3115:3224   */\n    tag_204:\n        /* \"#utility.yul\":3196:3217   */\n      tag_263\n        /* \"#utility.yul\":3211:3216   */\n      dup2\n        /* \"#utility.yul\":3196:3217   */\n      tag_203\n      jump\t// in\n    tag_263:\n        /* \"#utility.yul\":3191:3194   */\n      dup3\n        /* \"#utility.yul\":3184:3218   */\n      mstore\n        /* \"#utility.yul\":3115:3224   */\n      pop\n      pop\n      jump\t// out\n        /* \"#utility.yul\":3230:3440   */\n    tag_32:\n        /* \"#utility.yul\":3317:3321   */\n      0x00\n        /* \"#utility.yul\":3355:3357   */\n      0x20\n        /* \"#utility.yul\":3344:3353   */\n      dup3\n        /* \"#utility.yul\":3340:3358   */\n      add\n        /* \"#utility.yul\":3332:3358   */\n      swap1\n      pop\n        /* \"#utility.yul\":3368:3433   */\n      tag_265\n        /* \"#utility.yul\":3430:3431   */\n      0x00\n        /* \"#utility.yul\":3419:3428   */\n      dup4\n        /* \"#utility.yul\":3415:3432   */\n      add\n        /* \"#utility.yul\":3406:3412   */\n      dup5\n        /* \"#utility.yul\":3368:3433   */\n      tag_204\n      jump\t// in\n    tag_265:\n        /* \"#utility.yul\":3230:3440   */\n      swap3\n      swap2\n      pop\n      pop\n      jump\t// out\n        /* \"#utility.yul\":3446:3564   */\n    tag_205:\n        /* \"#utility.yul\":3533:3557   */\n      tag_267\n        /* \"#utility.yul\":3551:3556   */\n      dup2\n        /* \"#utility.yul\":3533:3557   */\n      tag_200\n      jump\t// in\n    tag_267:\n        /* \"#utility.yul\":3528:3531   */\n      dup3\n        /* \"#utility.yul\":3521:3558   */\n      mstore\n        /* \"#utility.yul\":3446:3564   */\n      pop\n      pop\n      jump\t// out\n        /* \"#utility.yul\":3570:3792   */\n    tag_37:\n        /* \"#utility.yul\":3663:3667   */\n      0x00\n        /* \"#utility.yul\":3701:3703   */\n      0x20\n        /* \"#utility.yul\":3690:3699   */\n      dup3\n        /* \"#utility.yul\":3686:3704   */\n      add\n        /* \"#utility.yul\":3678:3704   */\n      swap1\n      pop\n        /* \"#utility.yul\":3714:3785   */\n      tag_269\n        /* \"#utility.yul\":3782:3783   */\n      0x00\n        /* \"#utility.yul\":3771:3780   */\n      dup4\n        /* \"#utility.yul\":3767:3784   */\n      add\n        /* \"#utility.yul\":3758:3764   */\n      dup5\n        /* \"#utility.yul\":3714:3785   */\n      tag_205\n      jump\t// in\n    tag_269:\n        /* \"#utility.yul\":3570:3792   */\n      swap3\n      swap2\n      pop\n      pop\n      jump\t// out\n        /* \"#utility.yul\":3798:4417   */\n    tag_41:\n        /* \"#utility.yul\":3875:3881   */\n      0x00\n        /* \"#utility.yul\":3883:3889   */\n      dup1\n        /* \"#utility.yul\":3891:3897   */\n      0x00\n        /* \"#utility.yul\":3940:3942   */\n      0x60\n        /* \"#utility.yul\":3928:3937   */\n      dup5\n        /* \"#utility.yul\":3919:3926   */\n      dup7\n        /* \"#utility.yul\":3915:3938   */\n      sub\n        /* \"#utility.yul\":3911:3943   */\n      slt\n        /* \"#utility.yul\":3908:4027   */\n      iszero\n      tag_271\n      jumpi\n        /* \"#utility.yul\":3946:4025   */\n      tag_272\n      tag_194\n      jump\t// in\n    tag_272:\n        /* \"#utility.yul\":3908:4027   */\n    tag_271:\n        /* \"#utility.yul\":4066:4067   */\n      0x00\n        /* \"#utility.yul\":4091:4144   */\n      tag_273\n        /* \"#utility.yul\":4136:4143   */\n      dup7\n        /* \"#utility.yul\":4127:4133   */\n      dup3\n        /* \"#utility.yul\":4116:4125   */\n      dup8\n        /* \"#utility.yul\":4112:4134   */\n      add\n        /* \"#utility.yul\":4091:4144   */\n      tag_199\n      jump\t// in\n    tag_273:\n        /* \"#utility.yul\":4081:4144   */\n      swap4\n      pop\n        /* \"#utility.yul\":4037:4154   */\n      pop\n        /* \"#utility.yul\":4193:4195   */\n      0x20\n        /* \"#utility.yul\":4219:4272   */\n      tag_274\n        /* \"#utility.yul\":4264:4271   */\n      dup7\n        /* \"#utility.yul\":4255:4261   */\n      dup3\n        /* \"#utility.yul\":4244:4253   */\n      dup8\n        /* \"#utility.yul\":4240:4262   */\n      add\n        /* \"#utility.yul\":4219:4272   */\n      tag_199\n      jump\t// in\n    tag_274:\n        /* \"#utility.yul\":4209:4272   */\n      swap3\n      pop\n        /* \"#utility.yul\":4164:4282   */\n      pop\n        /* \"#utility.yul\":4321:4323   */\n      0x40\n        /* \"#utility.yul\":4347:4400   */\n      tag_275\n        /* \"#utility.yul\":4392:4399   */\n      dup7\n        /* \"#utility.yul\":4383:4389   */\n      dup3\n        /* \"#utility.yul\":4372:4381   */\n      dup8\n        /* \"#utility.yul\":4368:4390   */\n      add\n        /* \"#utility.yul\":4347:4400   */\n      tag_202\n      jump\t// in\n    tag_275:\n        /* \"#utility.yul\":4337:4400   */\n      swap2\n      pop\n        /* \"#utility.yul\":4292:4410   */\n      pop\n        /* \"#utility.yul\":3798:4417   */\n      swap3\n      pop\n      swap3\n      pop\n      swap3\n      jump\t// out\n        /* \"#utility.yul\":4423:4509   */\n    tag_206:\n        /* \"#utility.yul\":4458:4465   */\n      0x00\n        /* \"#utility.yul\":4498:4502   */\n      0xff\n        /* \"#utility.yul\":4491:4496   */\n      dup3\n        /* \"#utility.yul\":4487:4503   */\n      and\n        /* \"#utility.yul\":4476:4503   */\n      swap1\n      pop\n        /* \"#utility.yul\":4423:4509   */\n      swap2\n      swap1\n      pop\n      jump\t// out\n        /* \"#utility.yul\":4515:4627   */\n    tag_207:\n        /* \"#utility.yul\":4598:4620   */\n      tag_278\n        /* \"#utility.yul\":4614:4619   */\n      dup2\n        /* \"#utility.yul\":4598:4620   */\n      tag_206\n      jump\t// in\n    tag_278:\n        /* \"#utility.yul\":4593:4596   */\n      dup3\n        /* \"#utility.yul\":4586:4621   */\n      mstore\n        /* \"#utility.yul\":4515:4627   */\n      pop\n      pop\n      jump\t// out\n        /* \"#utility.yul\":4633:4847   */\n    tag_48:\n        /* \"#utility.yul\":4722:4726   */\n      0x00\n        /* \"#utility.yul\":4760:4762   */\n      0x20\n        /* \"#utility.yul\":4749:4758   */\n      dup3\n        /* \"#utility.yul\":4745:4763   */\n      add\n        /* \"#utility.yul\":4737:4763   */\n      swap1\n      pop\n        /* \"#utility.yul\":4773:4840   */\n      tag_280\n        /* \"#utility.yul\":4837:4838   */\n      0x00\n        /* \"#utility.yul\":4826:4835   */\n      dup4\n        /* \"#utility.yul\":4822:4839   */\n      add\n        /* \"#utility.yul\":4813:4819   */\n      dup5\n        /* \"#utility.yul\":4773:4840   */\n      tag_207\n      jump\t// in\n    tag_280:\n        /* \"#utility.yul\":4633:4847   */\n      swap3\n      swap2\n      pop\n      pop\n      jump\t// out\n        /* \"#utility.yul\":4853:5182   */\n    tag_64:\n        /* \"#utility.yul\":4912:4918   */\n      0x00\n        /* \"#utility.yul\":4961:4963   */\n      0x20\n        /* \"#utility.yul\":4949:4958   */\n      dup3\n        /* \"#utility.yul\":4940:4947   */\n      dup5\n        /* \"#utility.yul\":4936:4959   */\n      sub\n        /* \"#utility.yul\":4932:4964   */\n      slt\n        /* \"#utility.yul\":4929:5048   */\n      iszero\n      tag_282\n      jumpi\n        /* \"#utility.yul\":4967:5046   */\n      tag_283\n      tag_194\n      jump\t// in\n    tag_283:\n        /* \"#utility.yul\":4929:5048   */\n    tag_282:\n        /* \"#utility.yul\":5087:5088   */\n      0x00\n        /* \"#utility.yul\":5112:5165   */\n      tag_284\n        /* \"#utility.yul\":5157:5164   */\n      dup5\n        /* \"#utility.yul\":5148:5154   */\n      dup3\n        /* \"#utility.yul\":5137:5146   */\n      dup6\n        /* \"#utility.yul\":5133:5155   */\n      add\n        /* \"#utility.yul\":5112:5165   */\n      tag_199\n      jump\t// in\n    tag_284:\n        /* \"#utility.yul\":5102:5165   */\n      swap2\n      pop\n        /* \"#utility.yul\":5058:5175   */\n      pop\n        /* \"#utility.yul\":4853:5182   */\n      swap3\n      swap2\n      pop\n      pop\n      jump\t// out\n        /* \"#utility.yul\":5188:5662   */\n    tag_96:\n        /* \"#utility.yul\":5256:5262   */\n      0x00\n        /* \"#utility.yul\":5264:5270   */\n      dup1\n        /* \"#utility.yul\":5313:5315   */\n      0x40\n        /* \"#utility.yul\":5301:5310   */\n      dup4\n        /* \"#utility.yul\":5292:5299   */\n      dup6\n        /* \"#utility.yul\":5288:5311   */\n      sub\n        /* \"#utility.yul\":5284:5316   */\n      slt\n        /* \"#utility.yul\":5281:5400   */\n      iszero\n      tag_286\n      jumpi\n        /* \"#utility.yul\":5319:5398   */\n      tag_287\n      tag_194\n      jump\t// in\n    tag_287:\n        /* \"#utility.yul\":5281:5400   */\n    tag_286:\n        /* \"#utility.yul\":5439:5440   */\n      0x00\n        /* \"#utility.yul\":5464:5517   */\n      tag_288\n        /* \"#utility.yul\":5509:5516   */\n      dup6\n        /* \"#utility.yul\":5500:5506   */\n      dup3\n        /* \"#utility.yul\":5489:5498   */\n      dup7\n        /* \"#utility.yul\":5485:5507   */\n      add\n        /* \"#utility.yul\":5464:5517   */\n      tag_199\n      jump\t// in\n    tag_288:\n        /* \"#utility.yul\":5454:5517   */\n      swap3\n      pop\n        /* \"#utility.yul\":5410:5527   */\n      pop\n        /* \"#utility.yul\":5566:5568   */\n      0x20\n        /* \"#utility.yul\":5592:5645   */\n      tag_289\n        /* \"#utility.yul\":5637:5644   */\n      dup6\n        /* \"#utility.yul\":5628:5634   */\n      dup3\n        /* \"#utility.yul\":5617:5626   */\n      dup7\n        /* \"#utility.yul\":5613:5635   */\n      add\n        /* \"#utility.yul\":5592:5645   */\n      tag_199\n      jump\t// in\n    tag_289:\n        /* \"#utility.yul\":5582:5645   */\n      swap2\n      pop\n        /* \"#utility.yul\":5537:5655   */\n      pop\n        /* \"#utility.yul\":5188:5662   */\n      swap3\n      pop\n      swap3\n      swap1\n      pop\n      jump\t// out\n        /* \"#utility.yul\":5668:5848   */\n    tag_208:\n        /* \"#utility.yul\":5716:5793   */\n      0x4e487b7100000000000000000000000000000000000000000000000000000000\n        /* \"#utility.yul\":5713:5714   */\n      0x00\n        /* \"#utility.yul\":5706:5794   */\n      mstore\n        /* \"#utility.yul\":5813:5817   */\n      0x22\n        /* \"#utility.yul\":5810:5811   */\n      0x04\n        /* \"#utility.yul\":5803:5818   */\n      mstore\n        /* \"#utility.yul\":5837:5841   */\n      0x24\n        /* \"#utility.yul\":5834:5835   */\n      0x00\n        /* \"#utility.yul\":5827:5842   */\n      revert\n        /* \"#utility.yul\":5854:6174   */\n    tag_101:\n        /* \"#utility.yul\":5898:5904   */\n      0x00\n        /* \"#utility.yul\":5935:5936   */\n      0x02\n        /* \"#utility.yul\":5929:5933   */\n      dup3\n        /* \"#utility.yul\":5925:5937   */\n      div\n        /* \"#utility.yul\":5915:5937   */\n      swap1\n      pop\n        /* \"#utility.yul\":5982:5983   */\n      0x01\n        /* \"#utility.yul\":5976:5980   */\n      dup3\n        /* \"#utility.yul\":5972:5984   */\n      and\n        /* \"#utility.yul\":6003:6021   */\n      dup1\n        /* \"#utility.yul\":5993:6074   */\n      tag_292\n      jumpi\n        /* \"#utility.yul\":6059:6063   */\n      0x7f\n        /* \"#utility.yul\":6051:6057   */\n      dup3\n        /* \"#utility.yul\":6047:6064   */\n      and\n        /* \"#utility.yul\":6037:6064   */\n      swap2\n      pop\n        /* \"#utility.yul\":5993:6074   */\n    tag_292:\n        /* \"#utility.yul\":6121:6123   */\n      0x20\n        /* \"#utility.yul\":6113:6119   */\n      dup3\n        /* \"#utility.yul\":6110:6124   */\n      lt\n        /* \"#utility.yul\":6090:6108   */\n      dup2\n        /* \"#utility.yul\":6087:6125   */\n      sub\n        /* \"#utility.yul\":6084:6168   */\n      tag_293\n      jumpi\n        /* \"#utility.yul\":6140:6158   */\n      tag_294\n      tag_208\n      jump\t// in\n    tag_294:\n        /* \"#utility.yul\":6084:6168   */\n    tag_293:\n        /* \"#utility.yul\":5905:6174   */\n      pop\n        /* \"#utility.yul\":5854:6174   */\n      swap2\n      swap1\n      pop\n      jump\t// out\n        /* \"#utility.yul\":6180:6360   */\n    tag_209:\n        /* \"#utility.yul\":6228:6305   */\n      0x4e487b7100000000000000000000000000000000000000000000000000000000\n        /* \"#utility.yul\":6225:6226   */\n      0x00\n        /* \"#utility.yul\":6218:6306   */\n      mstore\n        /* \"#utility.yul\":6325:6329   */\n      0x11\n        /* \"#utility.yul\":6322:6323   */\n      0x04\n        /* \"#utility.yul\":6315:6330   */\n      mstore\n        /* \"#utility.yul\":6349:6353   */\n      0x24\n        /* \"#utility.yul\":6346:6347   */\n      0x00\n        /* \"#utility.yul\":6339:6354   */\n      revert\n        /* \"#utility.yul\":6366:6557   */\n    tag_124:\n        /* \"#utility.yul\":6406:6409   */\n      0x00\n        /* \"#utility.yul\":6425:6445   */\n      tag_297\n        /* \"#utility.yul\":6443:6444   */\n      dup3\n        /* \"#utility.yul\":6425:6445   */\n      tag_200\n      jump\t// in\n    tag_297:\n        /* \"#utility.yul\":6420:6445   */\n      swap2\n      pop\n        /* \"#utility.yul\":6459:6479   */\n      tag_298\n        /* \"#utility.yul\":6477:6478   */\n      dup4\n        /* \"#utility.yul\":6459:6479   */\n      tag_200\n      jump\t// in\n    tag_298:\n        /* \"#utility.yul\":6454:6479   */\n      swap3\n      pop\n        /* \"#utility.yul\":6502:6503   */\n      dup3\n        /* \"#utility.yul\":6499:6500   */\n      dup3\n        /* \"#utility.yul\":6495:6504   */\n      add\n        /* \"#utility.yul\":6488:6504   */\n      swap1\n      pop\n        /* \"#utility.yul\":6523:6526   */\n      dup1\n        /* \"#utility.yul\":6520:6521   */\n      dup3\n        /* \"#utility.yul\":6517:6527   */\n      gt\n        /* \"#utility.yul\":6514:6550   */\n      iszero\n      tag_299\n      jumpi\n        /* \"#utility.yul\":6530:6548   */\n      tag_300\n      tag_209\n      jump\t// in\n    tag_300:\n        /* \"#utility.yul\":6514:6550   */\n    tag_299:\n        /* \"#utility.yul\":6366:6557   */\n      swap3\n      swap2\n      pop\n      pop\n      jump\t// out\n        /* \"#utility.yul\":6563:6787   */\n    tag_210:\n        /* \"#utility.yul\":6703:6737   */\n      0x45524332303a2064656372656173656420616c6c6f77616e63652062656c6f77\n        /* \"#utility.yul\":6699:6700   */\n      0x00\n        /* \"#utility.yul\":6691:6697   */\n      dup3\n        /* \"#utility.yul\":6687:6701   */\n      add\n        /* \"#utility.yul\":6680:6738   */\n      mstore\n        /* \"#utility.yul\":6772:6779   */\n      0x207a65726f000000000000000000000000000000000000000000000000000000\n        /* \"#utility.yul\":6767:6769   */\n      0x20\n        /* \"#utility.yul\":6759:6765   */\n      dup3\n        /* \"#utility.yul\":6755:6770   */\n      add\n        /* \"#utility.yul\":6748:6780   */\n      mstore\n        /* \"#utility.yul\":6563:6787   */\n      pop\n      jump\t// out\n        /* \"#utility.yul\":6793:7159   */\n    tag_211:\n        /* \"#utility.yul\":6935:6938   */\n      0x00\n        /* \"#utility.yul\":6956:7023   */\n      tag_303\n        /* \"#utility.yul\":7020:7022   */\n      0x25\n        /* \"#utility.yul\":7015:7018   */\n      dup4\n        /* \"#utility.yul\":6956:7023   */\n      tag_189\n      jump\t// in\n    tag_303:\n        /* \"#utility.yul\":6949:7023   */\n      swap2\n      pop\n        /* \"#utility.yul\":7032:7125   */\n      tag_304\n        /* \"#utility.yul\":7121:7124   */\n      dup3\n        /* \"#utility.yul\":7032:7125   */\n      tag_210\n      jump\t// in\n    tag_304:\n        /* \"#utility.yul\":7150:7152   */\n      0x40\n        /* \"#utility.yul\":7145:7148   */\n      dup3\n        /* \"#utility.yul\":7141:7153   */\n      add\n        /* \"#utility.yul\":7134:7153   */\n      swap1\n      pop\n        /* \"#utility.yul\":6793:7159   */\n      swap2\n      swap1\n      pop\n      jump\t// out\n        /* \"#utility.yul\":7165:7584   */\n    tag_140:\n        /* \"#utility.yul\":7331:7335   */\n      0x00\n        /* \"#utility.yul\":7369:7371   */\n      0x20\n        /* \"#utility.yul\":7358:7367   */\n      dup3\n        /* \"#utility.yul\":7354:7372   */\n      add\n        /* \"#utility.yul\":7346:7372   */\n      swap1\n      pop\n        /* \"#utility.yul\":7418:7427   */\n      dup2\n        /* \"#utility.yul\":7412:7416   */\n      dup2\n        /* \"#utility.yul\":7408:7428   */\n      sub\n        /* \"#utility.yul\":7404:7405   */\n      0x00\n        /* \"#utility.yul\":7393:7402   */\n      dup4\n        /* \"#utility.yul\":7389:7406   */\n      add\n        /* \"#utility.yul\":7382:7429   */\n      mstore\n        /* \"#utility.yul\":7446:7577   */\n      tag_306\n        /* \"#utility.yul\":7572:7576   */\n      dup2\n        /* \"#utility.yul\":7446:7577   */\n      tag_211\n      jump\t// in\n    tag_306:\n        /* \"#utility.yul\":7438:7577   */\n      swap1\n      pop\n        /* \"#utility.yul\":7165:7584   */\n      swap2\n      swap1\n      pop\n      jump\t// out\n        /* \"#utility.yul\":7590:7813   */\n    tag_212:\n        /* \"#utility.yul\":7730:7764   */\n      0x45524332303a20617070726f76652066726f6d20746865207a65726f20616464\n        /* \"#utility.yul\":7726:7727   */\n      0x00\n        /* \"#utility.yul\":7718:7724   */\n      dup3\n        /* \"#utility.yul\":7714:7728   */\n      add\n        /* \"#utility.yul\":7707:7765   */\n      mstore\n        /* \"#utility.yul\":7799:7805   */\n      0x7265737300000000000000000000000000000000000000000000000000000000\n        /* \"#utility.yul\":7794:7796   */\n      0x20\n        /* \"#utility.yul\":7786:7792   */\n      dup3\n        /* \"#utility.yul\":7782:7797   */\n      add\n        /* \"#utility.yul\":7775:7806   */\n      mstore\n        /* \"#utility.yul\":7590:7813   */\n      pop\n      jump\t// out\n        /* \"#utility.yul\":7819:8185   */\n    tag_213:\n        /* \"#utility.yul\":7961:7964   */\n      0x00\n        /* \"#utility.yul\":7982:8049   */\n      tag_309\n        /* \"#utility.yul\":8046:8048   */\n      0x24\n        /* \"#utility.yul\":8041:8044   */\n      dup4\n        /* \"#utility.yul\":7982:8049   */\n      tag_189\n      jump\t// in\n    tag_309:\n        /* \"#utility.yul\":7975:8049   */\n      swap2\n      pop\n        /* \"#utility.yul\":8058:8151   */\n      tag_310\n        /* \"#utility.yul\":8147:8150   */\n      dup3\n        /* \"#utility.yul\":8058:8151   */\n      tag_212\n      jump\t// in\n    tag_310:\n        /* \"#utility.yul\":8176:8178   */\n      0x40\n        /* \"#utility.yul\":8171:8174   */\n      dup3\n        /* \"#utility.yul\":8167:8179   */\n      add\n        /* \"#utility.yul\":8160:8179   */\n      swap1\n      pop\n        /* \"#utility.yul\":7819:8185   */\n      swap2\n      swap1\n      pop\n      jump\t// out\n        /* \"#utility.yul\":8191:8610   */\n    tag_159:\n        /* \"#utility.yul\":8357:8361   */\n      0x00\n        /* \"#utility.yul\":8395:8397   */\n      0x20\n        /* \"#utility.yul\":8384:8393   */\n      dup3\n        /* \"#utility.yul\":8380:8398   */\n      add\n        /* \"#utility.yul\":8372:8398   */\n      swap1\n      pop\n        /* \"#utility.yul\":8444:8453   */\n      dup2\n        /* \"#utility.yul\":8438:8442   */\n      dup2\n        /* \"#utility.yul\":8434:8454   */\n      sub\n        /* \"#utility.yul\":8430:8431   */\n      0x00\n        /* \"#utility.yul\":8419:8428   */\n      dup4\n        /* \"#utility.yul\":8415:8432   */\n      add\n        /* \"#utility.yul\":8408:8455   */\n      mstore\n        /* \"#utility.yul\":8472:8603   */\n      tag_312\n        /* \"#utility.yul\":8598:8602   */\n      dup2\n        /* \"#utility.yul\":8472:8603   */\n      tag_213\n      jump\t// in\n    tag_312:\n        /* \"#utility.yul\":8464:8603   */\n      swap1\n      pop\n        /* \"#utility.yul\":8191:8610   */\n      swap2\n      swap1\n      pop\n      jump\t// out\n        /* \"#utility.yul\":8616:8837   */\n    tag_214:\n        /* \"#utility.yul\":8756:8790   */\n      0x45524332303a20617070726f766520746f20746865207a65726f206164647265\n        /* \"#utility.yul\":8752:8753   */\n      0x00\n        /* \"#utility.yul\":8744:8750   */\n      dup3\n        /* \"#utility.yul\":8740:8754   */\n      add\n        /* \"#utility.yul\":8733:8791   */\n      mstore\n        /* \"#utility.yul\":8825:8829   */\n      0x7373000000000000000000000000000000000000000000000000000000000000\n        /* \"#utility.yul\":8820:8822   */\n      0x20\n        /* \"#utility.yul\":8812:8818   */\n      dup3\n        /* \"#utility.yul\":8808:8823   */\n      add\n        /* \"#utility.yul\":8801:8830   */\n      mstore\n        /* \"#utility.yul\":8616:8837   */\n      pop\n      jump\t// out\n        /* \"#utility.yul\":8843:9209   */\n    tag_215:\n        /* \"#utility.yul\":8985:8988   */\n      0x00\n        /* \"#utility.yul\":9006:9073   */\n      tag_315\n        /* \"#utility.yul\":9070:9072   */\n      0x22\n        /* \"#utility.yul\":9065:9068   */\n      dup4\n        /* \"#utility.yul\":9006:9073   */\n      tag_189\n      jump\t// in\n    tag_315:\n        /* \"#utility.yul\":8999:9073   */\n      swap2\n      pop\n        /* \"#utility.yul\":9082:9175   */\n      tag_316\n        /* \"#utility.yul\":9171:9174   */\n      dup3\n        /* \"#utility.yul\":9082:9175   */\n      tag_214\n      jump\t// in\n    tag_316:\n        /* \"#utility.yul\":9200:9202   */\n      0x40\n        /* \"#utility.yul\":9195:9198   */\n      dup3\n        /* \"#utility.yul\":9191:9203   */\n      add\n        /* \"#utility.yul\":9184:9203   */\n      swap1\n      pop\n        /* \"#utility.yul\":8843:9209   */\n      swap2\n      swap1\n      pop\n      jump\t// out\n        /* \"#utility.yul\":9215:9634   */\n    tag_162:\n        /* \"#utility.yul\":9381:9385   */\n      0x00\n        /* \"#utility.yul\":9419:9421   */\n      0x20\n        /* \"#utility.yul\":9408:9417   */\n      dup3\n        /* \"#utility.yul\":9404:9422   */\n      add\n        /* \"#utility.yul\":9396:9422   */\n      swap1\n      pop\n        /* \"#utility.yul\":9468:9477   */\n      dup2\n        /* \"#utility.yul\":9462:9466   */\n      dup2\n        /* \"#utility.yul\":9458:9478   */\n      sub\n        /* \"#utility.yul\":9454:9455   */\n      0x00\n        /* \"#utility.yul\":9443:9452   */\n      dup4\n        /* \"#utility.yul\":9439:9456   */\n      add\n        /* \"#utility.yul\":9432:9479   */\n      mstore\n        /* \"#utility.yul\":9496:9627   */\n      tag_318\n        /* \"#utility.yul\":9622:9626   */\n      dup2\n        /* \"#utility.yul\":9496:9627   */\n      tag_215\n      jump\t// in\n    tag_318:\n        /* \"#utility.yul\":9488:9627   */\n      swap1\n      pop\n        /* \"#utility.yul\":9215:9634   */\n      swap2\n      swap1\n      pop\n      jump\t// out\n        /* \"#utility.yul\":9640:9819   */\n    tag_216:\n        /* \"#utility.yul\":9780:9811   */\n      0x45524332303a20696e73756666696369656e7420616c6c6f77616e6365000000\n        /* \"#utility.yul\":9776:9777   */\n      0x00\n        /* \"#utility.yul\":9768:9774   */\n      dup3\n        /* \"#utility.yul\":9764:9778   */\n      add\n        /* \"#utility.yul\":9757:9812   */\n      mstore\n        /* \"#utility.yul\":9640:9819   */\n      pop\n      jump\t// out\n        /* \"#utility.yul\":9825:10191   */\n    tag_217:\n        /* \"#utility.yul\":9967:9970   */\n      0x00\n        /* \"#utility.yul\":9988:10055   */\n      tag_321\n        /* \"#utility.yul\":10052:10054   */\n      0x1d\n        /* \"#utility.yul\":10047:10050   */\n      dup4\n        /* \"#utility.yul\":9988:10055   */\n      tag_189\n      jump\t// in\n    tag_321:\n        /* \"#utility.yul\":9981:10055   */\n      swap2\n      pop\n        /* \"#utility.yul\":10064:10157   */\n      tag_322\n        /* \"#utility.yul\":10153:10156   */\n      dup3\n        /* \"#utility.yul\":10064:10157   */\n      tag_216\n      jump\t// in\n    tag_322:\n        /* \"#utility.yul\":10182:10184   */\n      0x20\n        /* \"#utility.yul\":10177:10180   */\n      dup3\n        /* \"#utility.yul\":10173:10185   */\n      add\n        /* \"#utility.yul\":10166:10185   */\n      swap1\n      pop\n        /* \"#utility.yul\":9825:10191   */\n      swap2\n      swap1\n      pop\n      jump\t// out\n        /* \"#utility.yul\":10197:10616   */\n    tag_169:\n        /* \"#utility.yul\":10363:10367   */\n      0x00\n        /* \"#utility.yul\":10401:10403   */\n      0x20\n        /* \"#utility.yul\":10390:10399   */\n      dup3\n        /* \"#utility.yul\":10386:10404   */\n      add\n        /* \"#utility.yul\":10378:10404   */\n      swap1\n      pop\n        /* \"#utility.yul\":10450:10459   */\n      dup2\n        /* \"#utility.yul\":10444:10448   */\n      dup2\n        /* \"#utility.yul\":10440:10460   */\n      sub\n        /* \"#utility.yul\":10436:10437   */\n      0x00\n        /* \"#utility.yul\":10425:10434   */\n      dup4\n        /* \"#utility.yul\":10421:10438   */\n      add\n        /* \"#utility.yul\":10414:10461   */\n      mstore\n        /* \"#utility.yul\":10478:10609   */\n      tag_324\n        /* \"#utility.yul\":10604:10608   */\n      dup2\n        /* \"#utility.yul\":10478:10609   */\n      tag_217\n      jump\t// in\n    tag_324:\n        /* \"#utility.yul\":10470:10609   */\n      swap1\n      pop\n        /* \"#utility.yul\":10197:10616   */\n      swap2\n      swap1\n      pop\n      jump\t// out\n        /* \"#utility.yul\":10622:10846   */\n    tag_218:\n        /* \"#utility.yul\":10762:10796   */\n      0x45524332303a207472616e736665722066726f6d20746865207a65726f206164\n        /* \"#utility.yul\":10758:10759   */\n      0x00\n        /* \"#utility.yul\":10750:10756   */\n      dup3\n        /* \"#utility.yul\":10746:10760   */\n      add\n        /* \"#utility.yul\":10739:10797   */\n      mstore\n        /* \"#utility.yul\":10831:10838   */\n      0x6472657373000000000000000000000000000000000000000000000000000000\n        /* \"#utility.yul\":10826:10828   */\n      0x20\n        /* \"#utility.yul\":10818:10824   */\n      dup3\n        /* \"#utility.yul\":10814:10829   */\n      add\n        /* \"#utility.yul\":10807:10839   */\n      mstore\n        /* \"#utility.yul\":10622:10846   */\n      pop\n      jump\t// out\n        /* \"#utility.yul\":10852:11218   */\n    tag_219:\n        /* \"#utility.yul\":10994:10997   */\n      0x00\n        /* \"#utility.yul\":11015:11082   */\n      tag_327\n        /* \"#utility.yul\":11079:11081   */\n      0x25\n        /* \"#utility.yul\":11074:11077   */\n      dup4\n        /* \"#utility.yul\":11015:11082   */\n      tag_189\n      jump\t// in\n    tag_327:\n        /* \"#utility.yul\":11008:11082   */\n      swap2\n      pop\n        /* \"#utility.yul\":11091:11184   */\n      tag_328\n        /* \"#utility.yul\":11180:11183   */\n      dup3\n        /* \"#utility.yul\":11091:11184   */\n      tag_218\n      jump\t// in\n    tag_328:\n        /* \"#utility.yul\":11209:11211   */\n      0x40\n        /* \"#utility.yul\":11204:11207   */\n      dup3\n        /* \"#utility.yul\":11200:11212   */\n      add\n        /* \"#utility.yul\":11193:11212   */\n      swap1\n      pop\n        /* \"#utility.yul\":10852:11218   */\n      swap2\n      swap1\n      pop\n      jump\t// out\n        /* \"#utility.yul\":11224:11643   */\n    tag_174:\n        /* \"#utility.yul\":11390:11394   */\n      0x00\n        /* \"#utility.yul\":11428:11430   */\n      0x20\n        /* \"#utility.yul\":11417:11426   */\n      dup3\n        /* \"#utility.yul\":11413:11431   */\n      add\n        /* \"#utility.yul\":11405:11431   */\n      swap1\n      pop\n        /* \"#utility.yul\":11477:11486   */\n      dup2\n        /* \"#utility.yul\":11471:11475   */\n      dup2\n        /* \"#utility.yul\":11467:11487   */\n      sub\n        /* \"#utility.yul\":11463:11464   */\n      0x00\n        /* \"#utility.yul\":11452:11461   */\n      dup4\n        /* \"#utility.yul\":11448:11465   */\n      add\n        /* \"#utility.yul\":11441:11488   */\n      mstore\n        /* \"#utility.yul\":11505:11636   */\n      tag_330\n        /* \"#utility.yul\":11631:11635   */\n      dup2\n        /* \"#utility.yul\":11505:11636   */\n      tag_219\n      jump\t// in\n    tag_330:\n        /* \"#utility.yul\":11497:11636   */\n      swap1\n      pop\n        /* \"#utility.yul\":11224:11643   */\n      swap2\n      swap1\n      pop\n      jump\t// out\n        /* \"#utility.yul\":11649:11871   */\n    tag_220:\n        /* \"#utility.yul\":11789:11823   */\n      0x45524332303a207472616e7366657220746f20746865207a65726f2061646472\n        /* \"#utility.yul\":11785:11786   */\n      0x00\n        /* \"#utility.yul\":11777:11783   */\n      dup3\n        /* \"#utility.yul\":11773:11787   */\n      add\n        /* \"#utility.yul\":11766:11824   */\n      mstore\n        /* \"#utility.yul\":11858:11863   */\n      0x6573730000000000000000000000000000000000000000000000000000000000\n        /* \"#utility.yul\":11853:11855   */\n      0x20\n        /* \"#utility.yul\":11845:11851   */\n      dup3\n        /* \"#utility.yul\":11841:11856   */\n      add\n        /* \"#utility.yul\":11834:11864   */\n      mstore\n        /* \"#utility.yul\":11649:11871   */\n      pop\n      jump\t// out\n        /* \"#utility.yul\":11877:12243   */\n    tag_221:\n        /* \"#utility.yul\":12019:12022   */\n      0x00\n        /* \"#utility.yul\":12040:12107   */\n      tag_333\n        /* \"#utility.yul\":12104:12106   */\n      0x23\n        /* \"#utility.yul\":12099:12102   */\n      dup4\n        /* \"#utility.yul\":12040:12107   */\n      tag_189\n      jump\t// in\n    tag_333:\n        /* \"#utility.yul\":12033:12107   */\n      swap2\n      pop\n        /* \"#utility.yul\":12116:12209   */\n      tag_334\n        /* \"#utility.yul\":12205:12208   */\n      dup3\n        /* \"#utility.yul\":12116:12209   */\n      tag_220\n      jump\t// in\n    tag_334:\n        /* \"#utility.yul\":12234:12236   */\n      0x40\n        /* \"#utility.yul\":12229:12232   */\n      dup3\n        /* \"#utility.yul\":12225:12237   */\n      add\n        /* \"#utility.yul\":12218:12237   */\n      swap1\n      pop\n        /* \"#utility.yul\":11877:12243   */\n      swap2\n      swap1\n      pop\n      jump\t// out\n        /* \"#utility.yul\":12249:12668   */\n    tag_177:\n        /* \"#utility.yul\":12415:12419   */\n      0x00\n        /* \"#utility.yul\":12453:12455   */\n      0x20\n        /* \"#utility.yul\":12442:12451   */\n      dup3\n        /* \"#utility.yul\":12438:12456   */\n      add\n        /* \"#utility.yul\":12430:12456   */\n      swap1\n      pop\n        /* \"#utility.yul\":12502:12511   */\n      dup2\n        /* \"#utility.yul\":12496:12500   */\n      dup2\n        /* \"#utility.yul\":12492:12512   */\n      sub\n        /* \"#utility.yul\":12488:12489   */\n      0x00\n        /* \"#utility.yul\":12477:12486   */\n      dup4\n        /* \"#utility.yul\":12473:12490   */\n      add\n        /* \"#utility.yul\":12466:12513   */\n      mstore\n        /* \"#utility.yul\":12530:12661   */\n      tag_336\n        /* \"#utility.yul\":12656:12660   */\n      dup2\n        /* \"#utility.yul\":12530:12661   */\n      tag_221\n      jump\t// in\n    tag_336:\n        /* \"#utility.yul\":12522:12661   */\n      swap1\n      pop\n        /* \"#utility.yul\":12249:12668   */\n      swap2\n      swap1\n      pop\n      jump\t// out\n        /* \"#utility.yul\":12674:12899   */\n    tag_222:\n        /* \"#utility.yul\":12814:12848   */\n      0x45524332303a207472616e7366657220616d6f756e7420657863656564732062\n        /* \"#utility.yul\":12810:12811   */\n      0x00\n        /* \"#utility.yul\":12802:12808   */\n      dup3\n        /* \"#utility.yul\":12798:12812   */\n      add\n        /* \"#utility.yul\":12791:12849   */\n      mstore\n        /* \"#utility.yul\":12883:12891   */\n      0x616c616e63650000000000000000000000000000000000000000000000000000\n        /* \"#utility.yul\":12878:12880   */\n      0x20\n        /* \"#utility.yul\":12870:12876   */\n      dup3\n        /* \"#utility.yul\":12866:12881   */\n      add\n        /* \"#utility.yul\":12859:12892   */\n      mstore\n        /* \"#utility.yul\":12674:12899   */\n      pop\n      jump\t// out\n        /* \"#utility.yul\":12905:13271   */\n    tag_223:\n        /* \"#utility.yul\":13047:13050   */\n      0x00\n        /* \"#utility.yul\":13068:13135   */\n      tag_339\n        /* \"#utility.yul\":13132:13134   */\n      0x26\n        /* \"#utility.yul\":13127:13130   */\n      dup4\n        /* \"#utility.yul\":13068:13135   */\n      tag_189\n      jump\t// in\n    tag_339:\n        /* \"#utility.yul\":13061:13135   */\n      swap2\n      pop\n        /* \"#utility.yul\":13144:13237   */\n      tag_340\n        /* \"#utility.yul\":13233:13236   */\n      dup3\n        /* \"#utility.yul\":13144:13237   */\n      tag_222\n      jump\t// in\n    tag_340:\n        /* \"#utility.yul\":13262:13264   */\n      0x40\n        /* \"#utility.yul\":13257:13260   */\n      dup3\n        /* \"#utility.yul\":13253:13265   */\n      add\n        /* \"#utility.yul\":13246:13265   */\n      swap1\n      pop\n        /* \"#utility.yul\":12905:13271   */\n      swap2\n      swap1\n      pop\n      jump\t// out\n        /* \"#utility.yul\":13277:13696   */\n    tag_182:\n        /* \"#utility.yul\":13443:13447   */\n      0x00\n        /* \"#utility.yul\":13481:13483   */\n      0x20\n        /* \"#utility.yul\":13470:13479   */\n      dup3\n        /* \"#utility.yul\":13466:13484   */\n      add\n        /* \"#utility.yul\":13458:13484   */\n      swap1\n      pop\n        /* \"#utility.yul\":13530:13539   */\n      dup2\n        /* \"#utility.yul\":13524:13528   */\n      dup2\n        /* \"#utility.yul\":13520:13540   */\n      sub\n        /* \"#utility.yul\":13516:13517   */\n      0x00\n        /* \"#utility.yul\":13505:13514   */\n      dup4\n        /* \"#utility.yul\":13501:13518   */\n      add\n        /* \"#utility.yul\":13494:13541   */\n      mstore\n        /* \"#utility.yul\":13558:13689   */\n      tag_342\n        /* \"#utility.yul\":13684:13688   */\n      dup2\n        /* \"#utility.yul\":13558:13689   */\n      tag_223\n      jump\t// in\n    tag_342:\n        /* \"#utility.yul\":13550:13689   */\n      swap1\n      pop\n        /* \"#utility.yul\":13277:13696   */\n      swap2\n      swap1\n      pop\n      jump\t// out\n\n    auxdata: 0xa264697066735822122053b19ea378d865fbf88d94bca9f220b3eeae77be009869c5139db03e0ef65a7464736f6c63430008120033\n}\n",
				"bytecode": {
					"linkReferences": {},
					"object": "60806040526040518060400160405280600881526020017f4a7774546f6b656e000000000000000000000000000000000000000000000000815250600690816200004a919062000671565b506040518060400160405280600381526020017f4a544b00000000000000000000000000000000000000000000000000000000008152506007908162000091919062000671565b50620000a26200027760201b60201c565b600a620000b09190620008e8565b611388620000bf919062000939565b600855348015620000cf57600080fd5b5060068054620000df9062000460565b80601f01602080910402602001604051908101604052809291908181526020018280546200010d9062000460565b80156200015e5780601f1062000132576101008083540402835291602001916200015e565b820191906000526020600020905b8154815290600101906020018083116200014057829003601f168201915b505050505060078054620001729062000460565b80601f0160208091040260200160405190810160405280929190818152602001828054620001a09062000460565b8015620001f15780601f10620001c557610100808354040283529160200191620001f1565b820191906000526020600020905b815481529060010190602001808311620001d357829003601f168201915b5050505050816003908162000207919062000671565b50806004908162000219919062000671565b5033600560006101000a81548173ffffffffffffffffffffffffffffffffffffffff021916908373ffffffffffffffffffffffffffffffffffffffff160217905550505062000271306008546200028060201b60201c565b62000a70565b60006012905090565b600073ffffffffffffffffffffffffffffffffffffffff168273ffffffffffffffffffffffffffffffffffffffff1603620002f2576040517f08c379a0000000000000000000000000000000000000000000000000000000008152600401620002e990620009e5565b60405180910390fd5b6200030660008383620003ed60201b60201c565b80600260008282546200031a919062000a07565b92505081905550806000808473ffffffffffffffffffffffffffffffffffffffff1673ffffffffffffffffffffffffffffffffffffffff168152602001908152602001600020600082825401925050819055508173ffffffffffffffffffffffffffffffffffffffff16600073ffffffffffffffffffffffffffffffffffffffff167fddf252ad1be2c89b69c2b068fc378daa952ba7f163c4a11628f55a4df523b3ef83604051620003cd919062000a53565b60405180910390a3620003e960008383620003f260201b60201c565b5050565b505050565b505050565b600081519050919050565b7f4e487b7100000000000000000000000000000000000000000000000000000000600052604160045260246000fd5b7f4e487b7100000000000000000000000000000000000000000000000000000000600052602260045260246000fd5b600060028204905060018216806200047957607f821691505b6020821081036200048f576200048e62000431565b5b50919050565b60008190508160005260206000209050919050565b60006020601f8301049050919050565b600082821b905092915050565b600060088302620004f97fffffffffffffffffffffffffffffffffffffffffffffffffffffffffffffffff82620004ba565b620005058683620004ba565b95508019841693508086168417925050509392505050565b6000819050919050565b6000819050919050565b6000620005526200054c62000546846200051d565b62000527565b6200051d565b9050919050565b6000819050919050565b6200056e8362000531565b620005866200057d8262000559565b848454620004c7565b825550505050565b600090565b6200059d6200058e565b620005aa81848462000563565b505050565b5b81811015620005d257620005c660008262000593565b600181019050620005b0565b5050565b601f8211156200062157620005eb8162000495565b620005f684620004aa565b8101602085101562000606578190505b6200061e6200061585620004aa565b830182620005af565b50505b505050565b600082821c905092915050565b6000620006466000198460080262000626565b1980831691505092915050565b600062000661838362000633565b9150826002028217905092915050565b6200067c82620003f7565b67ffffffffffffffff81111562000698576200069762000402565b5b620006a4825462000460565b620006b1828285620005d6565b600060209050601f831160018114620006e95760008415620006d4578287015190505b620006e0858262000653565b86555062000750565b601f198416620006f98662000495565b60005b828110156200072357848901518255600182019150602085019450602081019050620006fc565b868310156200074357848901516200073f601f89168262000633565b8355505b6001600288020188555050505b505050505050565b7f4e487b7100000000000000000000000000000000000000000000000000000000600052601160045260246000fd5b60008160011c9050919050565b6000808291508390505b6001851115620007e657808604811115620007be57620007bd62000758565b5b6001851615620007ce5780820291505b8081029050620007de8562000787565b94506200079e565b94509492505050565b600082620008015760019050620008d4565b81620008115760009050620008d4565b81600181146200082a576002811462000835576200086b565b6001915050620008d4565b60ff8411156200084a576200084962000758565b5b8360020a91508482111562000864576200086362000758565b5b50620008d4565b5060208310610133831016604e8410600b8410161715620008a55782820a9050838111156200089f576200089e62000758565b5b620008d4565b620008b4848484600162000794565b92509050818404811115620008ce57620008cd62000758565b5b81810290505b9392505050565b600060ff82169050919050565b6000620008f5826200051d565b91506200090283620008db565b9250620009317fffffffffffffffffffffffffffffffffffffffffffffffffffffffffffffffff8484620007ef565b905092915050565b600062000946826200051d565b915062000953836200051d565b925082820262000963816200051d565b915082820484148315176200097d576200097c62000758565b5b5092915050565b600082825260208201905092915050565b7f45524332303a206d696e7420746f20746865207a65726f206164647265737300600082015250565b6000620009cd601f8362000984565b9150620009da8262000995565b602082019050919050565b6000602082019050818103600083015262000a0081620009be565b9050919050565b600062000a14826200051d565b915062000a21836200051d565b925082820190508082111562000a3c5762000a3b62000758565b5b92915050565b62000a4d816200051d565b82525050565b600060208201905062000a6a600083018462000a42565b92915050565b6115628062000a806000396000f3fe6080604052600436106100f35760003560e01c806370a082311161008a578063a9059cbb11610059578063a9059cbb14610347578063b09f126614610384578063d28d8852146103af578063dd62ed3e146103da576100f3565b806370a082311461027757806389ded484146102b457806395d89b41146102df578063a457c2d71461030a576100f3565b8063313ce567116100c6578063313ce567146101c857806339509351146101f35780633eaaf86b1461023057806368f8fc101461025b576100f3565b806306fdde03146100f8578063095ea7b31461012357806318160ddd1461016057806323b872dd1461018b575b600080fd5b34801561010457600080fd5b5061010d610417565b60405161011a9190610e3f565b60405180910390f35b34801561012f57600080fd5b5061014a60048036038101906101459190610efa565b6104a9565b6040516101579190610f55565b60405180910390f35b34801561016c57600080fd5b506101756104cc565b6040516101829190610f7f565b60405180910390f35b34801561019757600080fd5b506101b260048036038101906101ad9190610f9a565b6104d6565b6040516101bf9190610f55565b60405180910390f35b3480156101d457600080fd5b506101dd610505565b6040516101ea9190611009565b60405180910390f35b3480156101ff57600080fd5b5061021a60048036038101906102159190610efa565b61050e565b6040516102279190610f55565b60405180910390f35b34801561023c57600080fd5b50610245610545565b6040516102529190610f7f565b60405180910390f35b61027560048036038101906102709190610efa565b61054b565b005b34801561028357600080fd5b5061029e60048036038101906102999190611024565b61055a565b6040516102ab9190610f7f565b60405180910390f35b3480156102c057600080fd5b506102c96105a2565b6040516102d69190610f7f565b60405180910390f35b3480156102eb57600080fd5b506102f46105e8565b6040516103019190610e3f565b60405180910390f35b34801561031657600080fd5b50610331600480360381019061032c9190610efa565b61067a565b60405161033e9190610f55565b60405180910390f35b34801561035357600080fd5b5061036e60048036038101906103699190610efa565b6106f1565b60405161037b9190610f55565b60405180910390f35b34801561039057600080fd5b5061039961072f565b6040516103a69190610e3f565b60405180910390f35b3480156103bb57600080fd5b506103c46107bd565b6040516103d19190610e3f565b60405180910390f35b3480156103e657600080fd5b5061040160048036038101906103fc9190611051565b61084b565b60405161040e9190610f7f565b60405180910390f35b606060038054610426906110c0565b80601f0160208091040260200160405190810160405280929190818152602001828054610452906110c0565b801561049f5780601f106104745761010080835404028352916020019161049f565b820191906000526020600020905b81548152906001019060200180831161048257829003601f168201915b5050505050905090565b6000806104b46108d2565b90506104c18185856108da565b600191505092915050565b6000600254905090565b6000806104e16108d2565b90506104ee858285610aa3565b6104f9858585610b2f565b60019150509392505050565b60006012905090565b6000806105196108d2565b905061053a81858561052b858961084b565b6105359190611120565b6108da565b600191505092915050565b60085481565b610556308383610b2f565b5050565b60008060008373ffffffffffffffffffffffffffffffffffffffff1673ffffffffffffffffffffffffffffffffffffffff168152602001908152602001600020549050919050565b60008060003073ffffffffffffffffffffffffffffffffffffffff1673ffffffffffffffffffffffffffffffffffffffff16815260200190815260200160002054905090565b6060600480546105f7906110c0565b80601f0160208091040260200160405190810160405280929190818152602001828054610623906110c0565b80156106705780601f1061064557610100808354040283529160200191610670565b820191906000526020600020905b81548152906001019060200180831161065357829003601f168201915b5050505050905090565b6000806106856108d2565b90506000610693828661084b565b9050838110156106d8576040517f08c379a00000000000000000000000000000000000000000000000000000000081526004016106cf906111c6565b60405180910390fd5b6106e582868684036108da565b60019250505092915050565b600080600560009054906101000a900473ffffffffffffffffffffffffffffffffffffffff169050610724818585610b2f565b600191505092915050565b6007805461073c906110c0565b80601f0160208091040260200160405190810160405280929190818152602001828054610768906110c0565b80156107b55780601f1061078a576101008083540402835291602001916107b5565b820191906000526020600020905b81548152906001019060200180831161079857829003601f168201915b505050505081565b600680546107ca906110c0565b80601f01602080910402602001604051908101604052809291908181526020018280546107f6906110c0565b80156108435780601f1061081857610100808354040283529160200191610843565b820191906000526020600020905b81548152906001019060200180831161082657829003601f168201915b505050505081565b6000600160008473ffffffffffffffffffffffffffffffffffffffff1673ffffffffffffffffffffffffffffffffffffffff16815260200190815260200160002060008373ffffffffffffffffffffffffffffffffffffffff1673ffffffffffffffffffffffffffffffffffffffff16815260200190815260200160002054905092915050565b600033905090565b600073ffffffffffffffffffffffffffffffffffffffff168373ffffffffffffffffffffffffffffffffffffffff1603610949576040517f08c379a000000000000000000000000000000000000000000000000000000000815260040161094090611258565b60405180910390fd5b600073ffffffffffffffffffffffffffffffffffffffff168273ffffffffffffffffffffffffffffffffffffffff16036109b8576040517f08c379a00000000000000000000000000000000000000000000000000000000081526004016109af906112ea565b60405180910390fd5b80600160008573ffffffffffffffffffffffffffffffffffffffff1673ffffffffffffffffffffffffffffffffffffffff16815260200190815260200160002060008473ffffffffffffffffffffffffffffffffffffffff1673ffffffffffffffffffffffffffffffffffffffff168152602001908152602001600020819055508173ffffffffffffffffffffffffffffffffffffffff168373ffffffffffffffffffffffffffffffffffffffff167f8c5be1e5ebec7d5bd14f71427d1e84f3dd0314c0f7b2291e5b200ac8c7c3b92583604051610a969190610f7f565b60405180910390a3505050565b6000610aaf848461084b565b90507fffffffffffffffffffffffffffffffffffffffffffffffffffffffffffffffff8114610b295781811015610b1b576040517f08c379a0000000000000000000000000000000000000000000000000000000008152600401610b1290611356565b60405180910390fd5b610b2884848484036108da565b5b50505050565b600073ffffffffffffffffffffffffffffffffffffffff168373ffffffffffffffffffffffffffffffffffffffff1603610b9e576040517f08c379a0000000000000000000000000000000000000000000000000000000008152600401610b95906113e8565b60405180910390fd5b600073ffffffffffffffffffffffffffffffffffffffff168273ffffffffffffffffffffffffffffffffffffffff1603610c0d576040517f08c379a0000000000000000000000000000000000000000000000000000000008152600401610c049061147a565b60405180910390fd5b610c18838383610da5565b60008060008573ffffffffffffffffffffffffffffffffffffffff1673ffffffffffffffffffffffffffffffffffffffff16815260200190815260200160002054905081811015610c9e576040517f08c379a0000000000000000000000000000000000000000000000000000000008152600401610c959061150c565b60405180910390fd5b8181036000808673ffffffffffffffffffffffffffffffffffffffff1673ffffffffffffffffffffffffffffffffffffffff16815260200190815260200160002081905550816000808573ffffffffffffffffffffffffffffffffffffffff1673ffffffffffffffffffffffffffffffffffffffff168152602001908152602001600020600082825401925050819055508273ffffffffffffffffffffffffffffffffffffffff168473ffffffffffffffffffffffffffffffffffffffff167fddf252ad1be2c89b69c2b068fc378daa952ba7f163c4a11628f55a4df523b3ef84604051610d8c9190610f7f565b60405180910390a3610d9f848484610daa565b50505050565b505050565b505050565b600081519050919050565b600082825260208201905092915050565b60005b83811015610de9578082015181840152602081019050610dce565b60008484015250505050565b6000601f19601f8301169050919050565b6000610e1182610daf565b610e1b8185610dba565b9350610e2b818560208601610dcb565b610e3481610df5565b840191505092915050565b60006020820190508181036000830152610e598184610e06565b905092915050565b600080fd5b600073ffffffffffffffffffffffffffffffffffffffff82169050919050565b6000610e9182610e66565b9050919050565b610ea181610e86565b8114610eac57600080fd5b50565b600081359050610ebe81610e98565b92915050565b6000819050919050565b610ed781610ec4565b8114610ee257600080fd5b50565b600081359050610ef481610ece565b92915050565b60008060408385031215610f1157610f10610e61565b5b6000610f1f85828601610eaf565b9250506020610f3085828601610ee5565b9150509250929050565b60008115159050919050565b610f4f81610f3a565b82525050565b6000602082019050610f6a6000830184610f46565b92915050565b610f7981610ec4565b82525050565b6000602082019050610f946000830184610f70565b92915050565b600080600060608486031215610fb357610fb2610e61565b5b6000610fc186828701610eaf565b9350506020610fd286828701610eaf565b9250506040610fe386828701610ee5565b9150509250925092565b600060ff82169050919050565b61100381610fed565b82525050565b600060208201905061101e6000830184610ffa565b92915050565b60006020828403121561103a57611039610e61565b5b600061104884828501610eaf565b91505092915050565b6000806040838503121561106857611067610e61565b5b600061107685828601610eaf565b925050602061108785828601610eaf565b9150509250929050565b7f4e487b7100000000000000000000000000000000000000000000000000000000600052602260045260246000fd5b600060028204905060018216806110d857607f821691505b6020821081036110eb576110ea611091565b5b50919050565b7f4e487b7100000000000000000000000000000000000000000000000000000000600052601160045260246000fd5b600061112b82610ec4565b915061113683610ec4565b925082820190508082111561114e5761114d6110f1565b5b92915050565b7f45524332303a2064656372656173656420616c6c6f77616e63652062656c6f7760008201527f207a65726f000000000000000000000000000000000000000000000000000000602082015250565b60006111b0602583610dba565b91506111bb82611154565b604082019050919050565b600060208201905081810360008301526111df816111a3565b9050919050565b7f45524332303a20617070726f76652066726f6d20746865207a65726f2061646460008201527f7265737300000000000000000000000000000000000000000000000000000000602082015250565b6000611242602483610dba565b915061124d826111e6565b604082019050919050565b6000602082019050818103600083015261127181611235565b9050919050565b7f45524332303a20617070726f766520746f20746865207a65726f20616464726560008201527f7373000000000000000000000000000000000000000000000000000000000000602082015250565b60006112d4602283610dba565b91506112df82611278565b604082019050919050565b60006020820190508181036000830152611303816112c7565b9050919050565b7f45524332303a20696e73756666696369656e7420616c6c6f77616e6365000000600082015250565b6000611340601d83610dba565b915061134b8261130a565b602082019050919050565b6000602082019050818103600083015261136f81611333565b9050919050565b7f45524332303a207472616e736665722066726f6d20746865207a65726f20616460008201527f6472657373000000000000000000000000000000000000000000000000000000602082015250565b60006113d2602583610dba565b91506113dd82611376565b604082019050919050565b60006020820190508181036000830152611401816113c5565b9050919050565b7f45524332303a207472616e7366657220746f20746865207a65726f206164647260008201527f6573730000000000000000000000000000000000000000000000000000000000602082015250565b6000611464602383610dba565b915061146f82611408565b604082019050919050565b6000602082019050818103600083015261149381611457565b9050919050565b7f45524332303a207472616e7366657220616d6f756e742065786365656473206260008201527f616c616e63650000000000000000000000000000000000000000000000000000602082015250565b60006114f6602683610dba565b91506115018261149a565b604082019050919050565b60006020820190508181036000830152611525816114e9565b905091905056fea264697066735822122053b19ea378d865fbf88d94bca9f220b3eeae77be009869c5139db03e0ef65a7464736f6c63430008120033",
					"opcodes": "PUSH1 0x80 PUSH1 0x40 MSTORE PUSH1 0x40 MLOAD DUP1 PUSH1 0x40 ADD PUSH1 0x40 MSTORE DUP1 PUSH1 0x8 DUP2 MSTORE PUSH1 0x20 ADD PUSH32 0x4A7774546F6B656E000000000000000000000000000000000000000000000000 DUP2 MSTORE POP PUSH1 0x6 SWAP1 DUP2 PUSH3 0x4A SWAP2 SWAP1 PUSH3 0x671 JUMP JUMPDEST POP PUSH1 0x40 MLOAD DUP1 PUSH1 0x40 ADD PUSH1 0x40 MSTORE DUP1 PUSH1 0x3 DUP2 MSTORE PUSH1 0x20 ADD PUSH32 0x4A544B0000000000000000000000000000000000000000000000000000000000 DUP2 MSTORE POP PUSH1 0x7 SWAP1 DUP2 PUSH3 0x91 SWAP2 SWAP1 PUSH3 0x671 JUMP JUMPDEST POP PUSH3 0xA2 PUSH3 0x277 PUSH1 0x20 SHL PUSH1 0x20 SHR JUMP JUMPDEST PUSH1 0xA PUSH3 0xB0 SWAP2 SWAP1 PUSH3 0x8E8 JUMP JUMPDEST PUSH2 0x1388 PUSH3 0xBF SWAP2 SWAP1 PUSH3 0x939 JUMP JUMPDEST PUSH1 0x8 SSTORE CALLVALUE DUP1 ISZERO PUSH3 0xCF JUMPI PUSH1 0x0 DUP1 REVERT JUMPDEST POP PUSH1 0x6 DUP1 SLOAD PUSH3 0xDF SWAP1 PUSH3 0x460 JUMP JUMPDEST DUP1 PUSH1 0x1F ADD PUSH1 0x20 DUP1 SWAP2 DIV MUL PUSH1 0x20 ADD PUSH1 0x40 MLOAD SWAP1 DUP2 ADD PUSH1 0x40 MSTORE DUP1 SWAP3 SWAP2 SWAP1 DUP2 DUP2 MSTORE PUSH1 0x20 ADD DUP3 DUP1 SLOAD PUSH3 0x10D SWAP1 PUSH3 0x460 JUMP JUMPDEST DUP1 ISZERO PUSH3 0x15E JUMPI DUP1 PUSH1 0x1F LT PUSH3 0x132 JUMPI PUSH2 0x100 DUP1 DUP4 SLOAD DIV MUL DUP4 MSTORE SWAP2 PUSH1 0x20 ADD SWAP2 PUSH3 0x15E JUMP JUMPDEST DUP3 ADD SWAP2 SWAP1 PUSH1 0x0 MSTORE PUSH1 0x20 PUSH1 0x0 KECCAK256 SWAP1 JUMPDEST DUP2 SLOAD DUP2 MSTORE SWAP1 PUSH1 0x1 ADD SWAP1 PUSH1 0x20 ADD DUP1 DUP4 GT PUSH3 0x140 JUMPI DUP3 SWAP1 SUB PUSH1 0x1F AND DUP3 ADD SWAP2 JUMPDEST POP POP POP POP POP PUSH1 0x7 DUP1 SLOAD PUSH3 0x172 SWAP1 PUSH3 0x460 JUMP JUMPDEST DUP1 PUSH1 0x1F ADD PUSH1 0x20 DUP1 SWAP2 DIV MUL PUSH1 0x20 ADD PUSH1 0x40 MLOAD SWAP1 DUP2 ADD PUSH1 0x40 MSTORE DUP1 SWAP3 SWAP2 SWAP1 DUP2 DUP2 MSTORE PUSH1 0x20 ADD DUP3 DUP1 SLOAD PUSH3 0x1A0 SWAP1 PUSH3 0x460 JUMP JUMPDEST DUP1 ISZERO PUSH3 0x1F1 JUMPI DUP1 PUSH1 0x1F LT PUSH3 0x1C5 JUMPI PUSH2 0x100 DUP1 DUP4 SLOAD DIV MUL DUP4 MSTORE SWAP2 PUSH1 0x20 ADD SWAP2 PUSH3 0x1F1 JUMP JUMPDEST DUP3 ADD SWAP2 SWAP1 PUSH1 0x0 MSTORE PUSH1 0x20 PUSH1 0x0 KECCAK256 SWAP1 JUMPDEST DUP2 SLOAD DUP2 MSTORE SWAP1 PUSH1 0x1 ADD SWAP1 PUSH1 0x20 ADD DUP1 DUP4 GT PUSH3 0x1D3 JUMPI DUP3 SWAP1 SUB PUSH1 0x1F AND DUP3 ADD SWAP2 JUMPDEST POP POP POP POP POP DUP2 PUSH1 0x3 SWAP1 DUP2 PUSH3 0x207 SWAP2 SWAP1 PUSH3 0x671 JUMP JUMPDEST POP DUP1 PUSH1 0x4 SWAP1 DUP2 PUSH3 0x219 SWAP2 SWAP1 PUSH3 0x671 JUMP JUMPDEST POP CALLER PUSH1 0x5 PUSH1 0x0 PUSH2 0x100 EXP DUP2 SLOAD DUP2 PUSH20 0xFFFFFFFFFFFFFFFFFFFFFFFFFFFFFFFFFFFFFFFF MUL NOT AND SWAP1 DUP4 PUSH20 0xFFFFFFFFFFFFFFFFFFFFFFFFFFFFFFFFFFFFFFFF AND MUL OR SWAP1 SSTORE POP POP POP PUSH3 0x271 ADDRESS PUSH1 0x8 SLOAD PUSH3 0x280 PUSH1 0x20 SHL PUSH1 0x20 SHR JUMP JUMPDEST PUSH3 0xA70 JUMP JUMPDEST PUSH1 0x0 PUSH1 0x12 SWAP1 POP SWAP1 JUMP JUMPDEST PUSH1 0x0 PUSH20 0xFFFFFFFFFFFFFFFFFFFFFFFFFFFFFFFFFFFFFFFF AND DUP3 PUSH20 0xFFFFFFFFFFFFFFFFFFFFFFFFFFFFFFFFFFFFFFFF AND SUB PUSH3 0x2F2 JUMPI PUSH1 0x40 MLOAD PUSH32 0x8C379A000000000000000000000000000000000000000000000000000000000 DUP2 MSTORE PUSH1 0x4 ADD PUSH3 0x2E9 SWAP1 PUSH3 0x9E5 JUMP JUMPDEST PUSH1 0x40 MLOAD DUP1 SWAP2 SUB SWAP1 REVERT JUMPDEST PUSH3 0x306 PUSH1 0x0 DUP4 DUP4 PUSH3 0x3ED PUSH1 0x20 SHL PUSH1 0x20 SHR JUMP JUMPDEST DUP1 PUSH1 0x2 PUSH1 0x0 DUP3 DUP3 SLOAD PUSH3 0x31A SWAP2 SWAP1 PUSH3 0xA07 JUMP JUMPDEST SWAP3 POP POP DUP2 SWAP1 SSTORE POP DUP1 PUSH1 0x0 DUP1 DUP5 PUSH20 0xFFFFFFFFFFFFFFFFFFFFFFFFFFFFFFFFFFFFFFFF AND PUSH20 0xFFFFFFFFFFFFFFFFFFFFFFFFFFFFFFFFFFFFFFFF AND DUP2 MSTORE PUSH1 0x20 ADD SWAP1 DUP2 MSTORE PUSH1 0x20 ADD PUSH1 0x0 KECCAK256 PUSH1 0x0 DUP3 DUP3 SLOAD ADD SWAP3 POP POP DUP2 SWAP1 SSTORE POP DUP2 PUSH20 0xFFFFFFFFFFFFFFFFFFFFFFFFFFFFFFFFFFFFFFFF AND PUSH1 0x0 PUSH20 0xFFFFFFFFFFFFFFFFFFFFFFFFFFFFFFFFFFFFFFFF AND PUSH32 0xDDF252AD1BE2C89B69C2B068FC378DAA952BA7F163C4A11628F55A4DF523B3EF DUP4 PUSH1 0x40 MLOAD PUSH3 0x3CD SWAP2 SWAP1 PUSH3 0xA53 JUMP JUMPDEST PUSH1 0x40 MLOAD DUP1 SWAP2 SUB SWAP1 LOG3 PUSH3 0x3E9 PUSH1 0x0 DUP4 DUP4 PUSH3 0x3F2 PUSH1 0x20 SHL PUSH1 0x20 SHR JUMP JUMPDEST POP POP JUMP JUMPDEST POP POP POP JUMP JUMPDEST POP POP POP JUMP JUMPDEST PUSH1 0x0 DUP2 MLOAD SWAP1 POP SWAP2 SWAP1 POP JUMP JUMPDEST PUSH32 0x4E487B7100000000000000000000000000000000000000000000000000000000 PUSH1 0x0 MSTORE PUSH1 0x41 PUSH1 0x4 MSTORE PUSH1 0x24 PUSH1 0x0 REVERT JUMPDEST PUSH32 0x4E487B7100000000000000000000000000000000000000000000000000000000 PUSH1 0x0 MSTORE PUSH1 0x22 PUSH1 0x4 MSTORE PUSH1 0x24 PUSH1 0x0 REVERT JUMPDEST PUSH1 0x0 PUSH1 0x2 DUP3 DIV SWAP1 POP PUSH1 0x1 DUP3 AND DUP1 PUSH3 0x479 JUMPI PUSH1 0x7F DUP3 AND SWAP2 POP JUMPDEST PUSH1 0x20 DUP3 LT DUP2 SUB PUSH3 0x48F JUMPI PUSH3 0x48E PUSH3 0x431 JUMP JUMPDEST JUMPDEST POP SWAP2 SWAP1 POP JUMP JUMPDEST PUSH1 0x0 DUP2 SWAP1 POP DUP2 PUSH1 0x0 MSTORE PUSH1 0x20 PUSH1 0x0 KECCAK256 SWAP1 POP SWAP2 SWAP1 POP JUMP JUMPDEST PUSH1 0x0 PUSH1 0x20 PUSH1 0x1F DUP4 ADD DIV SWAP1 POP SWAP2 SWAP1 POP JUMP JUMPDEST PUSH1 0x0 DUP3 DUP3 SHL SWAP1 POP SWAP3 SWAP2 POP POP JUMP JUMPDEST PUSH1 0x0 PUSH1 0x8 DUP4 MUL PUSH3 0x4F9 PUSH32 0xFFFFFFFFFFFFFFFFFFFFFFFFFFFFFFFFFFFFFFFFFFFFFFFFFFFFFFFFFFFFFFFF DUP3 PUSH3 0x4BA JUMP JUMPDEST PUSH3 0x505 DUP7 DUP4 PUSH3 0x4BA JUMP JUMPDEST SWAP6 POP DUP1 NOT DUP5 AND SWAP4 POP DUP1 DUP7 AND DUP5 OR SWAP3 POP POP POP SWAP4 SWAP3 POP POP POP JUMP JUMPDEST PUSH1 0x0 DUP2 SWAP1 POP SWAP2 SWAP1 POP JUMP JUMPDEST PUSH1 0x0 DUP2 SWAP1 POP SWAP2 SWAP1 POP JUMP JUMPDEST PUSH1 0x0 PUSH3 0x552 PUSH3 0x54C PUSH3 0x546 DUP5 PUSH3 0x51D JUMP JUMPDEST PUSH3 0x527 JUMP JUMPDEST PUSH3 0x51D JUMP JUMPDEST SWAP1 POP SWAP2 SWAP1 POP JUMP JUMPDEST PUSH1 0x0 DUP2 SWAP1 POP SWAP2 SWAP1 POP JUMP JUMPDEST PUSH3 0x56E DUP4 PUSH3 0x531 JUMP JUMPDEST PUSH3 0x586 PUSH3 0x57D DUP3 PUSH3 0x559 JUMP JUMPDEST DUP5 DUP5 SLOAD PUSH3 0x4C7 JUMP JUMPDEST DUP3 SSTORE POP POP POP POP JUMP JUMPDEST PUSH1 0x0 SWAP1 JUMP JUMPDEST PUSH3 0x59D PUSH3 0x58E JUMP JUMPDEST PUSH3 0x5AA DUP2 DUP5 DUP5 PUSH3 0x563 JUMP JUMPDEST POP POP POP JUMP JUMPDEST JUMPDEST DUP2 DUP2 LT ISZERO PUSH3 0x5D2 JUMPI PUSH3 0x5C6 PUSH1 0x0 DUP3 PUSH3 0x593 JUMP JUMPDEST PUSH1 0x1 DUP2 ADD SWAP1 POP PUSH3 0x5B0 JUMP JUMPDEST POP POP JUMP JUMPDEST PUSH1 0x1F DUP3 GT ISZERO PUSH3 0x621 JUMPI PUSH3 0x5EB DUP2 PUSH3 0x495 JUMP JUMPDEST PUSH3 0x5F6 DUP5 PUSH3 0x4AA JUMP JUMPDEST DUP2 ADD PUSH1 0x20 DUP6 LT ISZERO PUSH3 0x606 JUMPI DUP2 SWAP1 POP JUMPDEST PUSH3 0x61E PUSH3 0x615 DUP6 PUSH3 0x4AA JUMP JUMPDEST DUP4 ADD DUP3 PUSH3 0x5AF JUMP JUMPDEST POP POP JUMPDEST POP POP POP JUMP JUMPDEST PUSH1 0x0 DUP3 DUP3 SHR SWAP1 POP SWAP3 SWAP2 POP POP JUMP JUMPDEST PUSH1 0x0 PUSH3 0x646 PUSH1 0x0 NOT DUP5 PUSH1 0x8 MUL PUSH3 0x626 JUMP JUMPDEST NOT DUP1 DUP4 AND SWAP2 POP POP SWAP3 SWAP2 POP POP JUMP JUMPDEST PUSH1 0x0 PUSH3 0x661 DUP4 DUP4 PUSH3 0x633 JUMP JUMPDEST SWAP2 POP DUP3 PUSH1 0x2 MUL DUP3 OR SWAP1 POP SWAP3 SWAP2 POP POP JUMP JUMPDEST PUSH3 0x67C DUP3 PUSH3 0x3F7 JUMP JUMPDEST PUSH8 0xFFFFFFFFFFFFFFFF DUP2 GT ISZERO PUSH3 0x698 JUMPI PUSH3 0x697 PUSH3 0x402 JUMP JUMPDEST JUMPDEST PUSH3 0x6A4 DUP3 SLOAD PUSH3 0x460 JUMP JUMPDEST PUSH3 0x6B1 DUP3 DUP3 DUP6 PUSH3 0x5D6 JUMP JUMPDEST PUSH1 0x0 PUSH1 0x20 SWAP1 POP PUSH1 0x1F DUP4 GT PUSH1 0x1 DUP2 EQ PUSH3 0x6E9 JUMPI PUSH1 0x0 DUP5 ISZERO PUSH3 0x6D4 JUMPI DUP3 DUP8 ADD MLOAD SWAP1 POP JUMPDEST PUSH3 0x6E0 DUP6 DUP3 PUSH3 0x653 JUMP JUMPDEST DUP7 SSTORE POP PUSH3 0x750 JUMP JUMPDEST PUSH1 0x1F NOT DUP5 AND PUSH3 0x6F9 DUP7 PUSH3 0x495 JUMP JUMPDEST PUSH1 0x0 JUMPDEST DUP3 DUP2 LT ISZERO PUSH3 0x723 JUMPI DUP5 DUP10 ADD MLOAD DUP3 SSTORE PUSH1 0x1 DUP3 ADD SWAP2 POP PUSH1 0x20 DUP6 ADD SWAP5 POP PUSH1 0x20 DUP2 ADD SWAP1 POP PUSH3 0x6FC JUMP JUMPDEST DUP7 DUP4 LT ISZERO PUSH3 0x743 JUMPI DUP5 DUP10 ADD MLOAD PUSH3 0x73F PUSH1 0x1F DUP10 AND DUP3 PUSH3 0x633 JUMP JUMPDEST DUP4 SSTORE POP JUMPDEST PUSH1 0x1 PUSH1 0x2 DUP9 MUL ADD DUP9 SSTORE POP POP POP JUMPDEST POP POP POP POP POP POP JUMP JUMPDEST PUSH32 0x4E487B7100000000000000000000000000000000000000000000000000000000 PUSH1 0x0 MSTORE PUSH1 0x11 PUSH1 0x4 MSTORE PUSH1 0x24 PUSH1 0x0 REVERT JUMPDEST PUSH1 0x0 DUP2 PUSH1 0x1 SHR SWAP1 POP SWAP2 SWAP1 POP JUMP JUMPDEST PUSH1 0x0 DUP1 DUP3 SWAP2 POP DUP4 SWAP1 POP JUMPDEST PUSH1 0x1 DUP6 GT ISZERO PUSH3 0x7E6 JUMPI DUP1 DUP7 DIV DUP2 GT ISZERO PUSH3 0x7BE JUMPI PUSH3 0x7BD PUSH3 0x758 JUMP JUMPDEST JUMPDEST PUSH1 0x1 DUP6 AND ISZERO PUSH3 0x7CE JUMPI DUP1 DUP3 MUL SWAP2 POP JUMPDEST DUP1 DUP2 MUL SWAP1 POP PUSH3 0x7DE DUP6 PUSH3 0x787 JUMP JUMPDEST SWAP5 POP PUSH3 0x79E JUMP JUMPDEST SWAP5 POP SWAP5 SWAP3 POP POP POP JUMP JUMPDEST PUSH1 0x0 DUP3 PUSH3 0x801 JUMPI PUSH1 0x1 SWAP1 POP PUSH3 0x8D4 JUMP JUMPDEST DUP2 PUSH3 0x811 JUMPI PUSH1 0x0 SWAP1 POP PUSH3 0x8D4 JUMP JUMPDEST DUP2 PUSH1 0x1 DUP2 EQ PUSH3 0x82A JUMPI PUSH1 0x2 DUP2 EQ PUSH3 0x835 JUMPI PUSH3 0x86B JUMP JUMPDEST PUSH1 0x1 SWAP2 POP POP PUSH3 0x8D4 JUMP JUMPDEST PUSH1 0xFF DUP5 GT ISZERO PUSH3 0x84A JUMPI PUSH3 0x849 PUSH3 0x758 JUMP JUMPDEST JUMPDEST DUP4 PUSH1 0x2 EXP SWAP2 POP DUP5 DUP3 GT ISZERO PUSH3 0x864 JUMPI PUSH3 0x863 PUSH3 0x758 JUMP JUMPDEST JUMPDEST POP PUSH3 0x8D4 JUMP JUMPDEST POP PUSH1 0x20 DUP4 LT PUSH2 0x133 DUP4 LT AND PUSH1 0x4E DUP5 LT PUSH1 0xB DUP5 LT AND OR ISZERO PUSH3 0x8A5 JUMPI DUP3 DUP3 EXP SWAP1 POP DUP4 DUP2 GT ISZERO PUSH3 0x89F JUMPI PUSH3 0x89E PUSH3 0x758 JUMP JUMPDEST JUMPDEST PUSH3 0x8D4 JUMP JUMPDEST PUSH3 0x8B4 DUP5 DUP5 DUP5 PUSH1 0x1 PUSH3 0x794 JUMP JUMPDEST SWAP3 POP SWAP1 POP DUP2 DUP5 DIV DUP2 GT ISZERO PUSH3 0x8CE JUMPI PUSH3 0x8CD PUSH3 0x758 JUMP JUMPDEST JUMPDEST DUP2 DUP2 MUL SWAP1 POP JUMPDEST SWAP4 SWAP3 POP POP POP JUMP JUMPDEST PUSH1 0x0 PUSH1 0xFF DUP3 AND SWAP1 POP SWAP2 SWAP1 POP JUMP JUMPDEST PUSH1 0x0 PUSH3 0x8F5 DUP3 PUSH3 0x51D JUMP JUMPDEST SWAP2 POP PUSH3 0x902 DUP4 PUSH3 0x8DB JUMP JUMPDEST SWAP3 POP PUSH3 0x931 PUSH32 0xFFFFFFFFFFFFFFFFFFFFFFFFFFFFFFFFFFFFFFFFFFFFFFFFFFFFFFFFFFFFFFFF DUP5 DUP5 PUSH3 0x7EF JUMP JUMPDEST SWAP1 POP SWAP3 SWAP2 POP POP JUMP JUMPDEST PUSH1 0x0 PUSH3 0x946 DUP3 PUSH3 0x51D JUMP JUMPDEST SWAP2 POP PUSH3 0x953 DUP4 PUSH3 0x51D JUMP JUMPDEST SWAP3 POP DUP3 DUP3 MUL PUSH3 0x963 DUP2 PUSH3 0x51D JUMP JUMPDEST SWAP2 POP DUP3 DUP3 DIV DUP5 EQ DUP4 ISZERO OR PUSH3 0x97D JUMPI PUSH3 0x97C PUSH3 0x758 JUMP JUMPDEST JUMPDEST POP SWAP3 SWAP2 POP POP JUMP JUMPDEST PUSH1 0x0 DUP3 DUP3 MSTORE PUSH1 0x20 DUP3 ADD SWAP1 POP SWAP3 SWAP2 POP POP JUMP JUMPDEST PUSH32 0x45524332303A206D696E7420746F20746865207A65726F206164647265737300 PUSH1 0x0 DUP3 ADD MSTORE POP JUMP JUMPDEST PUSH1 0x0 PUSH3 0x9CD PUSH1 0x1F DUP4 PUSH3 0x984 JUMP JUMPDEST SWAP2 POP PUSH3 0x9DA DUP3 PUSH3 0x995 JUMP JUMPDEST PUSH1 0x20 DUP3 ADD SWAP1 POP SWAP2 SWAP1 POP JUMP JUMPDEST PUSH1 0x0 PUSH1 0x20 DUP3 ADD SWAP1 POP DUP2 DUP2 SUB PUSH1 0x0 DUP4 ADD MSTORE PUSH3 0xA00 DUP2 PUSH3 0x9BE JUMP JUMPDEST SWAP1 POP SWAP2 SWAP1 POP JUMP JUMPDEST PUSH1 0x0 PUSH3 0xA14 DUP3 PUSH3 0x51D JUMP JUMPDEST SWAP2 POP PUSH3 0xA21 DUP4 PUSH3 0x51D JUMP JUMPDEST SWAP3 POP DUP3 DUP3 ADD SWAP1 POP DUP1 DUP3 GT ISZERO PUSH3 0xA3C JUMPI PUSH3 0xA3B PUSH3 0x758 JUMP JUMPDEST JUMPDEST SWAP3 SWAP2 POP POP JUMP JUMPDEST PUSH3 0xA4D DUP2 PUSH3 0x51D JUMP JUMPDEST DUP3 MSTORE POP POP JUMP JUMPDEST PUSH1 0x0 PUSH1 0x20 DUP3 ADD SWAP1 POP PUSH3 0xA6A PUSH1 0x0 DUP4 ADD DUP5 PUSH3 0xA42 JUMP JUMPDEST SWAP3 SWAP2 POP POP JUMP JUMPDEST PUSH2 0x1562 DUP1 PUSH3 0xA80 PUSH1 0x0 CODECOPY PUSH1 0x0 RETURN INVALID PUSH1 0x80 PUSH1 0x40 MSTORE PUSH1 0x4 CALLDATASIZE LT PUSH2 0xF3 JUMPI PUSH1 0x0 CALLDATALOAD PUSH1 0xE0 SHR DUP1 PUSH4 0x70A08231 GT PUSH2 0x8A JUMPI DUP1 PUSH4 0xA9059CBB GT PUSH2 0x59 JUMPI DUP1 PUSH4 0xA9059CBB EQ PUSH2 0x347 JUMPI DUP1 PUSH4 0xB09F1266 EQ PUSH2 0x384 JUMPI DUP1 PUSH4 0xD28D8852 EQ PUSH2 0x3AF JUMPI DUP1 PUSH4 0xDD62ED3E EQ PUSH2 0x3DA JUMPI PUSH2 0xF3 JUMP JUMPDEST DUP1 PUSH4 0x70A08231 EQ PUSH2 0x277 JUMPI DUP1 PUSH4 0x89DED484 EQ PUSH2 0x2B4 JUMPI DUP1 PUSH4 0x95D89B41 EQ PUSH2 0x2DF JUMPI DUP1 PUSH4 0xA457C2D7 EQ PUSH2 0x30A JUMPI PUSH2 0xF3 JUMP JUMPDEST DUP1 PUSH4 0x313CE567 GT PUSH2 0xC6 JUMPI DUP1 PUSH4 0x313CE567 EQ PUSH2 0x1C8 JUMPI DUP1 PUSH4 0x39509351 EQ PUSH2 0x1F3 JUMPI DUP1 PUSH4 0x3EAAF86B EQ PUSH2 0x230 JUMPI DUP1 PUSH4 0x68F8FC10 EQ PUSH2 0x25B JUMPI PUSH2 0xF3 JUMP JUMPDEST DUP1 PUSH4 0x6FDDE03 EQ PUSH2 0xF8 JUMPI DUP1 PUSH4 0x95EA7B3 EQ PUSH2 0x123 JUMPI DUP1 PUSH4 0x18160DDD EQ PUSH2 0x160 JUMPI DUP1 PUSH4 0x23B872DD EQ PUSH2 0x18B JUMPI JUMPDEST PUSH1 0x0 DUP1 REVERT JUMPDEST CALLVALUE DUP1 ISZERO PUSH2 0x104 JUMPI PUSH1 0x0 DUP1 REVERT JUMPDEST POP PUSH2 0x10D PUSH2 0x417 JUMP JUMPDEST PUSH1 0x40 MLOAD PUSH2 0x11A SWAP2 SWAP1 PUSH2 0xE3F JUMP JUMPDEST PUSH1 0x40 MLOAD DUP1 SWAP2 SUB SWAP1 RETURN JUMPDEST CALLVALUE DUP1 ISZERO PUSH2 0x12F JUMPI PUSH1 0x0 DUP1 REVERT JUMPDEST POP PUSH2 0x14A PUSH1 0x4 DUP1 CALLDATASIZE SUB DUP2 ADD SWAP1 PUSH2 0x145 SWAP2 SWAP1 PUSH2 0xEFA JUMP JUMPDEST PUSH2 0x4A9 JUMP JUMPDEST PUSH1 0x40 MLOAD PUSH2 0x157 SWAP2 SWAP1 PUSH2 0xF55 JUMP JUMPDEST PUSH1 0x40 MLOAD DUP1 SWAP2 SUB SWAP1 RETURN JUMPDEST CALLVALUE DUP1 ISZERO PUSH2 0x16C JUMPI PUSH1 0x0 DUP1 REVERT JUMPDEST POP PUSH2 0x175 PUSH2 0x4CC JUMP JUMPDEST PUSH1 0x40 MLOAD PUSH2 0x182 SWAP2 SWAP1 PUSH2 0xF7F JUMP JUMPDEST PUSH1 0x40 MLOAD DUP1 SWAP2 SUB SWAP1 RETURN JUMPDEST CALLVALUE DUP1 ISZERO PUSH2 0x197 JUMPI PUSH1 0x0 DUP1 REVERT JUMPDEST POP PUSH2 0x1B2 PUSH1 0x4 DUP1 CALLDATASIZE SUB DUP2 ADD SWAP1 PUSH2 0x1AD SWAP2 SWAP1 PUSH2 0xF9A JUMP JUMPDEST PUSH2 0x4D6 JUMP JUMPDEST PUSH1 0x40 MLOAD PUSH2 0x1BF SWAP2 SWAP1 PUSH2 0xF55 JUMP JUMPDEST PUSH1 0x40 MLOAD DUP1 SWAP2 SUB SWAP1 RETURN JUMPDEST CALLVALUE DUP1 ISZERO PUSH2 0x1D4 JUMPI PUSH1 0x0 DUP1 REVERT JUMPDEST POP PUSH2 0x1DD PUSH2 0x505 JUMP JUMPDEST PUSH1 0x40 MLOAD PUSH2 0x1EA SWAP2 SWAP1 PUSH2 0x1009 JUMP JUMPDEST PUSH1 0x40 MLOAD DUP1 SWAP2 SUB SWAP1 RETURN JUMPDEST CALLVALUE DUP1 ISZERO PUSH2 0x1FF JUMPI PUSH1 0x0 DUP1 REVERT JUMPDEST POP PUSH2 0x21A PUSH1 0x4 DUP1 CALLDATASIZE SUB DUP2 ADD SWAP1 PUSH2 0x215 SWAP2 SWAP1 PUSH2 0xEFA JUMP JUMPDEST PUSH2 0x50E JUMP JUMPDEST PUSH1 0x40 MLOAD PUSH2 0x227 SWAP2 SWAP1 PUSH2 0xF55 JUMP JUMPDEST PUSH1 0x40 MLOAD DUP1 SWAP2 SUB SWAP1 RETURN JUMPDEST CALLVALUE DUP1 ISZERO PUSH2 0x23C JUMPI PUSH1 0x0 DUP1 REVERT JUMPDEST POP PUSH2 0x245 PUSH2 0x545 JUMP JUMPDEST PUSH1 0x40 MLOAD PUSH2 0x252 SWAP2 SWAP1 PUSH2 0xF7F JUMP JUMPDEST PUSH1 0x40 MLOAD DUP1 SWAP2 SUB SWAP1 RETURN JUMPDEST PUSH2 0x275 PUSH1 0x4 DUP1 CALLDATASIZE SUB DUP2 ADD SWAP1 PUSH2 0x270 SWAP2 SWAP1 PUSH2 0xEFA JUMP JUMPDEST PUSH2 0x54B JUMP JUMPDEST STOP JUMPDEST CALLVALUE DUP1 ISZERO PUSH2 0x283 JUMPI PUSH1 0x0 DUP1 REVERT JUMPDEST POP PUSH2 0x29E PUSH1 0x4 DUP1 CALLDATASIZE SUB DUP2 ADD SWAP1 PUSH2 0x299 SWAP2 SWAP1 PUSH2 0x1024 JUMP JUMPDEST PUSH2 0x55A JUMP JUMPDEST PUSH1 0x40 MLOAD PUSH2 0x2AB SWAP2 SWAP1 PUSH2 0xF7F JUMP JUMPDEST PUSH1 0x40 MLOAD DUP1 SWAP2 SUB SWAP1 RETURN JUMPDEST CALLVALUE DUP1 ISZERO PUSH2 0x2C0 JUMPI PUSH1 0x0 DUP1 REVERT JUMPDEST POP PUSH2 0x2C9 PUSH2 0x5A2 JUMP JUMPDEST PUSH1 0x40 MLOAD PUSH2 0x2D6 SWAP2 SWAP1 PUSH2 0xF7F JUMP JUMPDEST PUSH1 0x40 MLOAD DUP1 SWAP2 SUB SWAP1 RETURN JUMPDEST CALLVALUE DUP1 ISZERO PUSH2 0x2EB JUMPI PUSH1 0x0 DUP1 REVERT JUMPDEST POP PUSH2 0x2F4 PUSH2 0x5E8 JUMP JUMPDEST PUSH1 0x40 MLOAD PUSH2 0x301 SWAP2 SWAP1 PUSH2 0xE3F JUMP JUMPDEST PUSH1 0x40 MLOAD DUP1 SWAP2 SUB SWAP1 RETURN JUMPDEST CALLVALUE DUP1 ISZERO PUSH2 0x316 JUMPI PUSH1 0x0 DUP1 REVERT JUMPDEST POP PUSH2 0x331 PUSH1 0x4 DUP1 CALLDATASIZE SUB DUP2 ADD SWAP1 PUSH2 0x32C SWAP2 SWAP1 PUSH2 0xEFA JUMP JUMPDEST PUSH2 0x67A JUMP JUMPDEST PUSH1 0x40 MLOAD PUSH2 0x33E SWAP2 SWAP1 PUSH2 0xF55 JUMP JUMPDEST PUSH1 0x40 MLOAD DUP1 SWAP2 SUB SWAP1 RETURN JUMPDEST CALLVALUE DUP1 ISZERO PUSH2 0x353 JUMPI PUSH1 0x0 DUP1 REVERT JUMPDEST POP PUSH2 0x36E PUSH1 0x4 DUP1 CALLDATASIZE SUB DUP2 ADD SWAP1 PUSH2 0x369 SWAP2 SWAP1 PUSH2 0xEFA JUMP JUMPDEST PUSH2 0x6F1 JUMP JUMPDEST PUSH1 0x40 MLOAD PUSH2 0x37B SWAP2 SWAP1 PUSH2 0xF55 JUMP JUMPDEST PUSH1 0x40 MLOAD DUP1 SWAP2 SUB SWAP1 RETURN JUMPDEST CALLVALUE DUP1 ISZERO PUSH2 0x390 JUMPI PUSH1 0x0 DUP1 REVERT JUMPDEST POP PUSH2 0x399 PUSH2 0x72F JUMP JUMPDEST PUSH1 0x40 MLOAD PUSH2 0x3A6 SWAP2 SWAP1 PUSH2 0xE3F JUMP JUMPDEST PUSH1 0x40 MLOAD DUP1 SWAP2 SUB SWAP1 RETURN JUMPDEST CALLVALUE DUP1 ISZERO PUSH2 0x3BB JUMPI PUSH1 0x0 DUP1 REVERT JUMPDEST POP PUSH2 0x3C4 PUSH2 0x7BD JUMP JUMPDEST PUSH1 0x40 MLOAD PUSH2 0x3D1 SWAP2 SWAP1 PUSH2 0xE3F JUMP JUMPDEST PUSH1 0x40 MLOAD DUP1 SWAP2 SUB SWAP1 RETURN JUMPDEST CALLVALUE DUP1 ISZERO PUSH2 0x3E6 JUMPI PUSH1 0x0 DUP1 REVERT JUMPDEST POP PUSH2 0x401 PUSH1 0x4 DUP1 CALLDATASIZE SUB DUP2 ADD SWAP1 PUSH2 0x3FC SWAP2 SWAP1 PUSH2 0x1051 JUMP JUMPDEST PUSH2 0x84B JUMP JUMPDEST PUSH1 0x40 MLOAD PUSH2 0x40E SWAP2 SWAP1 PUSH2 0xF7F JUMP JUMPDEST PUSH1 0x40 MLOAD DUP1 SWAP2 SUB SWAP1 RETURN JUMPDEST PUSH1 0x60 PUSH1 0x3 DUP1 SLOAD PUSH2 0x426 SWAP1 PUSH2 0x10C0 JUMP JUMPDEST DUP1 PUSH1 0x1F ADD PUSH1 0x20 DUP1 SWAP2 DIV MUL PUSH1 0x20 ADD PUSH1 0x40 MLOAD SWAP1 DUP2 ADD PUSH1 0x40 MSTORE DUP1 SWAP3 SWAP2 SWAP1 DUP2 DUP2 MSTORE PUSH1 0x20 ADD DUP3 DUP1 SLOAD PUSH2 0x452 SWAP1 PUSH2 0x10C0 JUMP JUMPDEST DUP1 ISZERO PUSH2 0x49F JUMPI DUP1 PUSH1 0x1F LT PUSH2 0x474 JUMPI PUSH2 0x100 DUP1 DUP4 SLOAD DIV MUL DUP4 MSTORE SWAP2 PUSH1 0x20 ADD SWAP2 PUSH2 0x49F JUMP JUMPDEST DUP3 ADD SWAP2 SWAP1 PUSH1 0x0 MSTORE PUSH1 0x20 PUSH1 0x0 KECCAK256 SWAP1 JUMPDEST DUP2 SLOAD DUP2 MSTORE SWAP1 PUSH1 0x1 ADD SWAP1 PUSH1 0x20 ADD DUP1 DUP4 GT PUSH2 0x482 JUMPI DUP3 SWAP1 SUB PUSH1 0x1F AND DUP3 ADD SWAP2 JUMPDEST POP POP POP POP POP SWAP1 POP SWAP1 JUMP JUMPDEST PUSH1 0x0 DUP1 PUSH2 0x4B4 PUSH2 0x8D2 JUMP JUMPDEST SWAP1 POP PUSH2 0x4C1 DUP2 DUP6 DUP6 PUSH2 0x8DA JUMP JUMPDEST PUSH1 0x1 SWAP2 POP POP SWAP3 SWAP2 POP POP JUMP JUMPDEST PUSH1 0x0 PUSH1 0x2 SLOAD SWAP1 POP SWAP1 JUMP JUMPDEST PUSH1 0x0 DUP1 PUSH2 0x4E1 PUSH2 0x8D2 JUMP JUMPDEST SWAP1 POP PUSH2 0x4EE DUP6 DUP3 DUP6 PUSH2 0xAA3 JUMP JUMPDEST PUSH2 0x4F9 DUP6 DUP6 DUP6 PUSH2 0xB2F JUMP JUMPDEST PUSH1 0x1 SWAP2 POP POP SWAP4 SWAP3 POP POP POP JUMP JUMPDEST PUSH1 0x0 PUSH1 0x12 SWAP1 POP SWAP1 JUMP JUMPDEST PUSH1 0x0 DUP1 PUSH2 0x519 PUSH2 0x8D2 JUMP JUMPDEST SWAP1 POP PUSH2 0x53A DUP2 DUP6 DUP6 PUSH2 0x52B DUP6 DUP10 PUSH2 0x84B JUMP JUMPDEST PUSH2 0x535 SWAP2 SWAP1 PUSH2 0x1120 JUMP JUMPDEST PUSH2 0x8DA JUMP JUMPDEST PUSH1 0x1 SWAP2 POP POP SWAP3 SWAP2 POP POP JUMP JUMPDEST PUSH1 0x8 SLOAD DUP2 JUMP JUMPDEST PUSH2 0x556 ADDRESS DUP4 DUP4 PUSH2 0xB2F JUMP JUMPDEST POP POP JUMP JUMPDEST PUSH1 0x0 DUP1 PUSH1 0x0 DUP4 PUSH20 0xFFFFFFFFFFFFFFFFFFFFFFFFFFFFFFFFFFFFFFFF AND PUSH20 0xFFFFFFFFFFFFFFFFFFFFFFFFFFFFFFFFFFFFFFFF AND DUP2 MSTORE PUSH1 0x20 ADD SWAP1 DUP2 MSTORE PUSH1 0x20 ADD PUSH1 0x0 KECCAK256 SLOAD SWAP1 POP SWAP2 SWAP1 POP JUMP JUMPDEST PUSH1 0x0 DUP1 PUSH1 0x0 ADDRESS PUSH20 0xFFFFFFFFFFFFFFFFFFFFFFFFFFFFFFFFFFFFFFFF AND PUSH20 0xFFFFFFFFFFFFFFFFFFFFFFFFFFFFFFFFFFFFFFFF AND DUP2 MSTORE PUSH1 0x20 ADD SWAP1 DUP2 MSTORE PUSH1 0x20 ADD PUSH1 0x0 KECCAK256 SLOAD SWAP1 POP SWAP1 JUMP JUMPDEST PUSH1 0x60 PUSH1 0x4 DUP1 SLOAD PUSH2 0x5F7 SWAP1 PUSH2 0x10C0 JUMP JUMPDEST DUP1 PUSH1 0x1F ADD PUSH1 0x20 DUP1 SWAP2 DIV MUL PUSH1 0x20 ADD PUSH1 0x40 MLOAD SWAP1 DUP2 ADD PUSH1 0x40 MSTORE DUP1 SWAP3 SWAP2 SWAP1 DUP2 DUP2 MSTORE PUSH1 0x20 ADD DUP3 DUP1 SLOAD PUSH2 0x623 SWAP1 PUSH2 0x10C0 JUMP JUMPDEST DUP1 ISZERO PUSH2 0x670 JUMPI DUP1 PUSH1 0x1F LT PUSH2 0x645 JUMPI PUSH2 0x100 DUP1 DUP4 SLOAD DIV MUL DUP4 MSTORE SWAP2 PUSH1 0x20 ADD SWAP2 PUSH2 0x670 JUMP JUMPDEST DUP3 ADD SWAP2 SWAP1 PUSH1 0x0 MSTORE PUSH1 0x20 PUSH1 0x0 KECCAK256 SWAP1 JUMPDEST DUP2 SLOAD DUP2 MSTORE SWAP1 PUSH1 0x1 ADD SWAP1 PUSH1 0x20 ADD DUP1 DUP4 GT PUSH2 0x653 JUMPI DUP3 SWAP1 SUB PUSH1 0x1F AND DUP3 ADD SWAP2 JUMPDEST POP POP POP POP POP SWAP1 POP SWAP1 JUMP JUMPDEST PUSH1 0x0 DUP1 PUSH2 0x685 PUSH2 0x8D2 JUMP JUMPDEST SWAP1 POP PUSH1 0x0 PUSH2 0x693 DUP3 DUP7 PUSH2 0x84B JUMP JUMPDEST SWAP1 POP DUP4 DUP2 LT ISZERO PUSH2 0x6D8 JUMPI PUSH1 0x40 MLOAD PUSH32 0x8C379A000000000000000000000000000000000000000000000000000000000 DUP2 MSTORE PUSH1 0x4 ADD PUSH2 0x6CF SWAP1 PUSH2 0x11C6 JUMP JUMPDEST PUSH1 0x40 MLOAD DUP1 SWAP2 SUB SWAP1 REVERT JUMPDEST PUSH2 0x6E5 DUP3 DUP7 DUP7 DUP5 SUB PUSH2 0x8DA JUMP JUMPDEST PUSH1 0x1 SWAP3 POP POP POP SWAP3 SWAP2 POP POP JUMP JUMPDEST PUSH1 0x0 DUP1 PUSH1 0x5 PUSH1 0x0 SWAP1 SLOAD SWAP1 PUSH2 0x100 EXP SWAP1 DIV PUSH20 0xFFFFFFFFFFFFFFFFFFFFFFFFFFFFFFFFFFFFFFFF AND SWAP1 POP PUSH2 0x724 DUP2 DUP6 DUP6 PUSH2 0xB2F JUMP JUMPDEST PUSH1 0x1 SWAP2 POP POP SWAP3 SWAP2 POP POP JUMP JUMPDEST PUSH1 0x7 DUP1 SLOAD PUSH2 0x73C SWAP1 PUSH2 0x10C0 JUMP JUMPDEST DUP1 PUSH1 0x1F ADD PUSH1 0x20 DUP1 SWAP2 DIV MUL PUSH1 0x20 ADD PUSH1 0x40 MLOAD SWAP1 DUP2 ADD PUSH1 0x40 MSTORE DUP1 SWAP3 SWAP2 SWAP1 DUP2 DUP2 MSTORE PUSH1 0x20 ADD DUP3 DUP1 SLOAD PUSH2 0x768 SWAP1 PUSH2 0x10C0 JUMP JUMPDEST DUP1 ISZERO PUSH2 0x7B5 JUMPI DUP1 PUSH1 0x1F LT PUSH2 0x78A JUMPI PUSH2 0x100 DUP1 DUP4 SLOAD DIV MUL DUP4 MSTORE SWAP2 PUSH1 0x20 ADD SWAP2 PUSH2 0x7B5 JUMP JUMPDEST DUP3 ADD SWAP2 SWAP1 PUSH1 0x0 MSTORE PUSH1 0x20 PUSH1 0x0 KECCAK256 SWAP1 JUMPDEST DUP2 SLOAD DUP2 MSTORE SWAP1 PUSH1 0x1 ADD SWAP1 PUSH1 0x20 ADD DUP1 DUP4 GT PUSH2 0x798 JUMPI DUP3 SWAP1 SUB PUSH1 0x1F AND DUP3 ADD SWAP2 JUMPDEST POP POP POP POP POP DUP2 JUMP JUMPDEST PUSH1 0x6 DUP1 SLOAD PUSH2 0x7CA SWAP1 PUSH2 0x10C0 JUMP JUMPDEST DUP1 PUSH1 0x1F ADD PUSH1 0x20 DUP1 SWAP2 DIV MUL PUSH1 0x20 ADD PUSH1 0x40 MLOAD SWAP1 DUP2 ADD PUSH1 0x40 MSTORE DUP1 SWAP3 SWAP2 SWAP1 DUP2 DUP2 MSTORE PUSH1 0x20 ADD DUP3 DUP1 SLOAD PUSH2 0x7F6 SWAP1 PUSH2 0x10C0 JUMP JUMPDEST DUP1 ISZERO PUSH2 0x843 JUMPI DUP1 PUSH1 0x1F LT PUSH2 0x818 JUMPI PUSH2 0x100 DUP1 DUP4 SLOAD DIV MUL DUP4 MSTORE SWAP2 PUSH1 0x20 ADD SWAP2 PUSH2 0x843 JUMP JUMPDEST DUP3 ADD SWAP2 SWAP1 PUSH1 0x0 MSTORE PUSH1 0x20 PUSH1 0x0 KECCAK256 SWAP1 JUMPDEST DUP2 SLOAD DUP2 MSTORE SWAP1 PUSH1 0x1 ADD SWAP1 PUSH1 0x20 ADD DUP1 DUP4 GT PUSH2 0x826 JUMPI DUP3 SWAP1 SUB PUSH1 0x1F AND DUP3 ADD SWAP2 JUMPDEST POP POP POP POP POP DUP2 JUMP JUMPDEST PUSH1 0x0 PUSH1 0x1 PUSH1 0x0 DUP5 PUSH20 0xFFFFFFFFFFFFFFFFFFFFFFFFFFFFFFFFFFFFFFFF AND PUSH20 0xFFFFFFFFFFFFFFFFFFFFFFFFFFFFFFFFFFFFFFFF AND DUP2 MSTORE PUSH1 0x20 ADD SWAP1 DUP2 MSTORE PUSH1 0x20 ADD PUSH1 0x0 KECCAK256 PUSH1 0x0 DUP4 PUSH20 0xFFFFFFFFFFFFFFFFFFFFFFFFFFFFFFFFFFFFFFFF AND PUSH20 0xFFFFFFFFFFFFFFFFFFFFFFFFFFFFFFFFFFFFFFFF AND DUP2 MSTORE PUSH1 0x20 ADD SWAP1 DUP2 MSTORE PUSH1 0x20 ADD PUSH1 0x0 KECCAK256 SLOAD SWAP1 POP SWAP3 SWAP2 POP POP JUMP JUMPDEST PUSH1 0x0 CALLER SWAP1 POP SWAP1 JUMP JUMPDEST PUSH1 0x0 PUSH20 0xFFFFFFFFFFFFFFFFFFFFFFFFFFFFFFFFFFFFFFFF AND DUP4 PUSH20 0xFFFFFFFFFFFFFFFFFFFFFFFFFFFFFFFFFFFFFFFF AND SUB PUSH2 0x949 JUMPI PUSH1 0x40 MLOAD PUSH32 0x8C379A000000000000000000000000000000000000000000000000000000000 DUP2 MSTORE PUSH1 0x4 ADD PUSH2 0x940 SWAP1 PUSH2 0x1258 JUMP JUMPDEST PUSH1 0x40 MLOAD DUP1 SWAP2 SUB SWAP1 REVERT JUMPDEST PUSH1 0x0 PUSH20 0xFFFFFFFFFFFFFFFFFFFFFFFFFFFFFFFFFFFFFFFF AND DUP3 PUSH20 0xFFFFFFFFFFFFFFFFFFFFFFFFFFFFFFFFFFFFFFFF AND SUB PUSH2 0x9B8 JUMPI PUSH1 0x40 MLOAD PUSH32 0x8C379A000000000000000000000000000000000000000000000000000000000 DUP2 MSTORE PUSH1 0x4 ADD PUSH2 0x9AF SWAP1 PUSH2 0x12EA JUMP JUMPDEST PUSH1 0x40 MLOAD DUP1 SWAP2 SUB SWAP1 REVERT JUMPDEST DUP1 PUSH1 0x1 PUSH1 0x0 DUP6 PUSH20 0xFFFFFFFFFFFFFFFFFFFFFFFFFFFFFFFFFFFFFFFF AND PUSH20 0xFFFFFFFFFFFFFFFFFFFFFFFFFFFFFFFFFFFFFFFF AND DUP2 MSTORE PUSH1 0x20 ADD SWAP1 DUP2 MSTORE PUSH1 0x20 ADD PUSH1 0x0 KECCAK256 PUSH1 0x0 DUP5 PUSH20 0xFFFFFFFFFFFFFFFFFFFFFFFFFFFFFFFFFFFFFFFF AND PUSH20 0xFFFFFFFFFFFFFFFFFFFFFFFFFFFFFFFFFFFFFFFF AND DUP2 MSTORE PUSH1 0x20 ADD SWAP1 DUP2 MSTORE PUSH1 0x20 ADD PUSH1 0x0 KECCAK256 DUP2 SWAP1 SSTORE POP DUP2 PUSH20 0xFFFFFFFFFFFFFFFFFFFFFFFFFFFFFFFFFFFFFFFF AND DUP4 PUSH20 0xFFFFFFFFFFFFFFFFFFFFFFFFFFFFFFFFFFFFFFFF AND PUSH32 0x8C5BE1E5EBEC7D5BD14F71427D1E84F3DD0314C0F7B2291E5B200AC8C7C3B925 DUP4 PUSH1 0x40 MLOAD PUSH2 0xA96 SWAP2 SWAP1 PUSH2 0xF7F JUMP JUMPDEST PUSH1 0x40 MLOAD DUP1 SWAP2 SUB SWAP1 LOG3 POP POP POP JUMP JUMPDEST PUSH1 0x0 PUSH2 0xAAF DUP5 DUP5 PUSH2 0x84B JUMP JUMPDEST SWAP1 POP PUSH32 0xFFFFFFFFFFFFFFFFFFFFFFFFFFFFFFFFFFFFFFFFFFFFFFFFFFFFFFFFFFFFFFFF DUP2 EQ PUSH2 0xB29 JUMPI DUP2 DUP2 LT ISZERO PUSH2 0xB1B JUMPI PUSH1 0x40 MLOAD PUSH32 0x8C379A000000000000000000000000000000000000000000000000000000000 DUP2 MSTORE PUSH1 0x4 ADD PUSH2 0xB12 SWAP1 PUSH2 0x1356 JUMP JUMPDEST PUSH1 0x40 MLOAD DUP1 SWAP2 SUB SWAP1 REVERT JUMPDEST PUSH2 0xB28 DUP5 DUP5 DUP5 DUP5 SUB PUSH2 0x8DA JUMP JUMPDEST JUMPDEST POP POP POP POP JUMP JUMPDEST PUSH1 0x0 PUSH20 0xFFFFFFFFFFFFFFFFFFFFFFFFFFFFFFFFFFFFFFFF AND DUP4 PUSH20 0xFFFFFFFFFFFFFFFFFFFFFFFFFFFFFFFFFFFFFFFF AND SUB PUSH2 0xB9E JUMPI PUSH1 0x40 MLOAD PUSH32 0x8C379A000000000000000000000000000000000000000000000000000000000 DUP2 MSTORE PUSH1 0x4 ADD PUSH2 0xB95 SWAP1 PUSH2 0x13E8 JUMP JUMPDEST PUSH1 0x40 MLOAD DUP1 SWAP2 SUB SWAP1 REVERT JUMPDEST PUSH1 0x0 PUSH20 0xFFFFFFFFFFFFFFFFFFFFFFFFFFFFFFFFFFFFFFFF AND DUP3 PUSH20 0xFFFFFFFFFFFFFFFFFFFFFFFFFFFFFFFFFFFFFFFF AND SUB PUSH2 0xC0D JUMPI PUSH1 0x40 MLOAD PUSH32 0x8C379A000000000000000000000000000000000000000000000000000000000 DUP2 MSTORE PUSH1 0x4 ADD PUSH2 0xC04 SWAP1 PUSH2 0x147A JUMP JUMPDEST PUSH1 0x40 MLOAD DUP1 SWAP2 SUB SWAP1 REVERT JUMPDEST PUSH2 0xC18 DUP4 DUP4 DUP4 PUSH2 0xDA5 JUMP JUMPDEST PUSH1 0x0 DUP1 PUSH1 0x0 DUP6 PUSH20 0xFFFFFFFFFFFFFFFFFFFFFFFFFFFFFFFFFFFFFFFF AND PUSH20 0xFFFFFFFFFFFFFFFFFFFFFFFFFFFFFFFFFFFFFFFF AND DUP2 MSTORE PUSH1 0x20 ADD SWAP1 DUP2 MSTORE PUSH1 0x20 ADD PUSH1 0x0 KECCAK256 SLOAD SWAP1 POP DUP2 DUP2 LT ISZERO PUSH2 0xC9E JUMPI PUSH1 0x40 MLOAD PUSH32 0x8C379A000000000000000000000000000000000000000000000000000000000 DUP2 MSTORE PUSH1 0x4 ADD PUSH2 0xC95 SWAP1 PUSH2 0x150C JUMP JUMPDEST PUSH1 0x40 MLOAD DUP1 SWAP2 SUB SWAP1 REVERT JUMPDEST DUP2 DUP2 SUB PUSH1 0x0 DUP1 DUP7 PUSH20 0xFFFFFFFFFFFFFFFFFFFFFFFFFFFFFFFFFFFFFFFF AND PUSH20 0xFFFFFFFFFFFFFFFFFFFFFFFFFFFFFFFFFFFFFFFF AND DUP2 MSTORE PUSH1 0x20 ADD SWAP1 DUP2 MSTORE PUSH1 0x20 ADD PUSH1 0x0 KECCAK256 DUP2 SWAP1 SSTORE POP DUP2 PUSH1 0x0 DUP1 DUP6 PUSH20 0xFFFFFFFFFFFFFFFFFFFFFFFFFFFFFFFFFFFFFFFF AND PUSH20 0xFFFFFFFFFFFFFFFFFFFFFFFFFFFFFFFFFFFFFFFF AND DUP2 MSTORE PUSH1 0x20 ADD SWAP1 DUP2 MSTORE PUSH1 0x20 ADD PUSH1 0x0 KECCAK256 PUSH1 0x0 DUP3 DUP3 SLOAD ADD SWAP3 POP POP DUP2 SWAP1 SSTORE POP DUP3 PUSH20 0xFFFFFFFFFFFFFFFFFFFFFFFFFFFFFFFFFFFFFFFF AND DUP5 PUSH20 0xFFFFFFFFFFFFFFFFFFFFFFFFFFFFFFFFFFFFFFFF AND PUSH32 0xDDF252AD1BE2C89B69C2B068FC378DAA952BA7F163C4A11628F55A4DF523B3EF DUP5 PUSH1 0x40 MLOAD PUSH2 0xD8C SWAP2 SWAP1 PUSH2 0xF7F JUMP JUMPDEST PUSH1 0x40 MLOAD DUP1 SWAP2 SUB SWAP1 LOG3 PUSH2 0xD9F DUP5 DUP5 DUP5 PUSH2 0xDAA JUMP JUMPDEST POP POP POP POP JUMP JUMPDEST POP POP POP JUMP JUMPDEST POP POP POP JUMP JUMPDEST PUSH1 0x0 DUP2 MLOAD SWAP1 POP SWAP2 SWAP1 POP JUMP JUMPDEST PUSH1 0x0 DUP3 DUP3 MSTORE PUSH1 0x20 DUP3 ADD SWAP1 POP SWAP3 SWAP2 POP POP JUMP JUMPDEST PUSH1 0x0 JUMPDEST DUP4 DUP2 LT ISZERO PUSH2 0xDE9 JUMPI DUP1 DUP3 ADD MLOAD DUP2 DUP5 ADD MSTORE PUSH1 0x20 DUP2 ADD SWAP1 POP PUSH2 0xDCE JUMP JUMPDEST PUSH1 0x0 DUP5 DUP5 ADD MSTORE POP POP POP POP JUMP JUMPDEST PUSH1 0x0 PUSH1 0x1F NOT PUSH1 0x1F DUP4 ADD AND SWAP1 POP SWAP2 SWAP1 POP JUMP JUMPDEST PUSH1 0x0 PUSH2 0xE11 DUP3 PUSH2 0xDAF JUMP JUMPDEST PUSH2 0xE1B DUP2 DUP6 PUSH2 0xDBA JUMP JUMPDEST SWAP4 POP PUSH2 0xE2B DUP2 DUP6 PUSH1 0x20 DUP7 ADD PUSH2 0xDCB JUMP JUMPDEST PUSH2 0xE34 DUP2 PUSH2 0xDF5 JUMP JUMPDEST DUP5 ADD SWAP2 POP POP SWAP3 SWAP2 POP POP JUMP JUMPDEST PUSH1 0x0 PUSH1 0x20 DUP3 ADD SWAP1 POP DUP2 DUP2 SUB PUSH1 0x0 DUP4 ADD MSTORE PUSH2 0xE59 DUP2 DUP5 PUSH2 0xE06 JUMP JUMPDEST SWAP1 POP SWAP3 SWAP2 POP POP JUMP JUMPDEST PUSH1 0x0 DUP1 REVERT JUMPDEST PUSH1 0x0 PUSH20 0xFFFFFFFFFFFFFFFFFFFFFFFFFFFFFFFFFFFFFFFF DUP3 AND SWAP1 POP SWAP2 SWAP1 POP JUMP JUMPDEST PUSH1 0x0 PUSH2 0xE91 DUP3 PUSH2 0xE66 JUMP JUMPDEST SWAP1 POP SWAP2 SWAP1 POP JUMP JUMPDEST PUSH2 0xEA1 DUP2 PUSH2 0xE86 JUMP JUMPDEST DUP2 EQ PUSH2 0xEAC JUMPI PUSH1 0x0 DUP1 REVERT JUMPDEST POP JUMP JUMPDEST PUSH1 0x0 DUP2 CALLDATALOAD SWAP1 POP PUSH2 0xEBE DUP2 PUSH2 0xE98 JUMP JUMPDEST SWAP3 SWAP2 POP POP JUMP JUMPDEST PUSH1 0x0 DUP2 SWAP1 POP SWAP2 SWAP1 POP JUMP JUMPDEST PUSH2 0xED7 DUP2 PUSH2 0xEC4 JUMP JUMPDEST DUP2 EQ PUSH2 0xEE2 JUMPI PUSH1 0x0 DUP1 REVERT JUMPDEST POP JUMP JUMPDEST PUSH1 0x0 DUP2 CALLDATALOAD SWAP1 POP PUSH2 0xEF4 DUP2 PUSH2 0xECE JUMP JUMPDEST SWAP3 SWAP2 POP POP JUMP JUMPDEST PUSH1 0x0 DUP1 PUSH1 0x40 DUP4 DUP6 SUB SLT ISZERO PUSH2 0xF11 JUMPI PUSH2 0xF10 PUSH2 0xE61 JUMP JUMPDEST JUMPDEST PUSH1 0x0 PUSH2 0xF1F DUP6 DUP3 DUP7 ADD PUSH2 0xEAF JUMP JUMPDEST SWAP3 POP POP PUSH1 0x20 PUSH2 0xF30 DUP6 DUP3 DUP7 ADD PUSH2 0xEE5 JUMP JUMPDEST SWAP2 POP POP SWAP3 POP SWAP3 SWAP1 POP JUMP JUMPDEST PUSH1 0x0 DUP2 ISZERO ISZERO SWAP1 POP SWAP2 SWAP1 POP JUMP JUMPDEST PUSH2 0xF4F DUP2 PUSH2 0xF3A JUMP JUMPDEST DUP3 MSTORE POP POP JUMP JUMPDEST PUSH1 0x0 PUSH1 0x20 DUP3 ADD SWAP1 POP PUSH2 0xF6A PUSH1 0x0 DUP4 ADD DUP5 PUSH2 0xF46 JUMP JUMPDEST SWAP3 SWAP2 POP POP JUMP JUMPDEST PUSH2 0xF79 DUP2 PUSH2 0xEC4 JUMP JUMPDEST DUP3 MSTORE POP POP JUMP JUMPDEST PUSH1 0x0 PUSH1 0x20 DUP3 ADD SWAP1 POP PUSH2 0xF94 PUSH1 0x0 DUP4 ADD DUP5 PUSH2 0xF70 JUMP JUMPDEST SWAP3 SWAP2 POP POP JUMP JUMPDEST PUSH1 0x0 DUP1 PUSH1 0x0 PUSH1 0x60 DUP5 DUP7 SUB SLT ISZERO PUSH2 0xFB3 JUMPI PUSH2 0xFB2 PUSH2 0xE61 JUMP JUMPDEST JUMPDEST PUSH1 0x0 PUSH2 0xFC1 DUP7 DUP3 DUP8 ADD PUSH2 0xEAF JUMP JUMPDEST SWAP4 POP POP PUSH1 0x20 PUSH2 0xFD2 DUP7 DUP3 DUP8 ADD PUSH2 0xEAF JUMP JUMPDEST SWAP3 POP POP PUSH1 0x40 PUSH2 0xFE3 DUP7 DUP3 DUP8 ADD PUSH2 0xEE5 JUMP JUMPDEST SWAP2 POP POP SWAP3 POP SWAP3 POP SWAP3 JUMP JUMPDEST PUSH1 0x0 PUSH1 0xFF DUP3 AND SWAP1 POP SWAP2 SWAP1 POP JUMP JUMPDEST PUSH2 0x1003 DUP2 PUSH2 0xFED JUMP JUMPDEST DUP3 MSTORE POP POP JUMP JUMPDEST PUSH1 0x0 PUSH1 0x20 DUP3 ADD SWAP1 POP PUSH2 0x101E PUSH1 0x0 DUP4 ADD DUP5 PUSH2 0xFFA JUMP JUMPDEST SWAP3 SWAP2 POP POP JUMP JUMPDEST PUSH1 0x0 PUSH1 0x20 DUP3 DUP5 SUB SLT ISZERO PUSH2 0x103A JUMPI PUSH2 0x1039 PUSH2 0xE61 JUMP JUMPDEST JUMPDEST PUSH1 0x0 PUSH2 0x1048 DUP5 DUP3 DUP6 ADD PUSH2 0xEAF JUMP JUMPDEST SWAP2 POP POP SWAP3 SWAP2 POP POP JUMP JUMPDEST PUSH1 0x0 DUP1 PUSH1 0x40 DUP4 DUP6 SUB SLT ISZERO PUSH2 0x1068 JUMPI PUSH2 0x1067 PUSH2 0xE61 JUMP JUMPDEST JUMPDEST PUSH1 0x0 PUSH2 0x1076 DUP6 DUP3 DUP7 ADD PUSH2 0xEAF JUMP JUMPDEST SWAP3 POP POP PUSH1 0x20 PUSH2 0x1087 DUP6 DUP3 DUP7 ADD PUSH2 0xEAF JUMP JUMPDEST SWAP2 POP POP SWAP3 POP SWAP3 SWAP1 POP JUMP JUMPDEST PUSH32 0x4E487B7100000000000000000000000000000000000000000000000000000000 PUSH1 0x0 MSTORE PUSH1 0x22 PUSH1 0x4 MSTORE PUSH1 0x24 PUSH1 0x0 REVERT JUMPDEST PUSH1 0x0 PUSH1 0x2 DUP3 DIV SWAP1 POP PUSH1 0x1 DUP3 AND DUP1 PUSH2 0x10D8 JUMPI PUSH1 0x7F DUP3 AND SWAP2 POP JUMPDEST PUSH1 0x20 DUP3 LT DUP2 SUB PUSH2 0x10EB JUMPI PUSH2 0x10EA PUSH2 0x1091 JUMP JUMPDEST JUMPDEST POP SWAP2 SWAP1 POP JUMP JUMPDEST PUSH32 0x4E487B7100000000000000000000000000000000000000000000000000000000 PUSH1 0x0 MSTORE PUSH1 0x11 PUSH1 0x4 MSTORE PUSH1 0x24 PUSH1 0x0 REVERT JUMPDEST PUSH1 0x0 PUSH2 0x112B DUP3 PUSH2 0xEC4 JUMP JUMPDEST SWAP2 POP PUSH2 0x1136 DUP4 PUSH2 0xEC4 JUMP JUMPDEST SWAP3 POP DUP3 DUP3 ADD SWAP1 POP DUP1 DUP3 GT ISZERO PUSH2 0x114E JUMPI PUSH2 0x114D PUSH2 0x10F1 JUMP JUMPDEST JUMPDEST SWAP3 SWAP2 POP POP JUMP JUMPDEST PUSH32 0x45524332303A2064656372656173656420616C6C6F77616E63652062656C6F77 PUSH1 0x0 DUP3 ADD MSTORE PUSH32 0x207A65726F000000000000000000000000000000000000000000000000000000 PUSH1 0x20 DUP3 ADD MSTORE POP JUMP JUMPDEST PUSH1 0x0 PUSH2 0x11B0 PUSH1 0x25 DUP4 PUSH2 0xDBA JUMP JUMPDEST SWAP2 POP PUSH2 0x11BB DUP3 PUSH2 0x1154 JUMP JUMPDEST PUSH1 0x40 DUP3 ADD SWAP1 POP SWAP2 SWAP1 POP JUMP JUMPDEST PUSH1 0x0 PUSH1 0x20 DUP3 ADD SWAP1 POP DUP2 DUP2 SUB PUSH1 0x0 DUP4 ADD MSTORE PUSH2 0x11DF DUP2 PUSH2 0x11A3 JUMP JUMPDEST SWAP1 POP SWAP2 SWAP1 POP JUMP JUMPDEST PUSH32 0x45524332303A20617070726F76652066726F6D20746865207A65726F20616464 PUSH1 0x0 DUP3 ADD MSTORE PUSH32 0x7265737300000000000000000000000000000000000000000000000000000000 PUSH1 0x20 DUP3 ADD MSTORE POP JUMP JUMPDEST PUSH1 0x0 PUSH2 0x1242 PUSH1 0x24 DUP4 PUSH2 0xDBA JUMP JUMPDEST SWAP2 POP PUSH2 0x124D DUP3 PUSH2 0x11E6 JUMP JUMPDEST PUSH1 0x40 DUP3 ADD SWAP1 POP SWAP2 SWAP1 POP JUMP JUMPDEST PUSH1 0x0 PUSH1 0x20 DUP3 ADD SWAP1 POP DUP2 DUP2 SUB PUSH1 0x0 DUP4 ADD MSTORE PUSH2 0x1271 DUP2 PUSH2 0x1235 JUMP JUMPDEST SWAP1 POP SWAP2 SWAP1 POP JUMP JUMPDEST PUSH32 0x45524332303A20617070726F766520746F20746865207A65726F206164647265 PUSH1 0x0 DUP3 ADD MSTORE PUSH32 0x7373000000000000000000000000000000000000000000000000000000000000 PUSH1 0x20 DUP3 ADD MSTORE POP JUMP JUMPDEST PUSH1 0x0 PUSH2 0x12D4 PUSH1 0x22 DUP4 PUSH2 0xDBA JUMP JUMPDEST SWAP2 POP PUSH2 0x12DF DUP3 PUSH2 0x1278 JUMP JUMPDEST PUSH1 0x40 DUP3 ADD SWAP1 POP SWAP2 SWAP1 POP JUMP JUMPDEST PUSH1 0x0 PUSH1 0x20 DUP3 ADD SWAP1 POP DUP2 DUP2 SUB PUSH1 0x0 DUP4 ADD MSTORE PUSH2 0x1303 DUP2 PUSH2 0x12C7 JUMP JUMPDEST SWAP1 POP SWAP2 SWAP1 POP JUMP JUMPDEST PUSH32 0x45524332303A20696E73756666696369656E7420616C6C6F77616E6365000000 PUSH1 0x0 DUP3 ADD MSTORE POP JUMP JUMPDEST PUSH1 0x0 PUSH2 0x1340 PUSH1 0x1D DUP4 PUSH2 0xDBA JUMP JUMPDEST SWAP2 POP PUSH2 0x134B DUP3 PUSH2 0x130A JUMP JUMPDEST PUSH1 0x20 DUP3 ADD SWAP1 POP SWAP2 SWAP1 POP JUMP JUMPDEST PUSH1 0x0 PUSH1 0x20 DUP3 ADD SWAP1 POP DUP2 DUP2 SUB PUSH1 0x0 DUP4 ADD MSTORE PUSH2 0x136F DUP2 PUSH2 0x1333 JUMP JUMPDEST SWAP1 POP SWAP2 SWAP1 POP JUMP JUMPDEST PUSH32 0x45524332303A207472616E736665722066726F6D20746865207A65726F206164 PUSH1 0x0 DUP3 ADD MSTORE PUSH32 0x6472657373000000000000000000000000000000000000000000000000000000 PUSH1 0x20 DUP3 ADD MSTORE POP JUMP JUMPDEST PUSH1 0x0 PUSH2 0x13D2 PUSH1 0x25 DUP4 PUSH2 0xDBA JUMP JUMPDEST SWAP2 POP PUSH2 0x13DD DUP3 PUSH2 0x1376 JUMP JUMPDEST PUSH1 0x40 DUP3 ADD SWAP1 POP SWAP2 SWAP1 POP JUMP JUMPDEST PUSH1 0x0 PUSH1 0x20 DUP3 ADD SWAP1 POP DUP2 DUP2 SUB PUSH1 0x0 DUP4 ADD MSTORE PUSH2 0x1401 DUP2 PUSH2 0x13C5 JUMP JUMPDEST SWAP1 POP SWAP2 SWAP1 POP JUMP JUMPDEST PUSH32 0x45524332303A207472616E7366657220746F20746865207A65726F2061646472 PUSH1 0x0 DUP3 ADD MSTORE PUSH32 0x6573730000000000000000000000000000000000000000000000000000000000 PUSH1 0x20 DUP3 ADD MSTORE POP JUMP JUMPDEST PUSH1 0x0 PUSH2 0x1464 PUSH1 0x23 DUP4 PUSH2 0xDBA JUMP JUMPDEST SWAP2 POP PUSH2 0x146F DUP3 PUSH2 0x1408 JUMP JUMPDEST PUSH1 0x40 DUP3 ADD SWAP1 POP SWAP2 SWAP1 POP JUMP JUMPDEST PUSH1 0x0 PUSH1 0x20 DUP3 ADD SWAP1 POP DUP2 DUP2 SUB PUSH1 0x0 DUP4 ADD MSTORE PUSH2 0x1493 DUP2 PUSH2 0x1457 JUMP JUMPDEST SWAP1 POP SWAP2 SWAP1 POP JUMP JUMPDEST PUSH32 0x45524332303A207472616E7366657220616D6F756E7420657863656564732062 PUSH1 0x0 DUP3 ADD MSTORE PUSH32 0x616C616E63650000000000000000000000000000000000000000000000000000 PUSH1 0x20 DUP3 ADD MSTORE POP JUMP JUMPDEST PUSH1 0x0 PUSH2 0x14F6 PUSH1 0x26 DUP4 PUSH2 0xDBA JUMP JUMPDEST SWAP2 POP PUSH2 0x1501 DUP3 PUSH2 0x149A JUMP JUMPDEST PUSH1 0x40 DUP3 ADD SWAP1 POP SWAP2 SWAP1 POP JUMP JUMPDEST PUSH1 0x0 PUSH1 0x20 DUP3 ADD SWAP1 POP DUP2 DUP2 SUB PUSH1 0x0 DUP4 ADD MSTORE PUSH2 0x1525 DUP2 PUSH2 0x14E9 JUMP JUMPDEST SWAP1 POP SWAP2 SWAP1 POP JUMP INVALID LOG2 PUSH5 0x6970667358 0x22 SLT KECCAK256 MSTORE8 0xB1 SWAP15 LOG3 PUSH25 0xD865FBF88D94BCA9F220B3EEAE77BE009869C5139DB03E0EF6 GAS PUSH21 0x64736F6C6343000812003300000000000000000000 "
				},
				"gasEstimates": {
					"creation": {
						"codeDepositCost": "1094800",
						"executionCost": "infinite",
						"totalCost": "infinite"
					},
					"external": {
						"_balanceOf()": "2571",
						"_name()": "infinite",
						"_symbol()": "infinite",
						"_totalSupply()": "2496",
						"allowance(address,address)": "infinite",
						"approve(address,uint256)": "infinite",
						"balanceOf(address)": "2864",
						"buyToken(address,uint256)": "infinite",
						"decimals()": "366",
						"decreaseAllowance(address,uint256)": "infinite",
						"increaseAllowance(address,uint256)": "infinite",
						"name()": "infinite",
						"symbol()": "infinite",
						"totalSupply()": "2505",
						"transfer(address,uint256)": "infinite",
						"transferFrom(address,address,uint256)": "infinite"
					}
				},
				"methodIdentifiers": {
					"_balanceOf()": "89ded484",
					"_name()": "d28d8852",
					"_symbol()": "b09f1266",
					"_totalSupply()": "3eaaf86b",
					"allowance(address,address)": "dd62ed3e",
					"approve(address,uint256)": "095ea7b3",
					"balanceOf(address)": "70a08231",
					"buyToken(address,uint256)": "68f8fc10",
					"decimals()": "313ce567",
					"decreaseAllowance(address,uint256)": "a457c2d7",
					"increaseAllowance(address,uint256)": "39509351",
					"name()": "06fdde03",
					"symbol()": "95d89b41",
					"totalSupply()": "18160ddd",
					"transfer(address,uint256)": "a9059cbb",
					"transferFrom(address,address,uint256)": "23b872dd"
				}
			},
			"storageLayout": {
				"storage": [
					{
						"astId": 52,
						"contract": "contracts/JwtToken.sol:JwtToken",
						"label": "_balances",
						"offset": 0,
						"slot": "0",
						"type": "t_mapping(t_address,t_uint256)"
					},
					{
						"astId": 58,
						"contract": "contracts/JwtToken.sol:JwtToken",
						"label": "_allowances",
						"offset": 0,
						"slot": "1",
						"type": "t_mapping(t_address,t_mapping(t_address,t_uint256))"
					},
					{
						"astId": 60,
						"contract": "contracts/JwtToken.sol:JwtToken",
						"label": "_totalSupply",
						"offset": 0,
						"slot": "2",
						"type": "t_uint256"
					},
					{
						"astId": 62,
						"contract": "contracts/JwtToken.sol:JwtToken",
						"label": "_name",
						"offset": 0,
						"slot": "3",
						"type": "t_string_storage"
					},
					{
						"astId": 64,
						"contract": "contracts/JwtToken.sol:JwtToken",
						"label": "_symbol",
						"offset": 0,
						"slot": "4",
						"type": "t_string_storage"
					},
					{
						"astId": 66,
						"contract": "contracts/JwtToken.sol:JwtToken",
						"label": "_owner",
						"offset": 0,
						"slot": "5",
						"type": "t_address"
					},
					{
						"astId": 7,
						"contract": "contracts/JwtToken.sol:JwtToken",
						"label": "_name",
						"offset": 0,
						"slot": "6",
						"type": "t_string_storage"
					},
					{
						"astId": 10,
						"contract": "contracts/JwtToken.sol:JwtToken",
						"label": "_symbol",
						"offset": 0,
						"slot": "7",
						"type": "t_string_storage"
					},
					{
						"astId": 19,
						"contract": "contracts/JwtToken.sol:JwtToken",
						"label": "_totalSupply",
						"offset": 0,
						"slot": "8",
						"type": "t_uint256"
					}
				],
				"types": {
					"t_address": {
						"encoding": "inplace",
						"label": "address",
						"numberOfBytes": "20"
					},
					"t_mapping(t_address,t_mapping(t_address,t_uint256))": {
						"encoding": "mapping",
						"key": "t_address",
						"label": "mapping(address => mapping(address => uint256))",
						"numberOfBytes": "32",
						"value": "t_mapping(t_address,t_uint256)"
					},
					"t_mapping(t_address,t_uint256)": {
						"encoding": "mapping",
						"key": "t_address",
						"label": "mapping(address => uint256)",
						"numberOfBytes": "32",
						"value": "t_uint256"
					},
					"t_string_storage": {
						"encoding": "bytes",
						"label": "string",
						"numberOfBytes": "32"
					},
					"t_uint256": {
						"encoding": "inplace",
						"label": "uint256",
						"numberOfBytes": "32"
					}
				}
			},
			"userdoc": {
				"kind": "user",
				"methods": {},
				"version": 1
			}
		}
	}
}